{
  "contractName": "NFT",
  "abi": [
    {
      "inputs": [],
      "stateMutability": "nonpayable",
      "type": "constructor"
    },
    {
      "anonymous": false,
      "inputs": [
        {
          "indexed": true,
          "internalType": "address",
          "name": "owner",
          "type": "address"
        },
        {
          "indexed": true,
          "internalType": "address",
          "name": "approved",
          "type": "address"
        },
        {
          "indexed": true,
          "internalType": "uint256",
          "name": "tokenId",
          "type": "uint256"
        }
      ],
      "name": "Approval",
      "type": "event"
    },
    {
      "anonymous": false,
      "inputs": [
        {
          "indexed": true,
          "internalType": "address",
          "name": "owner",
          "type": "address"
        },
        {
          "indexed": true,
          "internalType": "address",
          "name": "operator",
          "type": "address"
        },
        {
          "indexed": false,
          "internalType": "bool",
          "name": "approved",
          "type": "bool"
        }
      ],
      "name": "ApprovalForAll",
      "type": "event"
    },
    {
      "anonymous": false,
      "inputs": [
        {
          "indexed": false,
          "internalType": "uint256",
          "name": "_fromTokenId",
          "type": "uint256"
        },
        {
          "indexed": false,
          "internalType": "uint256",
          "name": "_toTokenId",
          "type": "uint256"
        }
      ],
      "name": "BatchMetadataUpdate",
      "type": "event"
    },
    {
      "anonymous": false,
      "inputs": [
        {
          "indexed": false,
          "internalType": "uint256",
          "name": "_tokenId",
          "type": "uint256"
        }
      ],
      "name": "MetadataUpdate",
      "type": "event"
    },
    {
      "anonymous": false,
      "inputs": [
        {
          "indexed": true,
          "internalType": "address",
          "name": "previousOwner",
          "type": "address"
        },
        {
          "indexed": true,
          "internalType": "address",
          "name": "newOwner",
          "type": "address"
        }
      ],
      "name": "OwnershipTransferred",
      "type": "event"
    },
    {
      "anonymous": false,
      "inputs": [
        {
          "indexed": true,
          "internalType": "address",
          "name": "from",
          "type": "address"
        },
        {
          "indexed": true,
          "internalType": "address",
          "name": "to",
          "type": "address"
        },
        {
          "indexed": true,
          "internalType": "uint256",
          "name": "tokenId",
          "type": "uint256"
        }
      ],
      "name": "Transfer",
      "type": "event"
    },
    {
      "anonymous": false,
      "inputs": [
        {
          "indexed": false,
          "internalType": "uint256",
          "name": "tokenId",
          "type": "uint256"
        },
        {
          "indexed": false,
          "internalType": "string",
          "name": "newName",
          "type": "string"
        },
        {
          "indexed": false,
          "internalType": "uint256",
          "name": "newPrice",
          "type": "uint256"
        },
        {
          "indexed": false,
          "internalType": "string",
          "name": "newDescription",
          "type": "string"
        },
        {
          "indexed": false,
          "internalType": "string",
          "name": "newImg",
          "type": "string"
        },
        {
          "indexed": false,
          "internalType": "string",
          "name": "metadataTokenUri",
          "type": "string"
        }
      ],
      "name": "metadataUpdated",
      "type": "event"
    },
    {
      "anonymous": false,
      "inputs": [
        {
          "indexed": false,
          "internalType": "address",
          "name": "addOfSender",
          "type": "address"
        },
        {
          "indexed": false,
          "internalType": "uint256",
          "name": "id",
          "type": "uint256"
        },
        {
          "indexed": false,
          "internalType": "string",
          "name": "name",
          "type": "string"
        },
        {
          "indexed": false,
          "internalType": "uint256",
          "name": "price",
          "type": "uint256"
        },
        {
          "indexed": false,
          "internalType": "string",
          "name": "description",
          "type": "string"
        },
        {
          "indexed": false,
          "internalType": "string",
          "name": "tokenUri",
          "type": "string"
        },
        {
          "indexed": false,
          "internalType": "string",
          "name": "metadataTokenUri",
          "type": "string"
        }
      ],
      "name": "mintevent",
      "type": "event"
    },
    {
      "inputs": [
        {
          "internalType": "uint256",
          "name": "",
          "type": "uint256"
        }
      ],
      "name": "DetailsOfTokenID",
      "outputs": [
        {
          "internalType": "string",
          "name": "name",
          "type": "string"
        },
        {
          "internalType": "uint256",
          "name": "price",
          "type": "uint256"
        },
        {
          "internalType": "string",
          "name": "desc",
          "type": "string"
        },
        {
          "internalType": "string",
          "name": "tokenUri",
          "type": "string"
        },
        {
          "internalType": "string",
          "name": "metadataTokenUri",
          "type": "string"
        }
      ],
      "stateMutability": "view",
      "type": "function",
      "constant": true
    },
    {
      "inputs": [
        {
          "internalType": "address",
          "name": "to",
          "type": "address"
        },
        {
          "internalType": "uint256",
          "name": "tokenId",
          "type": "uint256"
        }
      ],
      "name": "approve",
      "outputs": [],
      "stateMutability": "nonpayable",
      "type": "function"
    },
    {
      "inputs": [
        {
          "internalType": "address",
          "name": "owner",
          "type": "address"
        }
      ],
      "name": "balanceOf",
      "outputs": [
        {
          "internalType": "uint256",
          "name": "",
          "type": "uint256"
        }
      ],
      "stateMutability": "view",
      "type": "function",
      "constant": true
    },
    {
      "inputs": [],
      "name": "baseTokenURI",
      "outputs": [
        {
          "internalType": "string",
          "name": "",
          "type": "string"
        }
      ],
      "stateMutability": "view",
      "type": "function",
      "constant": true
    },
    {
      "inputs": [
        {
          "internalType": "uint256",
          "name": "tokenId",
          "type": "uint256"
        }
      ],
      "name": "getApproved",
      "outputs": [
        {
          "internalType": "address",
          "name": "",
          "type": "address"
        }
      ],
      "stateMutability": "view",
      "type": "function",
      "constant": true
    },
    {
      "inputs": [
        {
          "internalType": "address",
          "name": "owner",
          "type": "address"
        },
        {
          "internalType": "address",
          "name": "operator",
          "type": "address"
        }
      ],
      "name": "isApprovedForAll",
      "outputs": [
        {
          "internalType": "bool",
          "name": "",
          "type": "bool"
        }
      ],
      "stateMutability": "view",
      "type": "function",
      "constant": true
    },
    {
      "inputs": [],
      "name": "name",
      "outputs": [
        {
          "internalType": "string",
          "name": "",
          "type": "string"
        }
      ],
      "stateMutability": "view",
      "type": "function",
      "constant": true
    },
    {
      "inputs": [],
      "name": "owner",
      "outputs": [
        {
          "internalType": "address",
          "name": "",
          "type": "address"
        }
      ],
      "stateMutability": "view",
      "type": "function",
      "constant": true
    },
    {
      "inputs": [
        {
          "internalType": "uint256",
          "name": "tokenId",
          "type": "uint256"
        }
      ],
      "name": "ownerOf",
      "outputs": [
        {
          "internalType": "address",
          "name": "",
          "type": "address"
        }
      ],
      "stateMutability": "view",
      "type": "function",
      "constant": true
    },
    {
      "inputs": [],
      "name": "renounceOwnership",
      "outputs": [],
      "stateMutability": "nonpayable",
      "type": "function"
    },
    {
      "inputs": [
        {
          "internalType": "address",
          "name": "from",
          "type": "address"
        },
        {
          "internalType": "address",
          "name": "to",
          "type": "address"
        },
        {
          "internalType": "uint256",
          "name": "tokenId",
          "type": "uint256"
        }
      ],
      "name": "safeTransferFrom",
      "outputs": [],
      "stateMutability": "nonpayable",
      "type": "function"
    },
    {
      "inputs": [
        {
          "internalType": "address",
          "name": "from",
          "type": "address"
        },
        {
          "internalType": "address",
          "name": "to",
          "type": "address"
        },
        {
          "internalType": "uint256",
          "name": "tokenId",
          "type": "uint256"
        },
        {
          "internalType": "bytes",
          "name": "data",
          "type": "bytes"
        }
      ],
      "name": "safeTransferFrom",
      "outputs": [],
      "stateMutability": "nonpayable",
      "type": "function"
    },
    {
      "inputs": [
        {
          "internalType": "address",
          "name": "operator",
          "type": "address"
        },
        {
          "internalType": "bool",
          "name": "approved",
          "type": "bool"
        }
      ],
      "name": "setApprovalForAll",
      "outputs": [],
      "stateMutability": "nonpayable",
      "type": "function"
    },
    {
      "inputs": [],
      "name": "symbol",
      "outputs": [
        {
          "internalType": "string",
          "name": "",
          "type": "string"
        }
      ],
      "stateMutability": "view",
      "type": "function",
      "constant": true
    },
    {
      "inputs": [
        {
          "internalType": "uint256",
          "name": "index",
          "type": "uint256"
        }
      ],
      "name": "tokenByIndex",
      "outputs": [
        {
          "internalType": "uint256",
          "name": "",
          "type": "uint256"
        }
      ],
      "stateMutability": "view",
      "type": "function",
      "constant": true
    },
    {
      "inputs": [
        {
          "internalType": "address",
          "name": "owner",
          "type": "address"
        },
        {
          "internalType": "uint256",
          "name": "index",
          "type": "uint256"
        }
      ],
      "name": "tokenOfOwnerByIndex",
      "outputs": [
        {
          "internalType": "uint256",
          "name": "",
          "type": "uint256"
        }
      ],
      "stateMutability": "view",
      "type": "function",
      "constant": true
    },
    {
      "inputs": [],
      "name": "totalSupply",
      "outputs": [
        {
          "internalType": "uint256",
          "name": "",
          "type": "uint256"
        }
      ],
      "stateMutability": "view",
      "type": "function",
      "constant": true
    },
    {
      "inputs": [
        {
          "internalType": "address",
          "name": "from",
          "type": "address"
        },
        {
          "internalType": "address",
          "name": "to",
          "type": "address"
        },
        {
          "internalType": "uint256",
          "name": "tokenId",
          "type": "uint256"
        }
      ],
      "name": "transferFrom",
      "outputs": [],
      "stateMutability": "nonpayable",
      "type": "function"
    },
    {
      "inputs": [
        {
          "internalType": "address",
          "name": "newOwner",
          "type": "address"
        }
      ],
      "name": "transferOwnership",
      "outputs": [],
      "stateMutability": "nonpayable",
      "type": "function"
    },
    {
      "inputs": [
        {
          "internalType": "bytes4",
          "name": "interfaceId",
          "type": "bytes4"
        }
      ],
      "name": "supportsInterface",
      "outputs": [
        {
          "internalType": "bool",
          "name": "",
          "type": "bool"
        }
      ],
      "stateMutability": "view",
      "type": "function",
      "constant": true
    },
    {
      "inputs": [
        {
          "internalType": "uint256",
          "name": "tokenId",
          "type": "uint256"
        }
      ],
      "name": "tokenURI",
      "outputs": [
        {
          "internalType": "string",
          "name": "",
          "type": "string"
        }
      ],
      "stateMutability": "view",
      "type": "function",
      "constant": true
    },
    {
      "inputs": [
        {
          "internalType": "address",
          "name": "recipient",
          "type": "address"
        },
        {
          "internalType": "string",
          "name": "_name",
          "type": "string"
        },
        {
          "internalType": "uint256",
          "name": "_price",
          "type": "uint256"
        },
        {
          "internalType": "string",
          "name": "_description",
          "type": "string"
        },
        {
          "internalType": "string",
          "name": "_tokenUri",
          "type": "string"
        },
        {
          "internalType": "string",
          "name": "_metadataTokenUri",
          "type": "string"
        }
      ],
      "name": "mintTo",
      "outputs": [
        {
          "internalType": "uint256",
          "name": "",
          "type": "uint256"
        }
      ],
      "stateMutability": "nonpayable",
      "type": "function"
    },
    {
      "inputs": [
        {
          "internalType": "uint256",
          "name": "_id",
          "type": "uint256"
        }
      ],
      "name": "getData",
      "outputs": [
        {
          "components": [
            {
              "internalType": "string",
              "name": "name",
              "type": "string"
            },
            {
              "internalType": "uint256",
              "name": "price",
              "type": "uint256"
            },
            {
              "internalType": "string",
              "name": "desc",
              "type": "string"
            },
            {
              "internalType": "string",
              "name": "tokenUri",
              "type": "string"
            },
            {
              "internalType": "string",
              "name": "metadataTokenUri",
              "type": "string"
            }
          ],
          "internalType": "struct NFT.Details",
          "name": "",
          "type": "tuple"
        }
      ],
      "stateMutability": "view",
      "type": "function",
      "constant": true
    },
    {
      "inputs": [],
      "name": "getOwnerAddress",
      "outputs": [
        {
          "internalType": "address",
          "name": "",
          "type": "address"
        }
      ],
      "stateMutability": "view",
      "type": "function",
      "constant": true
    },
    {
      "inputs": [
        {
          "internalType": "uint256",
          "name": "_tokenId",
          "type": "uint256"
        },
        {
          "internalType": "string",
          "name": "_name",
          "type": "string"
        },
        {
          "internalType": "uint256",
          "name": "_price",
          "type": "uint256"
        },
        {
          "internalType": "string",
          "name": "_description",
          "type": "string"
        },
        {
          "internalType": "string",
          "name": "_tokenUri",
          "type": "string"
        },
        {
          "internalType": "string",
          "name": "_metadataTokenUri",
          "type": "string"
        }
      ],
      "name": "Update",
      "outputs": [
        {
          "internalType": "string",
          "name": "",
          "type": "string"
        }
      ],
      "stateMutability": "nonpayable",
      "type": "function"
    }
  ],
  "bytecode": "0x60806040523480156200001157600080fd5b506040518060400160405280600b81526020017f4e46545475746f7269616c0000000000000000000000000000000000000000008152506040518060400160405280600381526020017f4e4654000000000000000000000000000000000000000000000000000000000081525081600090816200008f919062000412565b508060019081620000a1919062000412565b505050620000c4620000b8620000ca60201b60201c565b620000d260201b60201c565b620004f9565b600033905090565b6000600a60009054906101000a900473ffffffffffffffffffffffffffffffffffffffff16905081600a60006101000a81548173ffffffffffffffffffffffffffffffffffffffff021916908373ffffffffffffffffffffffffffffffffffffffff1602179055508173ffffffffffffffffffffffffffffffffffffffff168173ffffffffffffffffffffffffffffffffffffffff167f8be0079c531659141344cd1fd0a4f28419497f9722a3daafe3b4186f6b6457e060405160405180910390a35050565b600081519050919050565b7f4e487b7100000000000000000000000000000000000000000000000000000000600052604160045260246000fd5b7f4e487b7100000000000000000000000000000000000000000000000000000000600052602260045260246000fd5b600060028204905060018216806200021a57607f821691505b60208210810362000230576200022f620001d2565b5b50919050565b60008190508160005260206000209050919050565b60006020601f8301049050919050565b600082821b905092915050565b6000600883026200029a7fffffffffffffffffffffffffffffffffffffffffffffffffffffffffffffffff826200025b565b620002a686836200025b565b95508019841693508086168417925050509392505050565b6000819050919050565b6000819050919050565b6000620002f3620002ed620002e784620002be565b620002c8565b620002be565b9050919050565b6000819050919050565b6200030f83620002d2565b620003276200031e82620002fa565b84845462000268565b825550505050565b600090565b6200033e6200032f565b6200034b81848462000304565b505050565b5b8181101562000373576200036760008262000334565b60018101905062000351565b5050565b601f821115620003c2576200038c8162000236565b62000397846200024b565b81016020851015620003a7578190505b620003bf620003b6856200024b565b83018262000350565b50505b505050565b600082821c905092915050565b6000620003e760001984600802620003c7565b1980831691505092915050565b6000620004028383620003d4565b9150826002028217905092915050565b6200041d8262000198565b67ffffffffffffffff811115620004395762000438620001a3565b5b62000445825462000201565b6200045282828562000377565b600060209050601f8311600181146200048a576000841562000475578287015190505b620004818582620003f4565b865550620004f1565b601f1984166200049a8662000236565b60005b82811015620004c4578489015182556001820191506020850194506020810190506200049d565b86831015620004e45784890151620004e0601f891682620003d4565b8355505b6001600288020188555050505b505050505050565b61467580620005096000396000f3fe608060405234801561001057600080fd5b50600436106101725760003560e01c80634f6ccce7116100de578063a22cb46511610097578063d547cfb711610071578063d547cfb714610487578063e985e9c5146104a5578063edfd4995146104d5578063f2fde38b1461050557610172565b8063a22cb4651461041f578063b88d4fde1461043b578063c87b56dd1461045757610172565b80634f6ccce7146103495780636352211e1461037957806370a08231146103a9578063715018a6146103d95780638da5cb5b146103e357806395d89b411461040157610172565b80630c4f65bd116101305780630c4f65bd1461027557806318160ddd1461029357806323b872dd146102b15780632f745c59146102cd5780633d26d091146102fd57806342842e0e1461032d57610172565b8062481c92146101775780630178fe3f146101ab57806301ffc9a7146101db57806306fdde031461020b578063081812fc14610229578063095ea7b314610259575b600080fd5b610191600480360381019061018c9190612cda565b610521565b6040516101a2959493929190612da6565b60405180910390f35b6101c560048036038101906101c09190612cda565b610777565b6040516101d29190612ef9565b60405180910390f35b6101f560048036038101906101f09190612f73565b6109f6565b6040516102029190612fbb565b60405180910390f35b610213610a08565b6040516102209190612fd6565b60405180910390f35b610243600480360381019061023e9190612cda565b610a9a565b6040516102509190613039565b60405180910390f35b610273600480360381019061026e9190613080565b610ae0565b005b61027d610bf7565b60405161028a9190613039565b60405180910390f35b61029b610c06565b6040516102a891906130c0565b60405180910390f35b6102cb60048036038101906102c691906130db565b610c13565b005b6102e760048036038101906102e29190613080565b610c73565b6040516102f491906130c0565b60405180910390f35b61031760048036038101906103129190613263565b610d18565b60405161032491906130c0565b60405180910390f35b610347600480360381019061034291906130db565b610eb3565b005b610363600480360381019061035e9190612cda565b610ed3565b60405161037091906130c0565b60405180910390f35b610393600480360381019061038e9190612cda565b610f44565b6040516103a09190613039565b60405180910390f35b6103c360048036038101906103be9190613360565b610fca565b6040516103d091906130c0565b60405180910390f35b6103e1611081565b005b6103eb611095565b6040516103f89190613039565b60405180910390f35b6104096110bf565b6040516104169190612fd6565b60405180910390f35b610439600480360381019061043491906133b9565b611151565b005b6104556004803603810190610450919061349a565b611167565b005b610471600480360381019061046c9190612cda565b6111c9565b60405161047e9190612fd6565b60405180910390f35b61048f6111db565b60405161049c9190612fd6565b60405180910390f35b6104bf60048036038101906104ba919061351d565b611269565b6040516104cc9190612fbb565b60405180910390f35b6104ef60048036038101906104ea919061355d565b6112fd565b6040516104fc9190612fd6565b60405180910390f35b61051f600480360381019061051a9190613360565b611457565b005b600e60205280600052604060002060009150905080600001805461054490613689565b80601f016020809104026020016040519081016040528092919081815260200182805461057090613689565b80156105bd5780601f10610592576101008083540402835291602001916105bd565b820191906000526020600020905b8154815290600101906020018083116105a057829003601f168201915b5050505050908060010154908060020180546105d890613689565b80601f016020809104026020016040519081016040528092919081815260200182805461060490613689565b80156106515780601f1061062657610100808354040283529160200191610651565b820191906000526020600020905b81548152906001019060200180831161063457829003601f168201915b50505050509080600301805461066690613689565b80601f016020809104026020016040519081016040528092919081815260200182805461069290613689565b80156106df5780601f106106b4576101008083540402835291602001916106df565b820191906000526020600020905b8154815290600101906020018083116106c257829003601f168201915b5050505050908060040180546106f490613689565b80601f016020809104026020016040519081016040528092919081815260200182805461072090613689565b801561076d5780601f106107425761010080835404028352916020019161076d565b820191906000526020600020905b81548152906001019060200180831161075057829003601f168201915b5050505050905085565b61077f612c61565b600e60008381526020019081526020016000206040518060a00160405290816000820180546107ad90613689565b80601f01602080910402602001604051908101604052809291908181526020018280546107d990613689565b80156108265780601f106107fb57610100808354040283529160200191610826565b820191906000526020600020905b81548152906001019060200180831161080957829003601f168201915b505050505081526020016001820154815260200160028201805461084990613689565b80601f016020809104026020016040519081016040528092919081815260200182805461087590613689565b80156108c25780601f10610897576101008083540402835291602001916108c2565b820191906000526020600020905b8154815290600101906020018083116108a557829003601f168201915b505050505081526020016003820180546108db90613689565b80601f016020809104026020016040519081016040528092919081815260200182805461090790613689565b80156109545780601f1061092957610100808354040283529160200191610954565b820191906000526020600020905b81548152906001019060200180831161093757829003601f168201915b5050505050815260200160048201805461096d90613689565b80601f016020809104026020016040519081016040528092919081815260200182805461099990613689565b80156109e65780601f106109bb576101008083540402835291602001916109e6565b820191906000526020600020905b8154815290600101906020018083116109c957829003601f168201915b5050505050815250509050919050565b6000610a01826114da565b9050919050565b606060008054610a1790613689565b80601f0160208091040260200160405190810160405280929190818152602001828054610a4390613689565b8015610a905780601f10610a6557610100808354040283529160200191610a90565b820191906000526020600020905b815481529060010190602001808311610a7357829003601f168201915b5050505050905090565b6000610aa58261153b565b6004600083815260200190815260200160002060009054906101000a900473ffffffffffffffffffffffffffffffffffffffff169050919050565b6000610aeb82610f44565b90508073ffffffffffffffffffffffffffffffffffffffff168373ffffffffffffffffffffffffffffffffffffffff1603610b5b576040517f08c379a0000000000000000000000000000000000000000000000000000000008152600401610b529061372c565b60405180910390fd5b8073ffffffffffffffffffffffffffffffffffffffff16610b7a611586565b73ffffffffffffffffffffffffffffffffffffffff161480610ba95750610ba881610ba3611586565b611269565b5b610be8576040517f08c379a0000000000000000000000000000000000000000000000000000000008152600401610bdf906137be565b60405180910390fd5b610bf2838361158e565b505050565b6000610c01611095565b905090565b6000600880549050905090565b610c24610c1e611586565b82611647565b610c63576040517f08c379a0000000000000000000000000000000000000000000000000000000008152600401610c5a90613850565b60405180910390fd5b610c6e8383836116dc565b505050565b6000610c7e83610fca565b8210610cbf576040517f08c379a0000000000000000000000000000000000000000000000000000000008152600401610cb6906138e2565b60405180910390fd5b600660008473ffffffffffffffffffffffffffffffffffffffff1673ffffffffffffffffffffffffffffffffffffffff168152602001908152602001600020600083815260200190815260200160002054905092915050565b6000610d226119d5565b610d2a610bf7565b73ffffffffffffffffffffffffffffffffffffffff168773ffffffffffffffffffffffffffffffffffffffff1614610d97576040517f08c379a0000000000000000000000000000000000000000000000000000000008152600401610d8e9061394e565b60405180910390fd5b610da1600c611a53565b6000610dad600c611a69565b90506040518060a0016040528088815260200187815260200186815260200185815260200184815250600e60008381526020019081526020016000206000820151816000019081610dfe9190613b1a565b50602082015181600101556040820151816002019081610e1e9190613b1a565b506060820151816003019081610e349190613b1a565b506080820151816004019081610e4a9190613b1a565b50905050610e588882611a77565b610e628184611a95565b7fa0da3e3615c35bffbb519c663753674cecf497b08a0042c2c6b5a6b435529f4633828989898989604051610e9d9796959493929190613bec565b60405180910390a1809150509695505050505050565b610ece83838360405180602001604052806000815250611167565b505050565b6000610edd610c06565b8210610f1e576040517f08c379a0000000000000000000000000000000000000000000000000000000008152600401610f1590613ce9565b60405180910390fd5b60088281548110610f3257610f31613d09565b5b90600052602060002001549050919050565b600080610f5083611b39565b9050600073ffffffffffffffffffffffffffffffffffffffff168173ffffffffffffffffffffffffffffffffffffffff1603610fc1576040517f08c379a0000000000000000000000000000000000000000000000000000000008152600401610fb890613d84565b60405180910390fd5b80915050919050565b60008073ffffffffffffffffffffffffffffffffffffffff168273ffffffffffffffffffffffffffffffffffffffff160361103a576040517f08c379a000000000000000000000000000000000000000000000000000000000815260040161103190613e16565b60405180910390fd5b600360008373ffffffffffffffffffffffffffffffffffffffff1673ffffffffffffffffffffffffffffffffffffffff168152602001908152602001600020549050919050565b6110896119d5565b6110936000611b76565b565b6000600a60009054906101000a900473ffffffffffffffffffffffffffffffffffffffff16905090565b6060600180546110ce90613689565b80601f01602080910402602001604051908101604052809291908181526020018280546110fa90613689565b80156111475780601f1061111c57610100808354040283529160200191611147565b820191906000526020600020905b81548152906001019060200180831161112a57829003601f168201915b5050505050905090565b61116361115c611586565b8383611c3c565b5050565b611178611172611586565b83611647565b6111b7576040517f08c379a00000000000000000000000000000000000000000000000000000000081526004016111ae90613850565b60405180910390fd5b6111c384848484611da8565b50505050565b60606111d482611e04565b9050919050565b600d80546111e890613689565b80601f016020809104026020016040519081016040528092919081815260200182805461121490613689565b80156112615780601f1061123657610100808354040283529160200191611261565b820191906000526020600020905b81548152906001019060200180831161124457829003601f168201915b505050505081565b6000600560008473ffffffffffffffffffffffffffffffffffffffff1673ffffffffffffffffffffffffffffffffffffffff16815260200190815260200160002060008373ffffffffffffffffffffffffffffffffffffffff1673ffffffffffffffffffffffffffffffffffffffff16815260200190815260200160002060009054906101000a900460ff16905092915050565b60606113076119d5565b6000600e60008981526020019081526020016000206001015411611360576040517f08c379a000000000000000000000000000000000000000000000000000000000815260040161135790613e82565b60405180910390fd5b6040518060a0016040528087815260200186815260200185815260200184815260200183815250600e600089815260200190815260200160002060008201518160000190816113af9190613b1a565b506020820151816001015560408201518160020190816113cf9190613b1a565b5060608201518160030190816113e59190613b1a565b5060808201518160040190816113fb9190613b1a565b509050506114098783611a95565b7fbabf078520c4623b6442838ad2f6a188bae6e6e3909a976e1894fca920c7034287878787878760405161144296959493929190613ea2565b60405180910390a18190509695505050505050565b61145f6119d5565b600073ffffffffffffffffffffffffffffffffffffffff168173ffffffffffffffffffffffffffffffffffffffff16036114ce576040517f08c379a00000000000000000000000000000000000000000000000000000000081526004016114c590613f91565b60405180910390fd5b6114d781611b76565b50565b6000634906490660e01b7bffffffffffffffffffffffffffffffffffffffffffffffffffffffff1916827bffffffffffffffffffffffffffffffffffffffffffffffffffffffff19161480611534575061153382611f16565b5b9050919050565b61154481611f90565b611583576040517f08c379a000000000000000000000000000000000000000000000000000000000815260040161157a90613d84565b60405180910390fd5b50565b600033905090565b816004600083815260200190815260200160002060006101000a81548173ffffffffffffffffffffffffffffffffffffffff021916908373ffffffffffffffffffffffffffffffffffffffff160217905550808273ffffffffffffffffffffffffffffffffffffffff1661160183610f44565b73ffffffffffffffffffffffffffffffffffffffff167f8c5be1e5ebec7d5bd14f71427d1e84f3dd0314c0f7b2291e5b200ac8c7c3b92560405160405180910390a45050565b60008061165383610f44565b90508073ffffffffffffffffffffffffffffffffffffffff168473ffffffffffffffffffffffffffffffffffffffff16148061169557506116948185611269565b5b806116d357508373ffffffffffffffffffffffffffffffffffffffff166116bb84610a9a565b73ffffffffffffffffffffffffffffffffffffffff16145b91505092915050565b8273ffffffffffffffffffffffffffffffffffffffff166116fc82610f44565b73ffffffffffffffffffffffffffffffffffffffff1614611752576040517f08c379a000000000000000000000000000000000000000000000000000000000815260040161174990614023565b60405180910390fd5b600073ffffffffffffffffffffffffffffffffffffffff168273ffffffffffffffffffffffffffffffffffffffff16036117c1576040517f08c379a00000000000000000000000000000000000000000000000000000000081526004016117b8906140b5565b60405180910390fd5b6117ce8383836001611fd1565b8273ffffffffffffffffffffffffffffffffffffffff166117ee82610f44565b73ffffffffffffffffffffffffffffffffffffffff1614611844576040517f08c379a000000000000000000000000000000000000000000000000000000000815260040161183b90614023565b60405180910390fd5b6004600082815260200190815260200160002060006101000a81549073ffffffffffffffffffffffffffffffffffffffff02191690556001600360008573ffffffffffffffffffffffffffffffffffffffff1673ffffffffffffffffffffffffffffffffffffffff168152602001908152602001600020600082825403925050819055506001600360008473ffffffffffffffffffffffffffffffffffffffff1673ffffffffffffffffffffffffffffffffffffffff16815260200190815260200160002060008282540192505081905550816002600083815260200190815260200160002060006101000a81548173ffffffffffffffffffffffffffffffffffffffff021916908373ffffffffffffffffffffffffffffffffffffffff160217905550808273ffffffffffffffffffffffffffffffffffffffff168473ffffffffffffffffffffffffffffffffffffffff167fddf252ad1be2c89b69c2b068fc378daa952ba7f163c4a11628f55a4df523b3ef60405160405180910390a46119d08383836001611fe3565b505050565b6119dd611586565b73ffffffffffffffffffffffffffffffffffffffff166119fb611095565b73ffffffffffffffffffffffffffffffffffffffff1614611a51576040517f08c379a0000000000000000000000000000000000000000000000000000000008152600401611a4890614121565b60405180910390fd5b565b6001816000016000828254019250508190555050565b600081600001549050919050565b611a91828260405180602001604052806000815250611fe9565b5050565b611a9e82611f90565b611add576040517f08c379a0000000000000000000000000000000000000000000000000000000008152600401611ad4906141b3565b60405180910390fd5b80600b60008481526020019081526020016000209081611afd9190613b1a565b507ff8e1a15aba9398e019f0b49df1a4fde98ee17ae345cb5f6b5e2c27f5033e8ce782604051611b2d91906130c0565b60405180910390a15050565b60006002600083815260200190815260200160002060009054906101000a900473ffffffffffffffffffffffffffffffffffffffff169050919050565b6000600a60009054906101000a900473ffffffffffffffffffffffffffffffffffffffff16905081600a60006101000a81548173ffffffffffffffffffffffffffffffffffffffff021916908373ffffffffffffffffffffffffffffffffffffffff1602179055508173ffffffffffffffffffffffffffffffffffffffff168173ffffffffffffffffffffffffffffffffffffffff167f8be0079c531659141344cd1fd0a4f28419497f9722a3daafe3b4186f6b6457e060405160405180910390a35050565b8173ffffffffffffffffffffffffffffffffffffffff168373ffffffffffffffffffffffffffffffffffffffff1603611caa576040517f08c379a0000000000000000000000000000000000000000000000000000000008152600401611ca19061421f565b60405180910390fd5b80600560008573ffffffffffffffffffffffffffffffffffffffff1673ffffffffffffffffffffffffffffffffffffffff16815260200190815260200160002060008473ffffffffffffffffffffffffffffffffffffffff1673ffffffffffffffffffffffffffffffffffffffff16815260200190815260200160002060006101000a81548160ff0219169083151502179055508173ffffffffffffffffffffffffffffffffffffffff168373ffffffffffffffffffffffffffffffffffffffff167f17307eab39ab6107e8899845ad3d59bd9653f200f220920489ca2b5937696c3183604051611d9b9190612fbb565b60405180910390a3505050565b611db38484846116dc565b611dbf84848484612044565b611dfe576040517f08c379a0000000000000000000000000000000000000000000000000000000008152600401611df5906142b1565b60405180910390fd5b50505050565b6060611e0f8261153b565b6000600b60008481526020019081526020016000208054611e2f90613689565b80601f0160208091040260200160405190810160405280929190818152602001828054611e5b90613689565b8015611ea85780601f10611e7d57610100808354040283529160200191611ea8565b820191906000526020600020905b815481529060010190602001808311611e8b57829003601f168201915b505050505090506000611eb96121cb565b90506000815103611ece578192505050611f11565b600082511115611f03578082604051602001611eeb92919061430d565b60405160208183030381529060405292505050611f11565b611f0c846121e2565b925050505b919050565b60007f780e9d63000000000000000000000000000000000000000000000000000000007bffffffffffffffffffffffffffffffffffffffffffffffffffffffff1916827bffffffffffffffffffffffffffffffffffffffffffffffffffffffff19161480611f895750611f888261224a565b5b9050919050565b60008073ffffffffffffffffffffffffffffffffffffffff16611fb283611b39565b73ffffffffffffffffffffffffffffffffffffffff1614159050919050565b611fdd8484848461232c565b50505050565b50505050565b611ff3838361248a565b6120006000848484612044565b61203f576040517f08c379a0000000000000000000000000000000000000000000000000000000008152600401612036906142b1565b60405180910390fd5b505050565b60006120658473ffffffffffffffffffffffffffffffffffffffff166126a7565b156121be578373ffffffffffffffffffffffffffffffffffffffff1663150b7a0261208e611586565b8786866040518563ffffffff1660e01b81526004016120b09493929190614386565b6020604051808303816000875af19250505080156120ec57506040513d601f19601f820116820180604052508101906120e991906143e7565b60015b61216e573d806000811461211c576040519150601f19603f3d011682016040523d82523d6000602084013e612121565b606091505b506000815103612166576040517f08c379a000000000000000000000000000000000000000000000000000000000815260040161215d906142b1565b60405180910390fd5b805181602001fd5b63150b7a0260e01b7bffffffffffffffffffffffffffffffffffffffffffffffffffffffff1916817bffffffffffffffffffffffffffffffffffffffffffffffffffffffff1916149150506121c3565b600190505b949350505050565b606060405180602001604052806000815250905090565b60606121ed8261153b565b60006121f76121cb565b905060008151116122175760405180602001604052806000815250612242565b80612221846126ca565b60405160200161223292919061430d565b6040516020818303038152906040525b915050919050565b60007f80ac58cd000000000000000000000000000000000000000000000000000000007bffffffffffffffffffffffffffffffffffffffffffffffffffffffff1916827bffffffffffffffffffffffffffffffffffffffffffffffffffffffff1916148061231557507f5b5e139f000000000000000000000000000000000000000000000000000000007bffffffffffffffffffffffffffffffffffffffffffffffffffffffff1916827bffffffffffffffffffffffffffffffffffffffffffffffffffffffff1916145b80612325575061232482612798565b5b9050919050565b61233884848484612802565b600181111561237c576040517f08c379a000000000000000000000000000000000000000000000000000000000815260040161237390614486565b60405180910390fd5b6000829050600073ffffffffffffffffffffffffffffffffffffffff168573ffffffffffffffffffffffffffffffffffffffff16036123c3576123be81612808565b612402565b8373ffffffffffffffffffffffffffffffffffffffff168573ffffffffffffffffffffffffffffffffffffffff1614612401576124008582612851565b5b5b600073ffffffffffffffffffffffffffffffffffffffff168473ffffffffffffffffffffffffffffffffffffffff16036124445761243f816129be565b612483565b8473ffffffffffffffffffffffffffffffffffffffff168473ffffffffffffffffffffffffffffffffffffffff1614612482576124818482612a8f565b5b5b5050505050565b600073ffffffffffffffffffffffffffffffffffffffff168273ffffffffffffffffffffffffffffffffffffffff16036124f9576040517f08c379a00000000000000000000000000000000000000000000000000000000081526004016124f0906144f2565b60405180910390fd5b61250281611f90565b15612542576040517f08c379a00000000000000000000000000000000000000000000000000000000081526004016125399061455e565b60405180910390fd5b612550600083836001611fd1565b61255981611f90565b15612599576040517f08c379a00000000000000000000000000000000000000000000000000000000081526004016125909061455e565b60405180910390fd5b6001600360008473ffffffffffffffffffffffffffffffffffffffff1673ffffffffffffffffffffffffffffffffffffffff16815260200190815260200160002060008282540192505081905550816002600083815260200190815260200160002060006101000a81548173ffffffffffffffffffffffffffffffffffffffff021916908373ffffffffffffffffffffffffffffffffffffffff160217905550808273ffffffffffffffffffffffffffffffffffffffff16600073ffffffffffffffffffffffffffffffffffffffff167fddf252ad1be2c89b69c2b068fc378daa952ba7f163c4a11628f55a4df523b3ef60405160405180910390a46126a3600083836001611fe3565b5050565b6000808273ffffffffffffffffffffffffffffffffffffffff163b119050919050565b6060600060016126d984612b0e565b01905060008167ffffffffffffffff8111156126f8576126f7613138565b5b6040519080825280601f01601f19166020018201604052801561272a5781602001600182028036833780820191505090505b509050600082602001820190505b60011561278d578080600190039150507f3031323334353637383961626364656600000000000000000000000000000000600a86061a8153600a85816127815761278061457e565b5b04945060008503612738575b819350505050919050565b60007f01ffc9a7000000000000000000000000000000000000000000000000000000007bffffffffffffffffffffffffffffffffffffffffffffffffffffffff1916827bffffffffffffffffffffffffffffffffffffffffffffffffffffffff1916149050919050565b50505050565b6008805490506009600083815260200190815260200160002081905550600881908060018154018082558091505060019003906000526020600020016000909190919091505550565b6000600161285e84610fca565b61286891906145dc565b905060006007600084815260200190815260200160002054905081811461294d576000600660008673ffffffffffffffffffffffffffffffffffffffff1673ffffffffffffffffffffffffffffffffffffffff168152602001908152602001600020600084815260200190815260200160002054905080600660008773ffffffffffffffffffffffffffffffffffffffff1673ffffffffffffffffffffffffffffffffffffffff168152602001908152602001600020600084815260200190815260200160002081905550816007600083815260200190815260200160002081905550505b6007600084815260200190815260200160002060009055600660008573ffffffffffffffffffffffffffffffffffffffff1673ffffffffffffffffffffffffffffffffffffffff16815260200190815260200160002060008381526020019081526020016000206000905550505050565b600060016008805490506129d291906145dc565b9050600060096000848152602001908152602001600020549050600060088381548110612a0257612a01613d09565b5b906000526020600020015490508060088381548110612a2457612a23613d09565b5b906000526020600020018190555081600960008381526020019081526020016000208190555060096000858152602001908152602001600020600090556008805480612a7357612a72614610565b5b6001900381819060005260206000200160009055905550505050565b6000612a9a83610fca565b905081600660008573ffffffffffffffffffffffffffffffffffffffff1673ffffffffffffffffffffffffffffffffffffffff168152602001908152602001600020600083815260200190815260200160002081905550806007600084815260200190815260200160002081905550505050565b600080600090507a184f03e93ff9f4daa797ed6e38ed64bf6a1f0100000000000000008310612b6c577a184f03e93ff9f4daa797ed6e38ed64bf6a1f0100000000000000008381612b6257612b6161457e565b5b0492506040810190505b6d04ee2d6d415b85acef81000000008310612ba9576d04ee2d6d415b85acef81000000008381612b9f57612b9e61457e565b5b0492506020810190505b662386f26fc100008310612bd857662386f26fc100008381612bce57612bcd61457e565b5b0492506010810190505b6305f5e1008310612c01576305f5e1008381612bf757612bf661457e565b5b0492506008810190505b6127108310612c26576127108381612c1c57612c1b61457e565b5b0492506004810190505b60648310612c495760648381612c3f57612c3e61457e565b5b0492506002810190505b600a8310612c58576001810190505b80915050919050565b6040518060a0016040528060608152602001600081526020016060815260200160608152602001606081525090565b6000604051905090565b600080fd5b600080fd5b6000819050919050565b612cb781612ca4565b8114612cc257600080fd5b50565b600081359050612cd481612cae565b92915050565b600060208284031215612cf057612cef612c9a565b5b6000612cfe84828501612cc5565b91505092915050565b600081519050919050565b600082825260208201905092915050565b60005b83811015612d41578082015181840152602081019050612d26565b60008484015250505050565b6000601f19601f8301169050919050565b6000612d6982612d07565b612d738185612d12565b9350612d83818560208601612d23565b612d8c81612d4d565b840191505092915050565b612da081612ca4565b82525050565b600060a0820190508181036000830152612dc08188612d5e565b9050612dcf6020830187612d97565b8181036040830152612de18186612d5e565b90508181036060830152612df58185612d5e565b90508181036080830152612e098184612d5e565b90509695505050505050565b600082825260208201905092915050565b6000612e3182612d07565b612e3b8185612e15565b9350612e4b818560208601612d23565b612e5481612d4d565b840191505092915050565b612e6881612ca4565b82525050565b600060a0830160008301518482036000860152612e8b8282612e26565b9150506020830151612ea06020860182612e5f565b5060408301518482036040860152612eb88282612e26565b91505060608301518482036060860152612ed28282612e26565b91505060808301518482036080860152612eec8282612e26565b9150508091505092915050565b60006020820190508181036000830152612f138184612e6e565b905092915050565b60007fffffffff0000000000000000000000000000000000000000000000000000000082169050919050565b612f5081612f1b565b8114612f5b57600080fd5b50565b600081359050612f6d81612f47565b92915050565b600060208284031215612f8957612f88612c9a565b5b6000612f9784828501612f5e565b91505092915050565b60008115159050919050565b612fb581612fa0565b82525050565b6000602082019050612fd06000830184612fac565b92915050565b60006020820190508181036000830152612ff08184612d5e565b905092915050565b600073ffffffffffffffffffffffffffffffffffffffff82169050919050565b600061302382612ff8565b9050919050565b61303381613018565b82525050565b600060208201905061304e600083018461302a565b92915050565b61305d81613018565b811461306857600080fd5b50565b60008135905061307a81613054565b92915050565b6000806040838503121561309757613096612c9a565b5b60006130a58582860161306b565b92505060206130b685828601612cc5565b9150509250929050565b60006020820190506130d56000830184612d97565b92915050565b6000806000606084860312156130f4576130f3612c9a565b5b60006131028682870161306b565b93505060206131138682870161306b565b925050604061312486828701612cc5565b9150509250925092565b600080fd5b600080fd5b7f4e487b7100000000000000000000000000000000000000000000000000000000600052604160045260246000fd5b61317082612d4d565b810181811067ffffffffffffffff8211171561318f5761318e613138565b5b80604052505050565b60006131a2612c90565b90506131ae8282613167565b919050565b600067ffffffffffffffff8211156131ce576131cd613138565b5b6131d782612d4d565b9050602081019050919050565b82818337600083830152505050565b6000613206613201846131b3565b613198565b90508281526020810184848401111561322257613221613133565b5b61322d8482856131e4565b509392505050565b600082601f83011261324a5761324961312e565b5b813561325a8482602086016131f3565b91505092915050565b60008060008060008060c087890312156132805761327f612c9a565b5b600061328e89828a0161306b565b965050602087013567ffffffffffffffff8111156132af576132ae612c9f565b5b6132bb89828a01613235565b95505060406132cc89828a01612cc5565b945050606087013567ffffffffffffffff8111156132ed576132ec612c9f565b5b6132f989828a01613235565b935050608087013567ffffffffffffffff81111561331a57613319612c9f565b5b61332689828a01613235565b92505060a087013567ffffffffffffffff81111561334757613346612c9f565b5b61335389828a01613235565b9150509295509295509295565b60006020828403121561337657613375612c9a565b5b60006133848482850161306b565b91505092915050565b61339681612fa0565b81146133a157600080fd5b50565b6000813590506133b38161338d565b92915050565b600080604083850312156133d0576133cf612c9a565b5b60006133de8582860161306b565b92505060206133ef858286016133a4565b9150509250929050565b600067ffffffffffffffff82111561341457613413613138565b5b61341d82612d4d565b9050602081019050919050565b600061343d613438846133f9565b613198565b90508281526020810184848401111561345957613458613133565b5b6134648482856131e4565b509392505050565b600082601f8301126134815761348061312e565b5b813561349184826020860161342a565b91505092915050565b600080600080608085870312156134b4576134b3612c9a565b5b60006134c28782880161306b565b94505060206134d38782880161306b565b93505060406134e487828801612cc5565b925050606085013567ffffffffffffffff81111561350557613504612c9f565b5b6135118782880161346c565b91505092959194509250565b6000806040838503121561353457613533612c9a565b5b60006135428582860161306b565b92505060206135538582860161306b565b9150509250929050565b60008060008060008060c0878903121561357a57613579612c9a565b5b600061358889828a01612cc5565b965050602087013567ffffffffffffffff8111156135a9576135a8612c9f565b5b6135b589828a01613235565b95505060406135c689828a01612cc5565b945050606087013567ffffffffffffffff8111156135e7576135e6612c9f565b5b6135f389828a01613235565b935050608087013567ffffffffffffffff81111561361457613613612c9f565b5b61362089828a01613235565b92505060a087013567ffffffffffffffff81111561364157613640612c9f565b5b61364d89828a01613235565b9150509295509295509295565b7f4e487b7100000000000000000000000000000000000000000000000000000000600052602260045260246000fd5b600060028204905060018216806136a157607f821691505b6020821081036136b4576136b361365a565b5b50919050565b7f4552433732313a20617070726f76616c20746f2063757272656e74206f776e6560008201527f7200000000000000000000000000000000000000000000000000000000000000602082015250565b6000613716602183612d12565b9150613721826136ba565b604082019050919050565b6000602082019050818103600083015261374581613709565b9050919050565b7f4552433732313a20617070726f76652063616c6c6572206973206e6f7420746f60008201527f6b656e206f776e6572206f7220617070726f76656420666f7220616c6c000000602082015250565b60006137a8603d83612d12565b91506137b38261374c565b604082019050919050565b600060208201905081810360008301526137d78161379b565b9050919050565b7f4552433732313a2063616c6c6572206973206e6f7420746f6b656e206f776e6560008201527f72206f7220617070726f76656400000000000000000000000000000000000000602082015250565b600061383a602d83612d12565b9150613845826137de565b604082019050919050565b600060208201905081810360008301526138698161382d565b9050919050565b7f455243373231456e756d657261626c653a206f776e657220696e646578206f7560008201527f74206f6620626f756e6473000000000000000000000000000000000000000000602082015250565b60006138cc602b83612d12565b91506138d782613870565b604082019050919050565b600060208201905081810360008301526138fb816138bf565b9050919050565b7f4f6e6c79204f776e65722043616e206d696e7400000000000000000000000000600082015250565b6000613938601383612d12565b915061394382613902565b602082019050919050565b600060208201905081810360008301526139678161392b565b9050919050565b60008190508160005260206000209050919050565b60006020601f8301049050919050565b600082821b905092915050565b6000600883026139d07fffffffffffffffffffffffffffffffffffffffffffffffffffffffffffffffff82613993565b6139da8683613993565b95508019841693508086168417925050509392505050565b6000819050919050565b6000613a17613a12613a0d84612ca4565b6139f2565b612ca4565b9050919050565b6000819050919050565b613a31836139fc565b613a45613a3d82613a1e565b8484546139a0565b825550505050565b600090565b613a5a613a4d565b613a65818484613a28565b505050565b5b81811015613a8957613a7e600082613a52565b600181019050613a6b565b5050565b601f821115613ace57613a9f8161396e565b613aa884613983565b81016020851015613ab7578190505b613acb613ac385613983565b830182613a6a565b50505b505050565b600082821c905092915050565b6000613af160001984600802613ad3565b1980831691505092915050565b6000613b0a8383613ae0565b9150826002028217905092915050565b613b2382612d07565b67ffffffffffffffff811115613b3c57613b3b613138565b5b613b468254613689565b613b51828285613a8d565b600060209050601f831160018114613b845760008415613b72578287015190505b613b7c8582613afe565b865550613be4565b601f198416613b928661396e565b60005b82811015613bba57848901518255600182019150602085019450602081019050613b95565b86831015613bd75784890151613bd3601f891682613ae0565b8355505b6001600288020188555050505b505050505050565b600060e082019050613c01600083018a61302a565b613c0e6020830189612d97565b8181036040830152613c208188612d5e565b9050613c2f6060830187612d97565b8181036080830152613c418186612d5e565b905081810360a0830152613c558185612d5e565b905081810360c0830152613c698184612d5e565b905098975050505050505050565b7f455243373231456e756d657261626c653a20676c6f62616c20696e646578206f60008201527f7574206f6620626f756e64730000000000000000000000000000000000000000602082015250565b6000613cd3602c83612d12565b9150613cde82613c77565b604082019050919050565b60006020820190508181036000830152613d0281613cc6565b9050919050565b7f4e487b7100000000000000000000000000000000000000000000000000000000600052603260045260246000fd5b7f4552433732313a20696e76616c696420746f6b656e2049440000000000000000600082015250565b6000613d6e601883612d12565b9150613d7982613d38565b602082019050919050565b60006020820190508181036000830152613d9d81613d61565b9050919050565b7f4552433732313a2061646472657373207a65726f206973206e6f74206120766160008201527f6c6964206f776e65720000000000000000000000000000000000000000000000602082015250565b6000613e00602983612d12565b9150613e0b82613da4565b604082019050919050565b60006020820190508181036000830152613e2f81613df3565b9050919050565b7f546f6b656e20494420646f6573206e6f74206578697374000000000000000000600082015250565b6000613e6c601783612d12565b9150613e7782613e36565b602082019050919050565b60006020820190508181036000830152613e9b81613e5f565b9050919050565b600060c082019050613eb76000830189612d97565b8181036020830152613ec98188612d5e565b9050613ed86040830187612d97565b8181036060830152613eea8186612d5e565b90508181036080830152613efe8185612d5e565b905081810360a0830152613f128184612d5e565b9050979650505050505050565b7f4f776e61626c653a206e6577206f776e657220697320746865207a65726f206160008201527f6464726573730000000000000000000000000000000000000000000000000000602082015250565b6000613f7b602683612d12565b9150613f8682613f1f565b604082019050919050565b60006020820190508181036000830152613faa81613f6e565b9050919050565b7f4552433732313a207472616e736665722066726f6d20696e636f72726563742060008201527f6f776e6572000000000000000000000000000000000000000000000000000000602082015250565b600061400d602583612d12565b915061401882613fb1565b604082019050919050565b6000602082019050818103600083015261403c81614000565b9050919050565b7f4552433732313a207472616e7366657220746f20746865207a65726f2061646460008201527f7265737300000000000000000000000000000000000000000000000000000000602082015250565b600061409f602483612d12565b91506140aa82614043565b604082019050919050565b600060208201905081810360008301526140ce81614092565b9050919050565b7f4f776e61626c653a2063616c6c6572206973206e6f7420746865206f776e6572600082015250565b600061410b602083612d12565b9150614116826140d5565b602082019050919050565b6000602082019050818103600083015261413a816140fe565b9050919050565b7f45524337323155524953746f726167653a2055524920736574206f66206e6f6e60008201527f6578697374656e7420746f6b656e000000000000000000000000000000000000602082015250565b600061419d602e83612d12565b91506141a882614141565b604082019050919050565b600060208201905081810360008301526141cc81614190565b9050919050565b7f4552433732313a20617070726f766520746f2063616c6c657200000000000000600082015250565b6000614209601983612d12565b9150614214826141d3565b602082019050919050565b60006020820190508181036000830152614238816141fc565b9050919050565b7f4552433732313a207472616e7366657220746f206e6f6e20455243373231526560008201527f63656976657220696d706c656d656e7465720000000000000000000000000000602082015250565b600061429b603283612d12565b91506142a68261423f565b604082019050919050565b600060208201905081810360008301526142ca8161428e565b9050919050565b600081905092915050565b60006142e782612d07565b6142f181856142d1565b9350614301818560208601612d23565b80840191505092915050565b600061431982856142dc565b915061432582846142dc565b91508190509392505050565b600081519050919050565b600082825260208201905092915050565b600061435882614331565b614362818561433c565b9350614372818560208601612d23565b61437b81612d4d565b840191505092915050565b600060808201905061439b600083018761302a565b6143a8602083018661302a565b6143b56040830185612d97565b81810360608301526143c7818461434d565b905095945050505050565b6000815190506143e181612f47565b92915050565b6000602082840312156143fd576143fc612c9a565b5b600061440b848285016143d2565b91505092915050565b7f455243373231456e756d657261626c653a20636f6e736563757469766520747260008201527f616e7366657273206e6f7420737570706f727465640000000000000000000000602082015250565b6000614470603583612d12565b915061447b82614414565b604082019050919050565b6000602082019050818103600083015261449f81614463565b9050919050565b7f4552433732313a206d696e7420746f20746865207a65726f2061646472657373600082015250565b60006144dc602083612d12565b91506144e7826144a6565b602082019050919050565b6000602082019050818103600083015261450b816144cf565b9050919050565b7f4552433732313a20746f6b656e20616c7265616479206d696e74656400000000600082015250565b6000614548601c83612d12565b915061455382614512565b602082019050919050565b600060208201905081810360008301526145778161453b565b9050919050565b7f4e487b7100000000000000000000000000000000000000000000000000000000600052601260045260246000fd5b7f4e487b7100000000000000000000000000000000000000000000000000000000600052601160045260246000fd5b60006145e782612ca4565b91506145f283612ca4565b925082820390508181111561460a576146096145ad565b5b92915050565b7f4e487b7100000000000000000000000000000000000000000000000000000000600052603160045260246000fdfea26469706673582212202861d808c173dea113fda17c7b41f3a8bc2373872b51ff54b899b834b0f84c9b64736f6c63430008120033",
  "immutableReferences": {},
  "source": "// SPDX-License-Identifier: MIT\npragma solidity ^0.8.0;\n\nimport \"@openzeppelin/contracts/token/ERC721/ERC721.sol\";\nimport \"@openzeppelin/contracts/utils/Counters.sol\";\nimport \"@openzeppelin/contracts/token/ERC721/extensions/ERC721URIStorage.sol\";\nimport \"@openzeppelin/contracts/token/ERC721/extensions/ERC721Enumerable.sol\";\nimport \"@openzeppelin/contracts/access/Ownable.sol\";\n\n\n\ncontract NFT is ERC721 ,ERC721Enumerable,Ownable ,ERC721URIStorage{\n    using Counters for Counters.Counter;\n    Counters.Counter private currentTokenId;\n    string public baseTokenURI;\n  \n\n    struct Details{\n        string name;\n        uint price;\n        string desc;\n        string tokenUri;\n        string metadataTokenUri;\n    } \n    mapping(uint => Details) public DetailsOfTokenID;\n\n    \n    event mintevent(address addOfSender, uint256 id , string name , uint price,string description,string tokenUri ,string metadataTokenUri);\n    event metadataUpdated(uint tokenId, string newName,uint256 newPrice,string newDescription,string newImg,string metadataTokenUri);\n\n    constructor() ERC721(\"NFTTutorial\", \"NFT\") {}\n    \n    \n    function _beforeTokenTransfer(address from, address to, uint256 tokenId, uint256 batchSize) internal override(ERC721, ERC721Enumerable)\n    {\n        super._beforeTokenTransfer(from, to, tokenId, batchSize);\n    }\n\n    function supportsInterface(bytes4 interfaceId) public view override(ERC721, ERC721Enumerable,ERC721URIStorage) returns (bool) {\n        return super.supportsInterface(interfaceId);\n    }\n\n    function tokenURI(uint256 tokenId) public view override(ERC721URIStorage, ERC721) returns (string memory) {\n        return super.tokenURI(tokenId);\n    }\n\n    function mintTo(address recipient, string memory _name, uint _price, string memory _description, string memory _tokenUri ,string memory _metadataTokenUri) public onlyOwner returns (uint256)\n    {\n        require(recipient==getOwnerAddress(), \"Only Owner Can mint\");\n        currentTokenId.increment();\n        uint256 newItemId = currentTokenId.current();\n        DetailsOfTokenID[newItemId]=Details(_name,_price,_description,_tokenUri,_metadataTokenUri);\n        _safeMint(recipient, newItemId);\n        _setTokenURI(newItemId, _metadataTokenUri);\n\n\n        emit mintevent(msg.sender,newItemId,_name,_price,_description,_tokenUri,_metadataTokenUri);\n        return newItemId;\n    }\n\n      function getData (uint _id) public view returns(Details memory){\n        return DetailsOfTokenID[_id];\n    }\n\n        function _burn(uint256 tokenId) internal override(ERC721URIStorage, ERC721) {\n            super._burn(tokenId);\n        }\n\n\n    function getOwnerAddress() public view returns (address) {\n            return owner();\n        }\n\n    function Update(uint _tokenId,string memory _name, uint _price, string memory _description, string memory _tokenUri ,string memory _metadataTokenUri) public onlyOwner returns (string memory)\n    {\n        require(DetailsOfTokenID[_tokenId].price > 0, \"Token ID does not exist\");\n        DetailsOfTokenID[_tokenId]=Details(_name,_price,_description,_tokenUri,_metadataTokenUri);\n        _setTokenURI(_tokenId, _metadataTokenUri);\n        emit metadataUpdated(_tokenId,_name,_price,_description,_tokenUri,_metadataTokenUri);\n        return _metadataTokenUri;\n    }    \n \n}",
  "sourcePath": "/home/hp/Documents/nency/nft_marketPlace/contracts/NFT.sol",
  "compiler": {
    "name": "solc",
    "version": "0.8.18+commit.87f61d96.Emscripten.clang"
  },
  "schemaVersion": "3.4.11",
  "updatedAt": "2023-10-05T05:47:40.129Z",
  "networkType": "ethereum",
  "devdoc": {
    "events": {
      "Approval(address,address,uint256)": {
        "details": "Emitted when `owner` enables `approved` to manage the `tokenId` token."
      },
      "ApprovalForAll(address,address,bool)": {
        "details": "Emitted when `owner` enables or disables (`approved`) `operator` to manage all of its assets."
      },
      "BatchMetadataUpdate(uint256,uint256)": {
        "details": "This event emits when the metadata of a range of tokens is changed. So that the third-party platforms such as NFT market could timely update the images and related attributes of the NFTs."
      },
      "MetadataUpdate(uint256)": {
        "details": "This event emits when the metadata of a token is changed. So that the third-party platforms such as NFT market could timely update the images and related attributes of the NFT."
      },
      "Transfer(address,address,uint256)": {
        "details": "Emitted when `tokenId` token is transferred from `from` to `to`."
      }
    },
    "kind": "dev",
    "methods": {
      "approve(address,uint256)": {
        "details": "See {IERC721-approve}."
      },
      "balanceOf(address)": {
        "details": "See {IERC721-balanceOf}."
      },
      "getApproved(uint256)": {
        "details": "See {IERC721-getApproved}."
      },
      "isApprovedForAll(address,address)": {
        "details": "See {IERC721-isApprovedForAll}."
      },
      "name()": {
        "details": "See {IERC721Metadata-name}."
      },
      "owner()": {
        "details": "Returns the address of the current owner."
      },
      "ownerOf(uint256)": {
        "details": "See {IERC721-ownerOf}."
      },
      "renounceOwnership()": {
        "details": "Leaves the contract without owner. It will not be possible to call `onlyOwner` functions. Can only be called by the current owner. NOTE: Renouncing ownership will leave the contract without an owner, thereby disabling any functionality that is only available to the owner."
      },
      "safeTransferFrom(address,address,uint256)": {
        "details": "See {IERC721-safeTransferFrom}."
      },
      "safeTransferFrom(address,address,uint256,bytes)": {
        "details": "See {IERC721-safeTransferFrom}."
      },
      "setApprovalForAll(address,bool)": {
        "details": "See {IERC721-setApprovalForAll}."
      },
      "symbol()": {
        "details": "See {IERC721Metadata-symbol}."
      },
      "tokenByIndex(uint256)": {
        "details": "See {IERC721Enumerable-tokenByIndex}."
      },
      "tokenOfOwnerByIndex(address,uint256)": {
        "details": "See {IERC721Enumerable-tokenOfOwnerByIndex}."
      },
      "totalSupply()": {
        "details": "See {IERC721Enumerable-totalSupply}."
      },
      "transferFrom(address,address,uint256)": {
        "details": "See {IERC721-transferFrom}."
      },
      "transferOwnership(address)": {
        "details": "Transfers ownership of the contract to a new account (`newOwner`). Can only be called by the current owner."
      }
    },
    "version": 1
  },
  "userdoc": {
    "kind": "user",
    "methods": {},
    "version": 1
  }
}