{
	"contractName": "NFT",
	"abi": [
		{
			"inputs": [],
			"stateMutability": "nonpayable",
			"type": "constructor"
		},
		{
			"anonymous": false,
			"inputs": [
				{
					"indexed": true,
					"internalType": "address",
					"name": "owner",
					"type": "address"
				},
				{
					"indexed": true,
					"internalType": "address",
					"name": "approved",
					"type": "address"
				},
				{
					"indexed": true,
					"internalType": "uint256",
					"name": "tokenId",
					"type": "uint256"
				}
			],
			"name": "Approval",
			"type": "event"
		},
		{
			"anonymous": false,
			"inputs": [
				{
					"indexed": true,
					"internalType": "address",
					"name": "owner",
					"type": "address"
				},
				{
					"indexed": true,
					"internalType": "address",
					"name": "operator",
					"type": "address"
				},
				{
					"indexed": false,
					"internalType": "bool",
					"name": "approved",
					"type": "bool"
				}
			],
			"name": "ApprovalForAll",
			"type": "event"
		},
		{
			"anonymous": false,
			"inputs": [
				{
					"indexed": false,
					"internalType": "uint256",
					"name": "_fromTokenId",
					"type": "uint256"
				},
				{
					"indexed": false,
					"internalType": "uint256",
					"name": "_toTokenId",
					"type": "uint256"
				}
			],
			"name": "BatchMetadataUpdate",
			"type": "event"
		},
		{
			"anonymous": false,
			"inputs": [
				{
					"indexed": false,
					"internalType": "uint256",
					"name": "_tokenId",
					"type": "uint256"
				}
			],
			"name": "MetadataUpdate",
			"type": "event"
		},
		{
			"anonymous": false,
			"inputs": [
				{
					"indexed": true,
					"internalType": "address",
					"name": "previousOwner",
					"type": "address"
				},
				{
					"indexed": true,
					"internalType": "address",
					"name": "newOwner",
					"type": "address"
				}
			],
			"name": "OwnershipTransferred",
			"type": "event"
		},
		{
			"anonymous": false,
			"inputs": [
				{
					"indexed": true,
					"internalType": "address",
					"name": "from",
					"type": "address"
				},
				{
					"indexed": true,
					"internalType": "address",
					"name": "to",
					"type": "address"
				},
				{
					"indexed": true,
					"internalType": "uint256",
					"name": "tokenId",
					"type": "uint256"
				}
			],
			"name": "Transfer",
			"type": "event"
		},
		{
			"anonymous": false,
			"inputs": [
				{
					"indexed": false,
					"internalType": "address",
					"name": "FromAddress",
					"type": "address"
				},
				{
					"indexed": false,
					"internalType": "address",
					"name": "toAddreess",
					"type": "address"
				},
				{
					"indexed": false,
					"internalType": "uint256",
					"name": "id",
					"type": "uint256"
				}
			],
			"name": "buyNftEvent",
			"type": "event"
		},
		{
			"anonymous": false,
			"inputs": [
				{
					"indexed": false,
					"internalType": "uint256",
					"name": "tokenId",
					"type": "uint256"
				},
				{
					"indexed": false,
					"internalType": "string",
					"name": "newName",
					"type": "string"
				},
				{
					"indexed": false,
					"internalType": "uint256",
					"name": "newPrice",
					"type": "uint256"
				},
				{
					"indexed": false,
					"internalType": "string",
					"name": "newDescription",
					"type": "string"
				},
				{
					"indexed": false,
					"internalType": "string",
					"name": "newImg",
					"type": "string"
				},
				{
					"indexed": false,
					"internalType": "string",
					"name": "metadataTokenUri",
					"type": "string"
				}
			],
			"name": "metadataUpdated",
			"type": "event"
		},
		{
			"anonymous": false,
			"inputs": [
				{
					"indexed": false,
					"internalType": "address",
					"name": "addOfSender",
					"type": "address"
				},
				{
					"indexed": false,
					"internalType": "uint256",
					"name": "id",
					"type": "uint256"
				},
				{
					"indexed": false,
					"internalType": "string",
					"name": "name",
					"type": "string"
				},
				{
					"indexed": false,
					"internalType": "uint256",
					"name": "price",
					"type": "uint256"
				},
				{
					"indexed": false,
					"internalType": "string",
					"name": "description",
					"type": "string"
				},
				{
					"indexed": false,
					"internalType": "string",
					"name": "tokenUri",
					"type": "string"
				},
				{
					"indexed": false,
					"internalType": "string",
					"name": "metadataTokenUri",
					"type": "string"
				}
			],
			"name": "mintevent",
			"type": "event"
		},
		{
			"inputs": [
				{
					"internalType": "uint256",
					"name": "",
					"type": "uint256"
				}
			],
			"name": "DetailsOfTokenID",
			"outputs": [
				{
					"internalType": "uint256",
					"name": "tokenId",
					"type": "uint256"
				},
				{
					"internalType": "string",
					"name": "name",
					"type": "string"
				},
				{
					"internalType": "uint256",
					"name": "price",
					"type": "uint256"
				},
				{
					"internalType": "string",
					"name": "desc",
					"type": "string"
				},
				{
					"internalType": "string",
					"name": "tokenUri",
					"type": "string"
				},
				{
					"internalType": "string",
					"name": "metadataTokenUri",
					"type": "string"
				}
			],
			"stateMutability": "view",
			"type": "function",
			"constant": true
		},
		{
			"inputs": [
				{
					"internalType": "address",
					"name": "",
					"type": "address"
				},
				{
					"internalType": "uint256",
					"name": "",
					"type": "uint256"
				}
			],
			"name": "TokenIdsByAddress",
			"outputs": [
				{
					"internalType": "uint256",
					"name": "",
					"type": "uint256"
				}
			],
			"stateMutability": "view",
			"type": "function",
			"constant": true
		},
		{
			"inputs": [
				{
					"internalType": "address",
					"name": "to",
					"type": "address"
				},
				{
					"internalType": "uint256",
					"name": "tokenId",
					"type": "uint256"
				}
			],
			"name": "approve",
			"outputs": [],
			"stateMutability": "nonpayable",
			"type": "function"
		},
		{
			"inputs": [
				{
					"internalType": "address",
					"name": "owner",
					"type": "address"
				}
			],
			"name": "balanceOf",
			"outputs": [
				{
					"internalType": "uint256",
					"name": "",
					"type": "uint256"
				}
			],
			"stateMutability": "view",
			"type": "function",
			"constant": true
		},
		{
			"inputs": [],
			"name": "baseTokenURI",
			"outputs": [
				{
					"internalType": "string",
					"name": "",
					"type": "string"
				}
			],
			"stateMutability": "view",
			"type": "function",
			"constant": true
		},
		{
			"inputs": [
				{
					"internalType": "uint256",
					"name": "tokenId",
					"type": "uint256"
				}
			],
			"name": "getApproved",
			"outputs": [
				{
					"internalType": "address",
					"name": "",
					"type": "address"
				}
			],
			"stateMutability": "view",
			"type": "function",
			"constant": true
		},
		{
			"inputs": [
				{
					"internalType": "address",
					"name": "owner",
					"type": "address"
				},
				{
					"internalType": "address",
					"name": "operator",
					"type": "address"
				}
			],
			"name": "isApprovedForAll",
			"outputs": [
				{
					"internalType": "bool",
					"name": "",
					"type": "bool"
				}
			],
			"stateMutability": "view",
			"type": "function",
			"constant": true
		},
		{
			"inputs": [
				{
					"internalType": "uint256",
					"name": "",
					"type": "uint256"
				}
			],
			"name": "isNftListed",
			"outputs": [
				{
					"internalType": "bool",
					"name": "",
					"type": "bool"
				}
			],
			"stateMutability": "view",
			"type": "function",
			"constant": true
		},
		{
			"inputs": [],
			"name": "name",
			"outputs": [
				{
					"internalType": "string",
					"name": "",
					"type": "string"
				}
			],
			"stateMutability": "view",
			"type": "function",
			"constant": true
		},
		{
			"inputs": [],
			"name": "owner",
			"outputs": [
				{
					"internalType": "address",
					"name": "",
					"type": "address"
				}
			],
			"stateMutability": "view",
			"type": "function",
			"constant": true
		},
		{
			"inputs": [
				{
					"internalType": "uint256",
					"name": "tokenId",
					"type": "uint256"
				}
			],
			"name": "ownerOf",
			"outputs": [
				{
					"internalType": "address",
					"name": "",
					"type": "address"
				}
			],
			"stateMutability": "view",
			"type": "function",
			"constant": true
		},
		{
			"inputs": [],
			"name": "renounceOwnership",
			"outputs": [],
			"stateMutability": "nonpayable",
			"type": "function"
		},
		{
			"inputs": [
				{
					"internalType": "address",
					"name": "from",
					"type": "address"
				},
				{
					"internalType": "address",
					"name": "to",
					"type": "address"
				},
				{
					"internalType": "uint256",
					"name": "tokenId",
					"type": "uint256"
				}
			],
			"name": "safeTransferFrom",
			"outputs": [],
			"stateMutability": "nonpayable",
			"type": "function"
		},
		{
			"inputs": [
				{
					"internalType": "address",
					"name": "from",
					"type": "address"
				},
				{
					"internalType": "address",
					"name": "to",
					"type": "address"
				},
				{
					"internalType": "uint256",
					"name": "tokenId",
					"type": "uint256"
				},
				{
					"internalType": "bytes",
					"name": "data",
					"type": "bytes"
				}
			],
			"name": "safeTransferFrom",
			"outputs": [],
			"stateMutability": "nonpayable",
			"type": "function"
		},
		{
			"inputs": [
				{
					"internalType": "address",
					"name": "",
					"type": "address"
				},
				{
					"internalType": "uint256",
					"name": "",
					"type": "uint256"
				}
			],
			"name": "sellingTokenIdsByAddress",
			"outputs": [
				{
					"internalType": "uint256",
					"name": "",
					"type": "uint256"
				}
			],
			"stateMutability": "view",
			"type": "function",
			"constant": true
		},
		{
			"inputs": [
				{
					"internalType": "address",
					"name": "operator",
					"type": "address"
				},
				{
					"internalType": "bool",
					"name": "approved",
					"type": "bool"
				}
			],
			"name": "setApprovalForAll",
			"outputs": [],
			"stateMutability": "nonpayable",
			"type": "function"
		},
		{
			"inputs": [],
			"name": "symbol",
			"outputs": [
				{
					"internalType": "string",
					"name": "",
					"type": "string"
				}
			],
			"stateMutability": "view",
			"type": "function",
			"constant": true
		},
		{
			"inputs": [
				{
					"internalType": "uint256",
					"name": "index",
					"type": "uint256"
				}
			],
			"name": "tokenByIndex",
			"outputs": [
				{
					"internalType": "uint256",
					"name": "",
					"type": "uint256"
				}
			],
			"stateMutability": "view",
			"type": "function",
			"constant": true
		},
		{
			"inputs": [
				{
					"internalType": "address",
					"name": "owner",
					"type": "address"
				},
				{
					"internalType": "uint256",
					"name": "index",
					"type": "uint256"
				}
			],
			"name": "tokenOfOwnerByIndex",
			"outputs": [
				{
					"internalType": "uint256",
					"name": "",
					"type": "uint256"
				}
			],
			"stateMutability": "view",
			"type": "function",
			"constant": true
		},
		{
			"inputs": [],
			"name": "totalSupply",
			"outputs": [
				{
					"internalType": "uint256",
					"name": "",
					"type": "uint256"
				}
			],
			"stateMutability": "view",
			"type": "function",
			"constant": true
		},
		{
			"inputs": [
				{
					"internalType": "address",
					"name": "from",
					"type": "address"
				},
				{
					"internalType": "address",
					"name": "to",
					"type": "address"
				},
				{
					"internalType": "uint256",
					"name": "tokenId",
					"type": "uint256"
				}
			],
			"name": "transferFrom",
			"outputs": [],
			"stateMutability": "nonpayable",
			"type": "function"
		},
		{
			"inputs": [
				{
					"internalType": "address",
					"name": "newOwner",
					"type": "address"
				}
			],
			"name": "transferOwnership",
			"outputs": [],
			"stateMutability": "nonpayable",
			"type": "function"
		},
		{
			"inputs": [
				{
					"internalType": "bytes4",
					"name": "interfaceId",
					"type": "bytes4"
				}
			],
			"name": "supportsInterface",
			"outputs": [
				{
					"internalType": "bool",
					"name": "",
					"type": "bool"
				}
			],
			"stateMutability": "view",
			"type": "function",
			"constant": true
		},
		{
			"inputs": [
				{
					"internalType": "uint256",
					"name": "tokenId",
					"type": "uint256"
				}
			],
			"name": "tokenURI",
			"outputs": [
				{
					"internalType": "string",
					"name": "",
					"type": "string"
				}
			],
			"stateMutability": "view",
			"type": "function",
			"constant": true
		},
		{
			"inputs": [
				{
					"internalType": "string",
					"name": "_name",
					"type": "string"
				},
				{
					"internalType": "uint256",
					"name": "_price",
					"type": "uint256"
				},
				{
					"internalType": "string",
					"name": "_description",
					"type": "string"
				},
				{
					"internalType": "string",
					"name": "_tokenUri",
					"type": "string"
				},
				{
					"internalType": "string",
					"name": "_metadataTokenUri",
					"type": "string"
				}
			],
			"name": "mintTo",
			"outputs": [
				{
					"internalType": "uint256",
					"name": "",
					"type": "uint256"
				}
			],
			"stateMutability": "nonpayable",
			"type": "function"
		},
		{
			"inputs": [
				{
					"internalType": "uint256",
					"name": "id",
					"type": "uint256"
				}
			],
			"name": "selldata",
			"outputs": [],
			"stateMutability": "nonpayable",
			"type": "function"
		},
		{
			"inputs": [
				{
					"internalType": "address",
					"name": "user",
					"type": "address"
				}
			],
			"name": "getsellingTokenIdsByAddress",
			"outputs": [
				{
					"internalType": "uint256[]",
					"name": "",
					"type": "uint256[]"
				}
			],
			"stateMutability": "view",
			"type": "function",
			"constant": true
		},
		{
			"inputs": [
				{
					"internalType": "address",
					"name": "user",
					"type": "address"
				}
			],
			"name": "getTokenIdsByAddress",
			"outputs": [
				{
					"internalType": "uint256[]",
					"name": "",
					"type": "uint256[]"
				}
			],
			"stateMutability": "view",
			"type": "function",
			"constant": true
		},
		{
			"inputs": [
				{
					"internalType": "address",
					"name": "add",
					"type": "address"
				},
				{
					"internalType": "uint256",
					"name": "_ID",
					"type": "uint256"
				}
			],
			"name": "removeSell",
			"outputs": [],
			"stateMutability": "nonpayable",
			"type": "function"
		},
		{
			"inputs": [
				{
					"internalType": "uint256",
					"name": "id",
					"type": "uint256"
				}
			],
			"name": "buyNft",
			"outputs": [],
			"stateMutability": "payable",
			"type": "function",
			"payable": true
		},
		{
			"inputs": [
				{
					"internalType": "uint256",
					"name": "_id",
					"type": "uint256"
				}
			],
			"name": "getData",
			"outputs": [
				{
					"components": [
						{
							"internalType": "uint256",
							"name": "tokenId",
							"type": "uint256"
						},
						{
							"internalType": "string",
							"name": "name",
							"type": "string"
						},
						{
							"internalType": "uint256",
							"name": "price",
							"type": "uint256"
						},
						{
							"internalType": "string",
							"name": "desc",
							"type": "string"
						},
						{
							"internalType": "string",
							"name": "tokenUri",
							"type": "string"
						},
						{
							"internalType": "string",
							"name": "metadataTokenUri",
							"type": "string"
						}
					],
					"internalType": "struct NFT.Details",
					"name": "",
					"type": "tuple"
				}
			],
			"stateMutability": "view",
			"type": "function",
			"constant": true
		},
		{
			"inputs": [],
			"name": "getOwnerAddress",
			"outputs": [
				{
					"internalType": "address",
					"name": "",
					"type": "address"
				}
			],
			"stateMutability": "view",
			"type": "function",
			"constant": true
		},
		{
			"inputs": [
				{
					"internalType": "uint256",
					"name": "_tokenId",
					"type": "uint256"
				},
				{
					"internalType": "string",
					"name": "_name",
					"type": "string"
				},
				{
					"internalType": "uint256",
					"name": "_price",
					"type": "uint256"
				},
				{
					"internalType": "string",
					"name": "_description",
					"type": "string"
				},
				{
					"internalType": "string",
					"name": "_tokenUri",
					"type": "string"
				},
				{
					"internalType": "string",
					"name": "_metadataTokenUri",
					"type": "string"
				}
			],
			"name": "Update",
			"outputs": [
				{
					"internalType": "string",
					"name": "",
					"type": "string"
				}
			],
			"stateMutability": "nonpayable",
			"type": "function"
		}
	],
	"bytecode": "0x60806040523480156200001157600080fd5b506040518060400160405280600b81526020017f4e46545475746f7269616c0000000000000000000000000000000000000000008152506040518060400160405280600381526020017f4e4654000000000000000000000000000000000000000000000000000000000081525081600090816200008f919062000412565b508060019081620000a1919062000412565b505050620000c4620000b8620000ca60201b60201c565b620000d260201b60201c565b620004f9565b600033905090565b6000600a60009054906101000a900473ffffffffffffffffffffffffffffffffffffffff16905081600a60006101000a81548173ffffffffffffffffffffffffffffffffffffffff021916908373ffffffffffffffffffffffffffffffffffffffff1602179055508173ffffffffffffffffffffffffffffffffffffffff168173ffffffffffffffffffffffffffffffffffffffff167f8be0079c531659141344cd1fd0a4f28419497f9722a3daafe3b4186f6b6457e060405160405180910390a35050565b600081519050919050565b7f4e487b7100000000000000000000000000000000000000000000000000000000600052604160045260246000fd5b7f4e487b7100000000000000000000000000000000000000000000000000000000600052602260045260246000fd5b600060028204905060018216806200021a57607f821691505b60208210810362000230576200022f620001d2565b5b50919050565b60008190508160005260206000209050919050565b60006020601f8301049050919050565b600082821b905092915050565b6000600883026200029a7fffffffffffffffffffffffffffffffffffffffffffffffffffffffffffffffff826200025b565b620002a686836200025b565b95508019841693508086168417925050509392505050565b6000819050919050565b6000819050919050565b6000620002f3620002ed620002e784620002be565b620002c8565b620002be565b9050919050565b6000819050919050565b6200030f83620002d2565b620003276200031e82620002fa565b84845462000268565b825550505050565b600090565b6200033e6200032f565b6200034b81848462000304565b505050565b5b8181101562000373576200036760008262000334565b60018101905062000351565b5050565b601f821115620003c2576200038c8162000236565b62000397846200024b565b81016020851015620003a7578190505b620003bf620003b6856200024b565b83018262000350565b50505b505050565b600082821c905092915050565b6000620003e760001984600802620003c7565b1980831691505092915050565b6000620004028383620003d4565b9150826002028217905092915050565b6200041d8262000198565b67ffffffffffffffff811115620004395762000438620001a3565b5b62000445825462000201565b6200045282828562000377565b600060209050601f8311600181146200048a576000841562000475578287015190505b620004818582620003f4565b865550620004f1565b601f1984166200049a8662000236565b60005b82811015620004c4578489015182556001820191506020850194506020810190506200049d565b86831015620004e45784890151620004e0601f891682620003d4565b8355505b6001600288020188555050505b505050505050565b61508f80620005096000396000f3fe6080604052600436106101ed5760003560e01c80635f5f8f491161010d578063a22cb465116100a0578063e8484f851161006f578063e8484f8514610778578063e985e9c5146107a1578063edfd4995146107de578063f2fde38b1461081b578063fd9e9c7714610844576101ed565b8063a22cb465146106be578063b88d4fde146106e7578063c87b56dd14610710578063d547cfb71461074d576101ed565b8063715018a6116100dc578063715018a61461061457806389d5feee1461062b5780638da5cb5b1461066857806395d89b4114610693576101ed565b80635f5f8f49146105205780636352211e1461055d57806367879c1c1461059a57806370a08231146105d7576101ed565b80631c42ae2c116101855780633b3b047f116101545780633b3b047f1461045457806342842e0e1461047d5780634b490649146104a65780634f6ccce7146104e3576101ed565b80631c42ae2c1461039557806323b872dd146103d2578063243adbdd146103fb5780632f745c5914610417576101ed565b8063081812fc116101c1578063081812fc146102d9578063095ea7b3146103165780630c4f65bd1461033f57806318160ddd1461036a576101ed565b8062481c92146101f25780630178fe3f1461023457806301ffc9a71461027157806306fdde03146102ae575b600080fd5b3480156101fe57600080fd5b5061021960048036038101906102149190613580565b610881565b60405161022b9695949392919061364c565b60405180910390f35b34801561024057600080fd5b5061025b60048036038101906102569190613580565b610add565b60405161026891906137c0565b60405180910390f35b34801561027d57600080fd5b506102986004803603810190610293919061383a565b610d66565b6040516102a59190613882565b60405180910390f35b3480156102ba57600080fd5b506102c3610d78565b6040516102d0919061389d565b60405180910390f35b3480156102e557600080fd5b5061030060048036038101906102fb9190613580565b610e0a565b60405161030d9190613900565b60405180910390f35b34801561032257600080fd5b5061033d60048036038101906103389190613947565b610e50565b005b34801561034b57600080fd5b50610354610f67565b6040516103619190613900565b60405180910390f35b34801561037657600080fd5b5061037f610f76565b60405161038c9190613987565b60405180910390f35b3480156103a157600080fd5b506103bc60048036038101906103b79190613580565b610f83565b6040516103c99190613882565b60405180910390f35b3480156103de57600080fd5b506103f960048036038101906103f491906139a2565b610fa3565b005b61041560048036038101906104109190613580565b611003565b005b34801561042357600080fd5b5061043e60048036038101906104399190613947565b6110ac565b60405161044b9190613987565b60405180910390f35b34801561046057600080fd5b5061047b60048036038101906104769190613947565b611151565b005b34801561048957600080fd5b506104a4600480360381019061049f91906139a2565b6112a3565b005b3480156104b257600080fd5b506104cd60048036038101906104c89190613b2a565b6112c3565b6040516104da9190613987565b60405180910390f35b3480156104ef57600080fd5b5061050a60048036038101906105059190613580565b611456565b6040516105179190613987565b60405180910390f35b34801561052c57600080fd5b5061054760048036038101906105429190613947565b6114c7565b6040516105549190613987565b60405180910390f35b34801561056957600080fd5b50610584600480360381019061057f9190613580565b6114f8565b6040516105919190613900565b60405180910390f35b3480156105a657600080fd5b506105c160048036038101906105bc9190613947565b61157e565b6040516105ce9190613987565b60405180910390f35b3480156105e357600080fd5b506105fe60048036038101906105f99190613c15565b6115af565b60405161060b9190613987565b60405180910390f35b34801561062057600080fd5b50610629611666565b005b34801561063757600080fd5b50610652600480360381019061064d9190613c15565b61167a565b60405161065f9190613cf1565b60405180910390f35b34801561067457600080fd5b5061067d611711565b60405161068a9190613900565b60405180910390f35b34801561069f57600080fd5b506106a861173b565b6040516106b5919061389d565b60405180910390f35b3480156106ca57600080fd5b506106e560048036038101906106e09190613d3f565b6117cd565b005b3480156106f357600080fd5b5061070e60048036038101906107099190613e20565b6117e3565b005b34801561071c57600080fd5b5061073760048036038101906107329190613580565b611845565b604051610744919061389d565b60405180910390f35b34801561075957600080fd5b50610762611857565b60405161076f919061389d565b60405180910390f35b34801561078457600080fd5b5061079f600480360381019061079a9190613580565b6118e5565b005b3480156107ad57600080fd5b506107c860048036038101906107c39190613ea3565b611a61565b6040516107d59190613882565b60405180910390f35b3480156107ea57600080fd5b5061080560048036038101906108009190613ee3565b611af5565b604051610812919061389d565b60405180910390f35b34801561082757600080fd5b50610842600480360381019061083d9190613c15565b611c5f565b005b34801561085057600080fd5b5061086b60048036038101906108669190613c15565b611ce2565b6040516108789190613cf1565b60405180910390f35b600e6020528060005260406000206000915090508060000154908060010180546108aa9061400f565b80601f01602080910402602001604051908101604052809291908181526020018280546108d69061400f565b80156109235780601f106108f857610100808354040283529160200191610923565b820191906000526020600020905b81548152906001019060200180831161090657829003601f168201915b50505050509080600201549080600301805461093e9061400f565b80601f016020809104026020016040519081016040528092919081815260200182805461096a9061400f565b80156109b75780601f1061098c576101008083540402835291602001916109b7565b820191906000526020600020905b81548152906001019060200180831161099a57829003601f168201915b5050505050908060040180546109cc9061400f565b80601f01602080910402602001604051908101604052809291908181526020018280546109f89061400f565b8015610a455780601f10610a1a57610100808354040283529160200191610a45565b820191906000526020600020905b815481529060010190602001808311610a2857829003601f168201915b505050505090806005018054610a5a9061400f565b80601f0160208091040260200160405190810160405280929190818152602001828054610a869061400f565b8015610ad35780601f10610aa857610100808354040283529160200191610ad3565b820191906000526020600020905b815481529060010190602001808311610ab657829003601f168201915b5050505050905086565b610ae5613500565b600e60008381526020019081526020016000206040518060c001604052908160008201548152602001600182018054610b1d9061400f565b80601f0160208091040260200160405190810160405280929190818152602001828054610b499061400f565b8015610b965780601f10610b6b57610100808354040283529160200191610b96565b820191906000526020600020905b815481529060010190602001808311610b7957829003601f168201915b5050505050815260200160028201548152602001600382018054610bb99061400f565b80601f0160208091040260200160405190810160405280929190818152602001828054610be59061400f565b8015610c325780601f10610c0757610100808354040283529160200191610c32565b820191906000526020600020905b815481529060010190602001808311610c1557829003601f168201915b50505050508152602001600482018054610c4b9061400f565b80601f0160208091040260200160405190810160405280929190818152602001828054610c779061400f565b8015610cc45780601f10610c9957610100808354040283529160200191610cc4565b820191906000526020600020905b815481529060010190602001808311610ca757829003601f168201915b50505050508152602001600582018054610cdd9061400f565b80601f0160208091040260200160405190810160405280929190818152602001828054610d099061400f565b8015610d565780601f10610d2b57610100808354040283529160200191610d56565b820191906000526020600020905b815481529060010190602001808311610d3957829003601f168201915b5050505050815250509050919050565b6000610d7182611d79565b9050919050565b606060008054610d879061400f565b80601f0160208091040260200160405190810160405280929190818152602001828054610db39061400f565b8015610e005780601f10610dd557610100808354040283529160200191610e00565b820191906000526020600020905b815481529060010190602001808311610de357829003601f168201915b5050505050905090565b6000610e1582611dda565b6004600083815260200190815260200160002060009054906101000a900473ffffffffffffffffffffffffffffffffffffffff169050919050565b6000610e5b826114f8565b90508073ffffffffffffffffffffffffffffffffffffffff168373ffffffffffffffffffffffffffffffffffffffff1603610ecb576040517f08c379a0000000000000000000000000000000000000000000000000000000008152600401610ec2906140b2565b60405180910390fd5b8073ffffffffffffffffffffffffffffffffffffffff16610eea611e25565b73ffffffffffffffffffffffffffffffffffffffff161480610f195750610f1881610f13611e25565b611a61565b5b610f58576040517f08c379a0000000000000000000000000000000000000000000000000000000008152600401610f4f90614144565b60405180910390fd5b610f628383611e2d565b505050565b6000610f71611711565b905090565b6000600880549050905090565b60116020528060005260406000206000915054906101000a900460ff1681565b610fb4610fae611e25565b82611ee6565b610ff3576040517f08c379a0000000000000000000000000000000000000000000000000000000008152600401610fea906141d6565b60405180910390fd5b610ffe838383611f7b565b505050565b61100c81612274565b61104b576040517f08c379a000000000000000000000000000000000000000000000000000000000815260040161104290614242565b60405180910390fd5b6000611056826122b5565b9050611063813384611f7b565b61106d8183611151565b7feb031af2564135b22453615bb84e2121202531cf129c496225b550a3b89172258133846040516110a093929190614262565b60405180910390a15050565b60006110b7836115af565b82106110f8576040517f08c379a00000000000000000000000000000000000000000000000000000000081526004016110ef9061430b565b60405180910390fd5b600660008473ffffffffffffffffffffffffffffffffffffffff1673ffffffffffffffffffffffffffffffffffffffff168152602001908152602001600020600083815260200190815260200160002054905092915050565b6000600f60008473ffffffffffffffffffffffffffffffffffffffff1673ffffffffffffffffffffffffffffffffffffffff168152602001908152602001600020905060005b818054905081101561129c57828282815481106111b7576111b661432b565b5b90600052602060002001540361128957600182805490506111d89190614389565b81101561122f5781600183805490506111f19190614389565b815481106112025761120161432b565b5b90600052602060002001548282815481106112205761121f61432b565b5b90600052602060002001819055505b818054806112405761123f6143bd565b5b6001900381819060005260206000200160009055905560006011600085815260200190815260200160002060006101000a81548160ff021916908315150217905550505061129f565b8080611294906143ec565b915050611197565b50505b5050565b6112be838383604051806020016040528060008152506117e3565b505050565b60006112cf600c6122f2565b60006112db600c612308565b90506040518060c0016040528082815260200188815260200187815260200186815260200185815260200184815250600e600083815260200190815260200160002060008201518160000155602082015181600101908161133c91906145e0565b5060408201518160020155606082015181600301908161135c91906145e0565b50608082015181600401908161137291906145e0565b5060a082015181600501908161138891906145e0565b509050506113963382612316565b6113a08184612334565b601060003373ffffffffffffffffffffffffffffffffffffffff1673ffffffffffffffffffffffffffffffffffffffff1681526020019081526020016000208190806001815401808255809150506001900390600052602060002001600090919091909150557fa0da3e3615c35bffbb519c663753674cecf497b08a0042c2c6b5a6b435529f463382898989898960405161144197969594939291906146b2565b60405180910390a18091505095945050505050565b6000611460610f76565b82106114a1576040517f08c379a0000000000000000000000000000000000000000000000000000000008152600401611498906147af565b60405180910390fd5b600882815481106114b5576114b461432b565b5b90600052602060002001549050919050565b600f60205281600052604060002081815481106114e357600080fd5b90600052602060002001600091509150505481565b600080611504836122b5565b9050600073ffffffffffffffffffffffffffffffffffffffff168173ffffffffffffffffffffffffffffffffffffffff1603611575576040517f08c379a000000000000000000000000000000000000000000000000000000000815260040161156c9061481b565b60405180910390fd5b80915050919050565b6010602052816000526040600020818154811061159a57600080fd5b90600052602060002001600091509150505481565b60008073ffffffffffffffffffffffffffffffffffffffff168273ffffffffffffffffffffffffffffffffffffffff160361161f576040517f08c379a0000000000000000000000000000000000000000000000000000000008152600401611616906148ad565b60405180910390fd5b600360008373ffffffffffffffffffffffffffffffffffffffff1673ffffffffffffffffffffffffffffffffffffffff168152602001908152602001600020549050919050565b61166e6123d8565b6116786000612456565b565b6060601060008373ffffffffffffffffffffffffffffffffffffffff1673ffffffffffffffffffffffffffffffffffffffff16815260200190815260200160002080548060200260200160405190810160405280929190818152602001828054801561170557602002820191906000526020600020905b8154815260200190600101908083116116f1575b50505050509050919050565b6000600a60009054906101000a900473ffffffffffffffffffffffffffffffffffffffff16905090565b60606001805461174a9061400f565b80601f01602080910402602001604051908101604052809291908181526020018280546117769061400f565b80156117c35780601f10611798576101008083540402835291602001916117c3565b820191906000526020600020905b8154815290600101906020018083116117a657829003601f168201915b5050505050905090565b6117df6117d8611e25565b838361251c565b5050565b6117f46117ee611e25565b83611ee6565b611833576040517f08c379a000000000000000000000000000000000000000000000000000000000815260040161182a906141d6565b60405180910390fd5b61183f84848484612688565b50505050565b6060611850826126e4565b9050919050565b600d80546118649061400f565b80601f01602080910402602001604051908101604052809291908181526020018280546118909061400f565b80156118dd5780601f106118b2576101008083540402835291602001916118dd565b820191906000526020600020905b8154815290600101906020018083116118c057829003601f168201915b505050505081565b3373ffffffffffffffffffffffffffffffffffffffff16611905826122b5565b73ffffffffffffffffffffffffffffffffffffffff161461195b576040517f08c379a00000000000000000000000000000000000000000000000000000000081526004016119529061493f565b60405180910390fd5b600115156011600083815260200190815260200160002060009054906101000a900460ff161515036119c2576040517f08c379a00000000000000000000000000000000000000000000000000000000081526004016119b9906149ab565b60405180910390fd5b6119cc3082611e2d565b600f60003373ffffffffffffffffffffffffffffffffffffffff1673ffffffffffffffffffffffffffffffffffffffff16815260200190815260200160002081908060018154018082558091505060019003906000526020600020016000909190919091505560016011600083815260200190815260200160002060006101000a81548160ff02191690831515021790555050565b6000600560008473ffffffffffffffffffffffffffffffffffffffff1673ffffffffffffffffffffffffffffffffffffffff16815260200190815260200160002060008373ffffffffffffffffffffffffffffffffffffffff1673ffffffffffffffffffffffffffffffffffffffff16815260200190815260200160002060009054906101000a900460ff16905092915050565b6060611aff6123d8565b6000600e60008981526020019081526020016000206002015411611b58576040517f08c379a0000000000000000000000000000000000000000000000000000000008152600401611b4f90614242565b60405180910390fd5b6040518060c0016040528088815260200187815260200186815260200185815260200184815260200183815250600e6000898152602001908152602001600020600082015181600001556020820151816001019081611bb791906145e0565b50604082015181600201556060820151816003019081611bd791906145e0565b506080820151816004019081611bed91906145e0565b5060a0820151816005019081611c0391906145e0565b50905050611c118783612334565b7fbabf078520c4623b6442838ad2f6a188bae6e6e3909a976e1894fca920c70342878787878787604051611c4a9695949392919061364c565b60405180910390a18190509695505050505050565b611c676123d8565b600073ffffffffffffffffffffffffffffffffffffffff168173ffffffffffffffffffffffffffffffffffffffff1603611cd6576040517f08c379a0000000000000000000000000000000000000000000000000000000008152600401611ccd90614a3d565b60405180910390fd5b611cdf81612456565b50565b6060600f60008373ffffffffffffffffffffffffffffffffffffffff1673ffffffffffffffffffffffffffffffffffffffff168152602001908152602001600020805480602002602001604051908101604052809291908181526020018280548015611d6d57602002820191906000526020600020905b815481526020019060010190808311611d59575b50505050509050919050565b6000634906490660e01b7bffffffffffffffffffffffffffffffffffffffffffffffffffffffff1916827bffffffffffffffffffffffffffffffffffffffffffffffffffffffff19161480611dd35750611dd2826127f6565b5b9050919050565b611de381612274565b611e22576040517f08c379a0000000000000000000000000000000000000000000000000000000008152600401611e199061481b565b60405180910390fd5b50565b600033905090565b816004600083815260200190815260200160002060006101000a81548173ffffffffffffffffffffffffffffffffffffffff021916908373ffffffffffffffffffffffffffffffffffffffff160217905550808273ffffffffffffffffffffffffffffffffffffffff16611ea0836114f8565b73ffffffffffffffffffffffffffffffffffffffff167f8c5be1e5ebec7d5bd14f71427d1e84f3dd0314c0f7b2291e5b200ac8c7c3b92560405160405180910390a45050565b600080611ef2836114f8565b90508073ffffffffffffffffffffffffffffffffffffffff168473ffffffffffffffffffffffffffffffffffffffff161480611f345750611f338185611a61565b5b80611f7257508373ffffffffffffffffffffffffffffffffffffffff16611f5a84610e0a565b73ffffffffffffffffffffffffffffffffffffffff16145b91505092915050565b8273ffffffffffffffffffffffffffffffffffffffff16611f9b826114f8565b73ffffffffffffffffffffffffffffffffffffffff1614611ff1576040517f08c379a0000000000000000000000000000000000000000000000000000000008152600401611fe890614acf565b60405180910390fd5b600073ffffffffffffffffffffffffffffffffffffffff168273ffffffffffffffffffffffffffffffffffffffff1603612060576040517f08c379a000000000000000000000000000000000000000000000000000000000815260040161205790614b61565b60405180910390fd5b61206d8383836001612870565b8273ffffffffffffffffffffffffffffffffffffffff1661208d826114f8565b73ffffffffffffffffffffffffffffffffffffffff16146120e3576040517f08c379a00000000000000000000000000000000000000000000000000000000081526004016120da90614acf565b60405180910390fd5b6004600082815260200190815260200160002060006101000a81549073ffffffffffffffffffffffffffffffffffffffff02191690556001600360008573ffffffffffffffffffffffffffffffffffffffff1673ffffffffffffffffffffffffffffffffffffffff168152602001908152602001600020600082825403925050819055506001600360008473ffffffffffffffffffffffffffffffffffffffff1673ffffffffffffffffffffffffffffffffffffffff16815260200190815260200160002060008282540192505081905550816002600083815260200190815260200160002060006101000a81548173ffffffffffffffffffffffffffffffffffffffff021916908373ffffffffffffffffffffffffffffffffffffffff160217905550808273ffffffffffffffffffffffffffffffffffffffff168473ffffffffffffffffffffffffffffffffffffffff167fddf252ad1be2c89b69c2b068fc378daa952ba7f163c4a11628f55a4df523b3ef60405160405180910390a461226f8383836001612882565b505050565b60008073ffffffffffffffffffffffffffffffffffffffff16612296836122b5565b73ffffffffffffffffffffffffffffffffffffffff1614159050919050565b60006002600083815260200190815260200160002060009054906101000a900473ffffffffffffffffffffffffffffffffffffffff169050919050565b6001816000016000828254019250508190555050565b600081600001549050919050565b612330828260405180602001604052806000815250612888565b5050565b61233d82612274565b61237c576040517f08c379a000000000000000000000000000000000000000000000000000000000815260040161237390614bf3565b60405180910390fd5b80600b6000848152602001908152602001600020908161239c91906145e0565b507ff8e1a15aba9398e019f0b49df1a4fde98ee17ae345cb5f6b5e2c27f5033e8ce7826040516123cc9190613987565b60405180910390a15050565b6123e0611e25565b73ffffffffffffffffffffffffffffffffffffffff166123fe611711565b73ffffffffffffffffffffffffffffffffffffffff1614612454576040517f08c379a000000000000000000000000000000000000000000000000000000000815260040161244b90614c5f565b60405180910390fd5b565b6000600a60009054906101000a900473ffffffffffffffffffffffffffffffffffffffff16905081600a60006101000a81548173ffffffffffffffffffffffffffffffffffffffff021916908373ffffffffffffffffffffffffffffffffffffffff1602179055508173ffffffffffffffffffffffffffffffffffffffff168173ffffffffffffffffffffffffffffffffffffffff167f8be0079c531659141344cd1fd0a4f28419497f9722a3daafe3b4186f6b6457e060405160405180910390a35050565b8173ffffffffffffffffffffffffffffffffffffffff168373ffffffffffffffffffffffffffffffffffffffff160361258a576040517f08c379a000000000000000000000000000000000000000000000000000000000815260040161258190614ccb565b60405180910390fd5b80600560008573ffffffffffffffffffffffffffffffffffffffff1673ffffffffffffffffffffffffffffffffffffffff16815260200190815260200160002060008473ffffffffffffffffffffffffffffffffffffffff1673ffffffffffffffffffffffffffffffffffffffff16815260200190815260200160002060006101000a81548160ff0219169083151502179055508173ffffffffffffffffffffffffffffffffffffffff168373ffffffffffffffffffffffffffffffffffffffff167f17307eab39ab6107e8899845ad3d59bd9653f200f220920489ca2b5937696c318360405161267b9190613882565b60405180910390a3505050565b612693848484611f7b565b61269f848484846128e3565b6126de576040517f08c379a00000000000000000000000000000000000000000000000000000000081526004016126d590614d5d565b60405180910390fd5b50505050565b60606126ef82611dda565b6000600b6000848152602001908152602001600020805461270f9061400f565b80601f016020809104026020016040519081016040528092919081815260200182805461273b9061400f565b80156127885780601f1061275d57610100808354040283529160200191612788565b820191906000526020600020905b81548152906001019060200180831161276b57829003601f168201915b505050505090506000612799612a6a565b905060008151036127ae5781925050506127f1565b6000825111156127e35780826040516020016127cb929190614db9565b604051602081830303815290604052925050506127f1565b6127ec84612a81565b925050505b919050565b60007f780e9d63000000000000000000000000000000000000000000000000000000007bffffffffffffffffffffffffffffffffffffffffffffffffffffffff1916827bffffffffffffffffffffffffffffffffffffffffffffffffffffffff19161480612869575061286882612ae9565b5b9050919050565b61287c84848484612bcb565b50505050565b50505050565b6128928383612d29565b61289f60008484846128e3565b6128de576040517f08c379a00000000000000000000000000000000000000000000000000000000081526004016128d590614d5d565b60405180910390fd5b505050565b60006129048473ffffffffffffffffffffffffffffffffffffffff16612f46565b15612a5d578373ffffffffffffffffffffffffffffffffffffffff1663150b7a0261292d611e25565b8786866040518563ffffffff1660e01b815260040161294f9493929190614e32565b6020604051808303816000875af192505050801561298b57506040513d601f19601f820116820180604052508101906129889190614e93565b60015b612a0d573d80600081146129bb576040519150601f19603f3d011682016040523d82523d6000602084013e6129c0565b606091505b506000815103612a05576040517f08c379a00000000000000000000000000000000000000000000000000000000081526004016129fc90614d5d565b60405180910390fd5b805181602001fd5b63150b7a0260e01b7bffffffffffffffffffffffffffffffffffffffffffffffffffffffff1916817bffffffffffffffffffffffffffffffffffffffffffffffffffffffff191614915050612a62565b600190505b949350505050565b606060405180602001604052806000815250905090565b6060612a8c82611dda565b6000612a96612a6a565b90506000815111612ab65760405180602001604052806000815250612ae1565b80612ac084612f69565b604051602001612ad1929190614db9565b6040516020818303038152906040525b915050919050565b60007f80ac58cd000000000000000000000000000000000000000000000000000000007bffffffffffffffffffffffffffffffffffffffffffffffffffffffff1916827bffffffffffffffffffffffffffffffffffffffffffffffffffffffff19161480612bb457507f5b5e139f000000000000000000000000000000000000000000000000000000007bffffffffffffffffffffffffffffffffffffffffffffffffffffffff1916827bffffffffffffffffffffffffffffffffffffffffffffffffffffffff1916145b80612bc45750612bc382613037565b5b9050919050565b612bd7848484846130a1565b6001811115612c1b576040517f08c379a0000000000000000000000000000000000000000000000000000000008152600401612c1290614f32565b60405180910390fd5b6000829050600073ffffffffffffffffffffffffffffffffffffffff168573ffffffffffffffffffffffffffffffffffffffff1603612c6257612c5d816130a7565b612ca1565b8373ffffffffffffffffffffffffffffffffffffffff168573ffffffffffffffffffffffffffffffffffffffff1614612ca057612c9f85826130f0565b5b5b600073ffffffffffffffffffffffffffffffffffffffff168473ffffffffffffffffffffffffffffffffffffffff1603612ce357612cde8161325d565b612d22565b8473ffffffffffffffffffffffffffffffffffffffff168473ffffffffffffffffffffffffffffffffffffffff1614612d2157612d20848261332e565b5b5b5050505050565b600073ffffffffffffffffffffffffffffffffffffffff168273ffffffffffffffffffffffffffffffffffffffff1603612d98576040517f08c379a0000000000000000000000000000000000000000000000000000000008152600401612d8f90614f9e565b60405180910390fd5b612da181612274565b15612de1576040517f08c379a0000000000000000000000000000000000000000000000000000000008152600401612dd89061500a565b60405180910390fd5b612def600083836001612870565b612df881612274565b15612e38576040517f08c379a0000000000000000000000000000000000000000000000000000000008152600401612e2f9061500a565b60405180910390fd5b6001600360008473ffffffffffffffffffffffffffffffffffffffff1673ffffffffffffffffffffffffffffffffffffffff16815260200190815260200160002060008282540192505081905550816002600083815260200190815260200160002060006101000a81548173ffffffffffffffffffffffffffffffffffffffff021916908373ffffffffffffffffffffffffffffffffffffffff160217905550808273ffffffffffffffffffffffffffffffffffffffff16600073ffffffffffffffffffffffffffffffffffffffff167fddf252ad1be2c89b69c2b068fc378daa952ba7f163c4a11628f55a4df523b3ef60405160405180910390a4612f42600083836001612882565b5050565b6000808273ffffffffffffffffffffffffffffffffffffffff163b119050919050565b606060006001612f78846133ad565b01905060008167ffffffffffffffff811115612f9757612f966139ff565b5b6040519080825280601f01601f191660200182016040528015612fc95781602001600182028036833780820191505090505b509050600082602001820190505b60011561302c578080600190039150507f3031323334353637383961626364656600000000000000000000000000000000600a86061a8153600a85816130205761301f61502a565b5b04945060008503612fd7575b819350505050919050565b60007f01ffc9a7000000000000000000000000000000000000000000000000000000007bffffffffffffffffffffffffffffffffffffffffffffffffffffffff1916827bffffffffffffffffffffffffffffffffffffffffffffffffffffffff1916149050919050565b50505050565b6008805490506009600083815260200190815260200160002081905550600881908060018154018082558091505060019003906000526020600020016000909190919091505550565b600060016130fd846115af565b6131079190614389565b90506000600760008481526020019081526020016000205490508181146131ec576000600660008673ffffffffffffffffffffffffffffffffffffffff1673ffffffffffffffffffffffffffffffffffffffff168152602001908152602001600020600084815260200190815260200160002054905080600660008773ffffffffffffffffffffffffffffffffffffffff1673ffffffffffffffffffffffffffffffffffffffff168152602001908152602001600020600084815260200190815260200160002081905550816007600083815260200190815260200160002081905550505b6007600084815260200190815260200160002060009055600660008573ffffffffffffffffffffffffffffffffffffffff1673ffffffffffffffffffffffffffffffffffffffff16815260200190815260200160002060008381526020019081526020016000206000905550505050565b600060016008805490506132719190614389565b90506000600960008481526020019081526020016000205490506000600883815481106132a1576132a061432b565b5b9060005260206000200154905080600883815481106132c3576132c261432b565b5b906000526020600020018190555081600960008381526020019081526020016000208190555060096000858152602001908152602001600020600090556008805480613312576133116143bd565b5b6001900381819060005260206000200160009055905550505050565b6000613339836115af565b905081600660008573ffffffffffffffffffffffffffffffffffffffff1673ffffffffffffffffffffffffffffffffffffffff168152602001908152602001600020600083815260200190815260200160002081905550806007600084815260200190815260200160002081905550505050565b600080600090507a184f03e93ff9f4daa797ed6e38ed64bf6a1f010000000000000000831061340b577a184f03e93ff9f4daa797ed6e38ed64bf6a1f01000000000000000083816134015761340061502a565b5b0492506040810190505b6d04ee2d6d415b85acef81000000008310613448576d04ee2d6d415b85acef8100000000838161343e5761343d61502a565b5b0492506020810190505b662386f26fc10000831061347757662386f26fc10000838161346d5761346c61502a565b5b0492506010810190505b6305f5e10083106134a0576305f5e10083816134965761349561502a565b5b0492506008810190505b61271083106134c55761271083816134bb576134ba61502a565b5b0492506004810190505b606483106134e857606483816134de576134dd61502a565b5b0492506002810190505b600a83106134f7576001810190505b80915050919050565b6040518060c001604052806000815260200160608152602001600081526020016060815260200160608152602001606081525090565b6000604051905090565b600080fd5b600080fd5b6000819050919050565b61355d8161354a565b811461356857600080fd5b50565b60008135905061357a81613554565b92915050565b60006020828403121561359657613595613540565b5b60006135a48482850161356b565b91505092915050565b6135b68161354a565b82525050565b600081519050919050565b600082825260208201905092915050565b60005b838110156135f65780820151818401526020810190506135db565b60008484015250505050565b6000601f19601f8301169050919050565b600061361e826135bc565b61362881856135c7565b93506136388185602086016135d8565b61364181613602565b840191505092915050565b600060c08201905061366160008301896135ad565b81810360208301526136738188613613565b905061368260408301876135ad565b81810360608301526136948186613613565b905081810360808301526136a88185613613565b905081810360a08301526136bc8184613613565b9050979650505050505050565b6136d28161354a565b82525050565b600082825260208201905092915050565b60006136f4826135bc565b6136fe81856136d8565b935061370e8185602086016135d8565b61371781613602565b840191505092915050565b600060c08301600083015161373a60008601826136c9565b506020830151848203602086015261375282826136e9565b915050604083015161376760408601826136c9565b506060830151848203606086015261377f82826136e9565b9150506080830151848203608086015261379982826136e9565b91505060a083015184820360a08601526137b382826136e9565b9150508091505092915050565b600060208201905081810360008301526137da8184613722565b905092915050565b60007fffffffff0000000000000000000000000000000000000000000000000000000082169050919050565b613817816137e2565b811461382257600080fd5b50565b6000813590506138348161380e565b92915050565b6000602082840312156138505761384f613540565b5b600061385e84828501613825565b91505092915050565b60008115159050919050565b61387c81613867565b82525050565b60006020820190506138976000830184613873565b92915050565b600060208201905081810360008301526138b78184613613565b905092915050565b600073ffffffffffffffffffffffffffffffffffffffff82169050919050565b60006138ea826138bf565b9050919050565b6138fa816138df565b82525050565b600060208201905061391560008301846138f1565b92915050565b613924816138df565b811461392f57600080fd5b50565b6000813590506139418161391b565b92915050565b6000806040838503121561395e5761395d613540565b5b600061396c85828601613932565b925050602061397d8582860161356b565b9150509250929050565b600060208201905061399c60008301846135ad565b92915050565b6000806000606084860312156139bb576139ba613540565b5b60006139c986828701613932565b93505060206139da86828701613932565b92505060406139eb8682870161356b565b9150509250925092565b600080fd5b600080fd5b7f4e487b7100000000000000000000000000000000000000000000000000000000600052604160045260246000fd5b613a3782613602565b810181811067ffffffffffffffff82111715613a5657613a556139ff565b5b80604052505050565b6000613a69613536565b9050613a758282613a2e565b919050565b600067ffffffffffffffff821115613a9557613a946139ff565b5b613a9e82613602565b9050602081019050919050565b82818337600083830152505050565b6000613acd613ac884613a7a565b613a5f565b905082815260208101848484011115613ae957613ae86139fa565b5b613af4848285613aab565b509392505050565b600082601f830112613b1157613b106139f5565b5b8135613b21848260208601613aba565b91505092915050565b600080600080600060a08688031215613b4657613b45613540565b5b600086013567ffffffffffffffff811115613b6457613b63613545565b5b613b7088828901613afc565b9550506020613b818882890161356b565b945050604086013567ffffffffffffffff811115613ba257613ba1613545565b5b613bae88828901613afc565b935050606086013567ffffffffffffffff811115613bcf57613bce613545565b5b613bdb88828901613afc565b925050608086013567ffffffffffffffff811115613bfc57613bfb613545565b5b613c0888828901613afc565b9150509295509295909350565b600060208284031215613c2b57613c2a613540565b5b6000613c3984828501613932565b91505092915050565b600081519050919050565b600082825260208201905092915050565b6000819050602082019050919050565b6000613c7a83836136c9565b60208301905092915050565b6000602082019050919050565b6000613c9e82613c42565b613ca88185613c4d565b9350613cb383613c5e565b8060005b83811015613ce4578151613ccb8882613c6e565b9750613cd683613c86565b925050600181019050613cb7565b5085935050505092915050565b60006020820190508181036000830152613d0b8184613c93565b905092915050565b613d1c81613867565b8114613d2757600080fd5b50565b600081359050613d3981613d13565b92915050565b60008060408385031215613d5657613d55613540565b5b6000613d6485828601613932565b9250506020613d7585828601613d2a565b9150509250929050565b600067ffffffffffffffff821115613d9a57613d996139ff565b5b613da382613602565b9050602081019050919050565b6000613dc3613dbe84613d7f565b613a5f565b905082815260208101848484011115613ddf57613dde6139fa565b5b613dea848285613aab565b509392505050565b600082601f830112613e0757613e066139f5565b5b8135613e17848260208601613db0565b91505092915050565b60008060008060808587031215613e3a57613e39613540565b5b6000613e4887828801613932565b9450506020613e5987828801613932565b9350506040613e6a8782880161356b565b925050606085013567ffffffffffffffff811115613e8b57613e8a613545565b5b613e9787828801613df2565b91505092959194509250565b60008060408385031215613eba57613eb9613540565b5b6000613ec885828601613932565b9250506020613ed985828601613932565b9150509250929050565b60008060008060008060c08789031215613f0057613eff613540565b5b6000613f0e89828a0161356b565b965050602087013567ffffffffffffffff811115613f2f57613f2e613545565b5b613f3b89828a01613afc565b9550506040613f4c89828a0161356b565b945050606087013567ffffffffffffffff811115613f6d57613f6c613545565b5b613f7989828a01613afc565b935050608087013567ffffffffffffffff811115613f9a57613f99613545565b5b613fa689828a01613afc565b92505060a087013567ffffffffffffffff811115613fc757613fc6613545565b5b613fd389828a01613afc565b9150509295509295509295565b7f4e487b7100000000000000000000000000000000000000000000000000000000600052602260045260246000fd5b6000600282049050600182168061402757607f821691505b60208210810361403a57614039613fe0565b5b50919050565b7f4552433732313a20617070726f76616c20746f2063757272656e74206f776e6560008201527f7200000000000000000000000000000000000000000000000000000000000000602082015250565b600061409c6021836135c7565b91506140a782614040565b604082019050919050565b600060208201905081810360008301526140cb8161408f565b9050919050565b7f4552433732313a20617070726f76652063616c6c6572206973206e6f7420746f60008201527f6b656e206f776e6572206f7220617070726f76656420666f7220616c6c000000602082015250565b600061412e603d836135c7565b9150614139826140d2565b604082019050919050565b6000602082019050818103600083015261415d81614121565b9050919050565b7f4552433732313a2063616c6c6572206973206e6f7420746f6b656e206f776e6560008201527f72206f7220617070726f76656400000000000000000000000000000000000000602082015250565b60006141c0602d836135c7565b91506141cb82614164565b604082019050919050565b600060208201905081810360008301526141ef816141b3565b9050919050565b7f546f6b656e20494420646f6573206e6f74206578697374000000000000000000600082015250565b600061422c6017836135c7565b9150614237826141f6565b602082019050919050565b6000602082019050818103600083015261425b8161421f565b9050919050565b600060608201905061427760008301866138f1565b61428460208301856138f1565b61429160408301846135ad565b949350505050565b7f455243373231456e756d657261626c653a206f776e657220696e646578206f7560008201527f74206f6620626f756e6473000000000000000000000000000000000000000000602082015250565b60006142f5602b836135c7565b915061430082614299565b604082019050919050565b60006020820190508181036000830152614324816142e8565b9050919050565b7f4e487b7100000000000000000000000000000000000000000000000000000000600052603260045260246000fd5b7f4e487b7100000000000000000000000000000000000000000000000000000000600052601160045260246000fd5b60006143948261354a565b915061439f8361354a565b92508282039050818111156143b7576143b661435a565b5b92915050565b7f4e487b7100000000000000000000000000000000000000000000000000000000600052603160045260246000fd5b60006143f78261354a565b91507fffffffffffffffffffffffffffffffffffffffffffffffffffffffffffffffff82036144295761442861435a565b5b600182019050919050565b60008190508160005260206000209050919050565b60006020601f8301049050919050565b600082821b905092915050565b6000600883026144967fffffffffffffffffffffffffffffffffffffffffffffffffffffffffffffffff82614459565b6144a08683614459565b95508019841693508086168417925050509392505050565b6000819050919050565b60006144dd6144d86144d38461354a565b6144b8565b61354a565b9050919050565b6000819050919050565b6144f7836144c2565b61450b614503826144e4565b848454614466565b825550505050565b600090565b614520614513565b61452b8184846144ee565b505050565b5b8181101561454f57614544600082614518565b600181019050614531565b5050565b601f8211156145945761456581614434565b61456e84614449565b8101602085101561457d578190505b61459161458985614449565b830182614530565b50505b505050565b600082821c905092915050565b60006145b760001984600802614599565b1980831691505092915050565b60006145d083836145a6565b9150826002028217905092915050565b6145e9826135bc565b67ffffffffffffffff811115614602576146016139ff565b5b61460c825461400f565b614617828285614553565b600060209050601f83116001811461464a5760008415614638578287015190505b61464285826145c4565b8655506146aa565b601f19841661465886614434565b60005b828110156146805784890151825560018201915060208501945060208101905061465b565b8683101561469d5784890151614699601f8916826145a6565b8355505b6001600288020188555050505b505050505050565b600060e0820190506146c7600083018a6138f1565b6146d460208301896135ad565b81810360408301526146e68188613613565b90506146f560608301876135ad565b81810360808301526147078186613613565b905081810360a083015261471b8185613613565b905081810360c083015261472f8184613613565b905098975050505050505050565b7f455243373231456e756d657261626c653a20676c6f62616c20696e646578206f60008201527f7574206f6620626f756e64730000000000000000000000000000000000000000602082015250565b6000614799602c836135c7565b91506147a48261473d565b604082019050919050565b600060208201905081810360008301526147c88161478c565b9050919050565b7f4552433732313a20696e76616c696420746f6b656e2049440000000000000000600082015250565b60006148056018836135c7565b9150614810826147cf565b602082019050919050565b60006020820190508181036000830152614834816147f8565b9050919050565b7f4552433732313a2061646472657373207a65726f206973206e6f74206120766160008201527f6c6964206f776e65720000000000000000000000000000000000000000000000602082015250565b60006148976029836135c7565b91506148a28261483b565b604082019050919050565b600060208201905081810360008301526148c68161488a565b9050919050565b7f596f7520617265206e6f7420746865206f776e6572206f662074686973204e4660008201527f5400000000000000000000000000000000000000000000000000000000000000602082015250565b60006149296021836135c7565b9150614934826148cd565b604082019050919050565b600060208201905081810360008301526149588161491c565b9050919050565b7f4e465420697320616c726561647920666f722073616c65000000000000000000600082015250565b60006149956017836135c7565b91506149a08261495f565b602082019050919050565b600060208201905081810360008301526149c481614988565b9050919050565b7f4f776e61626c653a206e6577206f776e657220697320746865207a65726f206160008201527f6464726573730000000000000000000000000000000000000000000000000000602082015250565b6000614a276026836135c7565b9150614a32826149cb565b604082019050919050565b60006020820190508181036000830152614a5681614a1a565b9050919050565b7f4552433732313a207472616e736665722066726f6d20696e636f72726563742060008201527f6f776e6572000000000000000000000000000000000000000000000000000000602082015250565b6000614ab96025836135c7565b9150614ac482614a5d565b604082019050919050565b60006020820190508181036000830152614ae881614aac565b9050919050565b7f4552433732313a207472616e7366657220746f20746865207a65726f2061646460008201527f7265737300000000000000000000000000000000000000000000000000000000602082015250565b6000614b4b6024836135c7565b9150614b5682614aef565b604082019050919050565b60006020820190508181036000830152614b7a81614b3e565b9050919050565b7f45524337323155524953746f726167653a2055524920736574206f66206e6f6e60008201527f6578697374656e7420746f6b656e000000000000000000000000000000000000602082015250565b6000614bdd602e836135c7565b9150614be882614b81565b604082019050919050565b60006020820190508181036000830152614c0c81614bd0565b9050919050565b7f4f776e61626c653a2063616c6c6572206973206e6f7420746865206f776e6572600082015250565b6000614c496020836135c7565b9150614c5482614c13565b602082019050919050565b60006020820190508181036000830152614c7881614c3c565b9050919050565b7f4552433732313a20617070726f766520746f2063616c6c657200000000000000600082015250565b6000614cb56019836135c7565b9150614cc082614c7f565b602082019050919050565b60006020820190508181036000830152614ce481614ca8565b9050919050565b7f4552433732313a207472616e7366657220746f206e6f6e20455243373231526560008201527f63656976657220696d706c656d656e7465720000000000000000000000000000602082015250565b6000614d476032836135c7565b9150614d5282614ceb565b604082019050919050565b60006020820190508181036000830152614d7681614d3a565b9050919050565b600081905092915050565b6000614d93826135bc565b614d9d8185614d7d565b9350614dad8185602086016135d8565b80840191505092915050565b6000614dc58285614d88565b9150614dd18284614d88565b91508190509392505050565b600081519050919050565b600082825260208201905092915050565b6000614e0482614ddd565b614e0e8185614de8565b9350614e1e8185602086016135d8565b614e2781613602565b840191505092915050565b6000608082019050614e4760008301876138f1565b614e5460208301866138f1565b614e6160408301856135ad565b8181036060830152614e738184614df9565b905095945050505050565b600081519050614e8d8161380e565b92915050565b600060208284031215614ea957614ea8613540565b5b6000614eb784828501614e7e565b91505092915050565b7f455243373231456e756d657261626c653a20636f6e736563757469766520747260008201527f616e7366657273206e6f7420737570706f727465640000000000000000000000602082015250565b6000614f1c6035836135c7565b9150614f2782614ec0565b604082019050919050565b60006020820190508181036000830152614f4b81614f0f565b9050919050565b7f4552433732313a206d696e7420746f20746865207a65726f2061646472657373600082015250565b6000614f886020836135c7565b9150614f9382614f52565b602082019050919050565b60006020820190508181036000830152614fb781614f7b565b9050919050565b7f4552433732313a20746f6b656e20616c7265616479206d696e74656400000000600082015250565b6000614ff4601c836135c7565b9150614fff82614fbe565b602082019050919050565b6000602082019050818103600083015261502381614fe7565b9050919050565b7f4e487b7100000000000000000000000000000000000000000000000000000000600052601260045260246000fdfea2646970667358221220af32c0813544adacb2f69270743400a903e83ac667bb229ad76385df77a5db8f64736f6c63430008120033",
	"immutableReferences": {},
	"source": "// SPDX-License-Identifier: MIT\npragma solidity ^0.8.0;\n\nimport \"@openzeppelin/contracts/token/ERC721/ERC721.sol\";\nimport \"@openzeppelin/contracts/utils/Counters.sol\";\nimport \"@openzeppelin/contracts/token/ERC721/extensions/ERC721URIStorage.sol\";\nimport \"@openzeppelin/contracts/token/ERC721/extensions/ERC721Enumerable.sol\";\nimport \"@openzeppelin/contracts/access/Ownable.sol\";\n\n\n\ncontract NFT is ERC721 ,ERC721Enumerable,Ownable ,ERC721URIStorage{\n    using Counters for Counters.Counter;\n    Counters.Counter private currentTokenId;\n    string public baseTokenURI;\n  \n\n    struct Details{\n        uint tokenId;\n        string name;\n        uint price;\n        string desc;\n        string tokenUri;\n        string metadataTokenUri;\n    } \n\n    mapping(uint => Details) public DetailsOfTokenID;\n    mapping(address => uint[]) public sellingTokenIdsByAddress;\n    mapping(address => uint[]) public TokenIdsByAddress;\n    mapping(uint => bool) public isNftListed;\n\n\n\n    event mintevent(address addOfSender, uint256 id , string name , uint price,string description,string tokenUri ,string metadataTokenUri);\n    event buyNftEvent(address FromAddress,address toAddreess, uint256 id );\n    event metadataUpdated(uint tokenId, string newName,uint256 newPrice,string newDescription,string newImg,string metadataTokenUri);\n\n    constructor() ERC721(\"NFTTutorial\", \"NFT\") {}\n\n    function _beforeTokenTransfer(address from, address to, uint256 tokenId, uint256 batchSize) internal override(ERC721, ERC721Enumerable)\n    {\n        super._beforeTokenTransfer(from, to, tokenId, batchSize);\n    }\n\n    function supportsInterface(bytes4 interfaceId) public view override(ERC721, ERC721Enumerable,ERC721URIStorage) returns (bool) {\n        return super.supportsInterface(interfaceId);\n    }\n\n    function tokenURI(uint256 tokenId) public view override(ERC721URIStorage, ERC721) returns (string memory) {\n        return super.tokenURI(tokenId);\n    }\n\n    function mintTo(string memory _name, uint _price, string memory _description, string memory _tokenUri ,string memory _metadataTokenUri) public returns (uint256)\n    {\n        currentTokenId.increment();\n        uint256 newItemId = currentTokenId.current();\n        DetailsOfTokenID[newItemId]=Details(newItemId,_name,_price,_description,_tokenUri,_metadataTokenUri);\n        _safeMint(msg.sender, newItemId);\n        _setTokenURI(newItemId, _metadataTokenUri);\n        TokenIdsByAddress[msg.sender].push(newItemId);\n        emit mintevent(msg.sender,newItemId,_name,_price,_description,_tokenUri,_metadataTokenUri);\n        return newItemId;\n    }\n\n    function selldata(uint id) public   \n    {\n        require(_ownerOf(id) == msg.sender, \"You are not the owner of this NFT\");\n        require(isNftListed[id]!=true, \"NFT is already for sale\");\n        _approve(address(this),id);\n        sellingTokenIdsByAddress[msg.sender].push(id);\n        isNftListed[id]=true;\n\n    }\n\n    function getsellingTokenIdsByAddress(address user) public view returns (uint[] memory) {\n    return sellingTokenIdsByAddress[user];\n    }\n\n    function getTokenIdsByAddress(address user) public view returns (uint[] memory) {\n    return TokenIdsByAddress[user];\n    }\n\n   function removeSell(address add, uint _ID) public {\n    uint[] storage tokenIds = sellingTokenIdsByAddress[add];\n    for (uint i = 0; i < tokenIds.length; i++) {\n        if (tokenIds[i] == _ID) {\n            if (i < tokenIds.length - 1) {\n                tokenIds[i] = tokenIds[tokenIds.length - 1];\n            }\n            tokenIds.pop(); \n            isNftListed[_ID]=false;\n            return; \n        }\n        }\n    }\n    function buyNft(uint id) public payable \n    {\n        require(_exists(id), \"Token ID does not exist\");\n        address fromAddress=_ownerOf(id);\n        _transfer(fromAddress, msg.sender, id);\n        removeSell(fromAddress,id);\n        emit buyNftEvent(fromAddress,msg.sender,id);\n    }\n\n      function getData (uint _id) public view returns(Details memory){\n        return DetailsOfTokenID[_id];\n    }\n\n    function _burn(uint256 tokenId) internal override(ERC721URIStorage, ERC721) {\n        super._burn(tokenId);\n    }\n\n\n    function getOwnerAddress() public view returns (address) {\n            return owner();\n        }\n\n    function Update(uint _tokenId,string memory _name, uint _price, string memory _description, string memory _tokenUri ,string memory _metadataTokenUri) public onlyOwner returns (string memory)\n    {\n        require(DetailsOfTokenID[_tokenId].price > 0, \"Token ID does not exist\");\n        DetailsOfTokenID[_tokenId]=Details(_tokenId,_name,_price,_description,_tokenUri,_metadataTokenUri);\n        _setTokenURI(_tokenId, _metadataTokenUri);\n        emit metadataUpdated(_tokenId,_name,_price,_description,_tokenUri,_metadataTokenUri);\n        return _metadataTokenUri;\n    }    \n \n}",
	"sourcePath": "/home/hp/Documents/nency/nft_marketPlace/contracts/NFT.sol",
	"compiler": {
		"name": "solc",
		"version": "0.8.18+commit.87f61d96.Emscripten.clang"
	},
	"schemaVersion": "3.4.11",
	"updatedAt": "2023-10-12T09:05:17.673Z",
	"networkType": "ethereum",
	"devdoc": {
		"events": {
			"Approval(address,address,uint256)": {
				"details": "Emitted when `owner` enables `approved` to manage the `tokenId` token."
			},
			"ApprovalForAll(address,address,bool)": {
				"details": "Emitted when `owner` enables or disables (`approved`) `operator` to manage all of its assets."
			},
			"BatchMetadataUpdate(uint256,uint256)": {
				"details": "This event emits when the metadata of a range of tokens is changed. So that the third-party platforms such as NFT market could timely update the images and related attributes of the NFTs."
			},
			"MetadataUpdate(uint256)": {
				"details": "This event emits when the metadata of a token is changed. So that the third-party platforms such as NFT market could timely update the images and related attributes of the NFT."
			},
			"Transfer(address,address,uint256)": {
				"details": "Emitted when `tokenId` token is transferred from `from` to `to`."
			}
		},
		"kind": "dev",
		"methods": {
			"approve(address,uint256)": {
				"details": "See {IERC721-approve}."
			},
			"balanceOf(address)": {
				"details": "See {IERC721-balanceOf}."
			},
			"getApproved(uint256)": {
				"details": "See {IERC721-getApproved}."
			},
			"isApprovedForAll(address,address)": {
				"details": "See {IERC721-isApprovedForAll}."
			},
			"name()": {
				"details": "See {IERC721Metadata-name}."
			},
			"owner()": {
				"details": "Returns the address of the current owner."
			},
			"ownerOf(uint256)": {
				"details": "See {IERC721-ownerOf}."
			},
			"renounceOwnership()": {
				"details": "Leaves the contract without owner. It will not be possible to call `onlyOwner` functions. Can only be called by the current owner. NOTE: Renouncing ownership will leave the contract without an owner, thereby disabling any functionality that is only available to the owner."
			},
			"safeTransferFrom(address,address,uint256)": {
				"details": "See {IERC721-safeTransferFrom}."
			},
			"safeTransferFrom(address,address,uint256,bytes)": {
				"details": "See {IERC721-safeTransferFrom}."
			},
			"setApprovalForAll(address,bool)": {
				"details": "See {IERC721-setApprovalForAll}."
			},
			"symbol()": {
				"details": "See {IERC721Metadata-symbol}."
			},
			"tokenByIndex(uint256)": {
				"details": "See {IERC721Enumerable-tokenByIndex}."
			},
			"tokenOfOwnerByIndex(address,uint256)": {
				"details": "See {IERC721Enumerable-tokenOfOwnerByIndex}."
			},
			"totalSupply()": {
				"details": "See {IERC721Enumerable-totalSupply}."
			},
			"transferFrom(address,address,uint256)": {
				"details": "See {IERC721-transferFrom}."
			},
			"transferOwnership(address)": {
				"details": "Transfers ownership of the contract to a new account (`newOwner`). Can only be called by the current owner."
			}
		},
		"version": 1
	},
	"userdoc": {
		"kind": "user",
		"methods": {},
		"version": 1
	}
}