{
  "contractName": "NFT",
  "abi": [
    {
      "inputs": [],
      "stateMutability": "nonpayable",
      "type": "constructor"
    },
    {
      "anonymous": false,
      "inputs": [
        {
          "indexed": true,
          "internalType": "address",
          "name": "owner",
          "type": "address"
        },
        {
          "indexed": true,
          "internalType": "address",
          "name": "approved",
          "type": "address"
        },
        {
          "indexed": true,
          "internalType": "uint256",
          "name": "tokenId",
          "type": "uint256"
        }
      ],
      "name": "Approval",
      "type": "event"
    },
    {
      "anonymous": false,
      "inputs": [
        {
          "indexed": true,
          "internalType": "address",
          "name": "owner",
          "type": "address"
        },
        {
          "indexed": true,
          "internalType": "address",
          "name": "operator",
          "type": "address"
        },
        {
          "indexed": false,
          "internalType": "bool",
          "name": "approved",
          "type": "bool"
        }
      ],
      "name": "ApprovalForAll",
      "type": "event"
    },
    {
      "anonymous": false,
      "inputs": [
        {
          "indexed": true,
          "internalType": "address",
          "name": "from",
          "type": "address"
        },
        {
          "indexed": true,
          "internalType": "address",
          "name": "to",
          "type": "address"
        },
        {
          "indexed": true,
          "internalType": "uint256",
          "name": "tokenId",
          "type": "uint256"
        }
      ],
      "name": "Transfer",
      "type": "event"
    },
    {
      "anonymous": false,
      "inputs": [
        {
          "indexed": false,
          "internalType": "address",
          "name": "addOfSender",
          "type": "address"
        },
        {
          "indexed": false,
          "internalType": "uint256",
          "name": "id",
          "type": "uint256"
        }
      ],
      "name": "mintevent",
      "type": "event"
    },
    {
      "inputs": [
        {
          "internalType": "address",
          "name": "to",
          "type": "address"
        },
        {
          "internalType": "uint256",
          "name": "tokenId",
          "type": "uint256"
        }
      ],
      "name": "approve",
      "outputs": [],
      "stateMutability": "nonpayable",
      "type": "function"
    },
    {
      "inputs": [
        {
          "internalType": "address",
          "name": "owner",
          "type": "address"
        }
      ],
      "name": "balanceOf",
      "outputs": [
        {
          "internalType": "uint256",
          "name": "",
          "type": "uint256"
        }
      ],
      "stateMutability": "view",
      "type": "function",
      "constant": true
    },
    {
      "inputs": [],
      "name": "baseTokenURI",
      "outputs": [
        {
          "internalType": "string",
          "name": "",
          "type": "string"
        }
      ],
      "stateMutability": "view",
      "type": "function",
      "constant": true
    },
    {
      "inputs": [
        {
          "internalType": "uint256",
          "name": "tokenId",
          "type": "uint256"
        }
      ],
      "name": "getApproved",
      "outputs": [
        {
          "internalType": "address",
          "name": "",
          "type": "address"
        }
      ],
      "stateMutability": "view",
      "type": "function",
      "constant": true
    },
    {
      "inputs": [
        {
          "internalType": "address",
          "name": "owner",
          "type": "address"
        },
        {
          "internalType": "address",
          "name": "operator",
          "type": "address"
        }
      ],
      "name": "isApprovedForAll",
      "outputs": [
        {
          "internalType": "bool",
          "name": "",
          "type": "bool"
        }
      ],
      "stateMutability": "view",
      "type": "function",
      "constant": true
    },
    {
      "inputs": [],
      "name": "name",
      "outputs": [
        {
          "internalType": "string",
          "name": "",
          "type": "string"
        }
      ],
      "stateMutability": "view",
      "type": "function",
      "constant": true
    },
    {
      "inputs": [
        {
          "internalType": "uint256",
          "name": "tokenId",
          "type": "uint256"
        }
      ],
      "name": "ownerOf",
      "outputs": [
        {
          "internalType": "address",
          "name": "",
          "type": "address"
        }
      ],
      "stateMutability": "view",
      "type": "function",
      "constant": true
    },
    {
      "inputs": [
        {
          "internalType": "address",
          "name": "from",
          "type": "address"
        },
        {
          "internalType": "address",
          "name": "to",
          "type": "address"
        },
        {
          "internalType": "uint256",
          "name": "tokenId",
          "type": "uint256"
        }
      ],
      "name": "safeTransferFrom",
      "outputs": [],
      "stateMutability": "nonpayable",
      "type": "function"
    },
    {
      "inputs": [
        {
          "internalType": "address",
          "name": "from",
          "type": "address"
        },
        {
          "internalType": "address",
          "name": "to",
          "type": "address"
        },
        {
          "internalType": "uint256",
          "name": "tokenId",
          "type": "uint256"
        },
        {
          "internalType": "bytes",
          "name": "data",
          "type": "bytes"
        }
      ],
      "name": "safeTransferFrom",
      "outputs": [],
      "stateMutability": "nonpayable",
      "type": "function"
    },
    {
      "inputs": [
        {
          "internalType": "address",
          "name": "operator",
          "type": "address"
        },
        {
          "internalType": "bool",
          "name": "approved",
          "type": "bool"
        }
      ],
      "name": "setApprovalForAll",
      "outputs": [],
      "stateMutability": "nonpayable",
      "type": "function"
    },
    {
      "inputs": [
        {
          "internalType": "bytes4",
          "name": "interfaceId",
          "type": "bytes4"
        }
      ],
      "name": "supportsInterface",
      "outputs": [
        {
          "internalType": "bool",
          "name": "",
          "type": "bool"
        }
      ],
      "stateMutability": "view",
      "type": "function",
      "constant": true
    },
    {
      "inputs": [],
      "name": "symbol",
      "outputs": [
        {
          "internalType": "string",
          "name": "",
          "type": "string"
        }
      ],
      "stateMutability": "view",
      "type": "function",
      "constant": true
    },
    {
      "inputs": [
        {
          "internalType": "uint256",
          "name": "tokenId",
          "type": "uint256"
        }
      ],
      "name": "tokenURI",
      "outputs": [
        {
          "internalType": "string",
          "name": "",
          "type": "string"
        }
      ],
      "stateMutability": "view",
      "type": "function",
      "constant": true
    },
    {
      "inputs": [
        {
          "internalType": "address",
          "name": "from",
          "type": "address"
        },
        {
          "internalType": "address",
          "name": "to",
          "type": "address"
        },
        {
          "internalType": "uint256",
          "name": "tokenId",
          "type": "uint256"
        }
      ],
      "name": "transferFrom",
      "outputs": [],
      "stateMutability": "nonpayable",
      "type": "function"
    },
    {
      "inputs": [
        {
          "internalType": "address",
          "name": "recipient",
          "type": "address"
        }
      ],
      "name": "mintTo",
      "outputs": [
        {
          "internalType": "uint256",
          "name": "",
          "type": "uint256"
        }
      ],
      "stateMutability": "nonpayable",
      "type": "function"
    },
    {
      "inputs": [],
      "name": "get",
      "outputs": [
        {
          "internalType": "string",
          "name": "",
          "type": "string"
        }
      ],
      "stateMutability": "view",
      "type": "function",
      "constant": true
    },
    {
      "inputs": [
        {
          "internalType": "string",
          "name": "_baseTokenURI",
          "type": "string"
        }
      ],
      "name": "setBaseTokenURI",
      "outputs": [],
      "stateMutability": "nonpayable",
      "type": "function"
    }
  ],
  "bytecode": "0x60806040523480156200001157600080fd5b506040518060400160405280600b81526020017f4e46545475746f7269616c0000000000000000000000000000000000000000008152506040518060400160405280600381526020017f4e4654000000000000000000000000000000000000000000000000000000000081525081600090816200008f919062000324565b508060019081620000a1919062000324565b5050506200040b565b600081519050919050565b7f4e487b7100000000000000000000000000000000000000000000000000000000600052604160045260246000fd5b7f4e487b7100000000000000000000000000000000000000000000000000000000600052602260045260246000fd5b600060028204905060018216806200012c57607f821691505b602082108103620001425762000141620000e4565b5b50919050565b60008190508160005260206000209050919050565b60006020601f8301049050919050565b600082821b905092915050565b600060088302620001ac7fffffffffffffffffffffffffffffffffffffffffffffffffffffffffffffffff826200016d565b620001b886836200016d565b95508019841693508086168417925050509392505050565b6000819050919050565b6000819050919050565b600062000205620001ff620001f984620001d0565b620001da565b620001d0565b9050919050565b6000819050919050565b6200022183620001e4565b6200023962000230826200020c565b8484546200017a565b825550505050565b600090565b6200025062000241565b6200025d81848462000216565b505050565b5b8181101562000285576200027960008262000246565b60018101905062000263565b5050565b601f821115620002d4576200029e8162000148565b620002a9846200015d565b81016020851015620002b9578190505b620002d1620002c8856200015d565b83018262000262565b50505b505050565b600082821c905092915050565b6000620002f960001984600802620002d9565b1980831691505092915050565b6000620003148383620002e6565b9150826002028217905092915050565b6200032f82620000aa565b67ffffffffffffffff8111156200034b576200034a620000b5565b5b62000357825462000113565b6200036482828562000289565b600060209050601f8311600181146200039c576000841562000387578287015190505b62000393858262000306565b86555062000403565b601f198416620003ac8662000148565b60005b82811015620003d657848901518255600182019150602085019450602081019050620003af565b86831015620003f65784890151620003f2601f891682620002e6565b8355505b6001600288020188555050505b505050505050565b612a98806200041b6000396000f3fe608060405234801561001057600080fd5b506004361061010b5760003560e01c80636d4ce63c116100a2578063a22cb46511610071578063a22cb465146102ca578063b88d4fde146102e6578063c87b56dd14610302578063d547cfb714610332578063e985e9c5146103505761010b565b80636d4ce63c1461022e57806370a082311461024c578063755edd171461027c57806395d89b41146102ac5761010b565b806323b872dd116100de57806323b872dd146101aa57806330176e13146101c657806342842e0e146101e25780636352211e146101fe5761010b565b806301ffc9a71461011057806306fdde0314610140578063081812fc1461015e578063095ea7b31461018e575b600080fd5b61012a60048036038101906101259190611a03565b610380565b6040516101379190611a4b565b60405180910390f35b610148610462565b6040516101559190611af6565b60405180910390f35b61017860048036038101906101739190611b4e565b6104f4565b6040516101859190611bbc565b60405180910390f35b6101a860048036038101906101a39190611c03565b61053a565b005b6101c460048036038101906101bf9190611c43565b610651565b005b6101e060048036038101906101db9190611dcb565b6106b1565b005b6101fc60048036038101906101f79190611c43565b6106c4565b005b61021860048036038101906102139190611b4e565b6106e4565b6040516102259190611bbc565b60405180910390f35b61023661076a565b6040516102439190611af6565b60405180910390f35b61026660048036038101906102619190611e14565b610779565b6040516102739190611e50565b60405180910390f35b61029660048036038101906102919190611e14565b610830565b6040516102a39190611e50565b60405180910390f35b6102b4610896565b6040516102c19190611af6565b60405180910390f35b6102e460048036038101906102df9190611e97565b610928565b005b61030060048036038101906102fb9190611f78565b61093e565b005b61031c60048036038101906103179190611b4e565b6109a0565b6040516103299190611af6565b60405180910390f35b61033a610a08565b6040516103479190611af6565b60405180910390f35b61036a60048036038101906103659190611ffb565b610a96565b6040516103779190611a4b565b60405180910390f35b60007f80ac58cd000000000000000000000000000000000000000000000000000000007bffffffffffffffffffffffffffffffffffffffffffffffffffffffff1916827bffffffffffffffffffffffffffffffffffffffffffffffffffffffff1916148061044b57507f5b5e139f000000000000000000000000000000000000000000000000000000007bffffffffffffffffffffffffffffffffffffffffffffffffffffffff1916827bffffffffffffffffffffffffffffffffffffffffffffffffffffffff1916145b8061045b575061045a82610b2a565b5b9050919050565b6060600080546104719061206a565b80601f016020809104026020016040519081016040528092919081815260200182805461049d9061206a565b80156104ea5780601f106104bf576101008083540402835291602001916104ea565b820191906000526020600020905b8154815290600101906020018083116104cd57829003601f168201915b5050505050905090565b60006104ff82610b94565b6004600083815260200190815260200160002060009054906101000a900473ffffffffffffffffffffffffffffffffffffffff169050919050565b6000610545826106e4565b90508073ffffffffffffffffffffffffffffffffffffffff168373ffffffffffffffffffffffffffffffffffffffff16036105b5576040517f08c379a00000000000000000000000000000000000000000000000000000000081526004016105ac9061210d565b60405180910390fd5b8073ffffffffffffffffffffffffffffffffffffffff166105d4610bdf565b73ffffffffffffffffffffffffffffffffffffffff1614806106035750610602816105fd610bdf565b610a96565b5b610642576040517f08c379a00000000000000000000000000000000000000000000000000000000081526004016106399061219f565b60405180910390fd5b61064c8383610be7565b505050565b61066261065c610bdf565b82610ca0565b6106a1576040517f08c379a000000000000000000000000000000000000000000000000000000000815260040161069890612231565b60405180910390fd5b6106ac838383610d35565b505050565b80600790816106c091906123fd565b5050565b6106df8383836040518060200160405280600081525061093e565b505050565b6000806106f08361102e565b9050600073ffffffffffffffffffffffffffffffffffffffff168173ffffffffffffffffffffffffffffffffffffffff1603610761576040517f08c379a00000000000000000000000000000000000000000000000000000000081526004016107589061251b565b60405180910390fd5b80915050919050565b606061077461106b565b905090565b60008073ffffffffffffffffffffffffffffffffffffffff168273ffffffffffffffffffffffffffffffffffffffff16036107e9576040517f08c379a00000000000000000000000000000000000000000000000000000000081526004016107e0906125ad565b60405180910390fd5b600360008373ffffffffffffffffffffffffffffffffffffffff1673ffffffffffffffffffffffffffffffffffffffff168152602001908152602001600020549050919050565b600061083c60066110fd565b60006108486006611113565b90506108548382611121565b7ff26177e8beb5685e196f245a368b55447edb1db689c2ee31d11026345db1581233826040516108859291906125cd565b60405180910390a180915050919050565b6060600180546108a59061206a565b80601f01602080910402602001604051908101604052809291908181526020018280546108d19061206a565b801561091e5780601f106108f35761010080835404028352916020019161091e565b820191906000526020600020905b81548152906001019060200180831161090157829003601f168201915b5050505050905090565b61093a610933610bdf565b838361113f565b5050565b61094f610949610bdf565b83610ca0565b61098e576040517f08c379a000000000000000000000000000000000000000000000000000000000815260040161098590612231565b60405180910390fd5b61099a848484846112ab565b50505050565b60606109ab82610b94565b60006109b561106b565b905060008151116109d55760405180602001604052806000815250610a00565b806109df84611307565b6040516020016109f0929190612632565b6040516020818303038152906040525b915050919050565b60078054610a159061206a565b80601f0160208091040260200160405190810160405280929190818152602001828054610a419061206a565b8015610a8e5780601f10610a6357610100808354040283529160200191610a8e565b820191906000526020600020905b815481529060010190602001808311610a7157829003601f168201915b505050505081565b6000600560008473ffffffffffffffffffffffffffffffffffffffff1673ffffffffffffffffffffffffffffffffffffffff16815260200190815260200160002060008373ffffffffffffffffffffffffffffffffffffffff1673ffffffffffffffffffffffffffffffffffffffff16815260200190815260200160002060009054906101000a900460ff16905092915050565b60007f01ffc9a7000000000000000000000000000000000000000000000000000000007bffffffffffffffffffffffffffffffffffffffffffffffffffffffff1916827bffffffffffffffffffffffffffffffffffffffffffffffffffffffff1916149050919050565b610b9d816113d5565b610bdc576040517f08c379a0000000000000000000000000000000000000000000000000000000008152600401610bd39061251b565b60405180910390fd5b50565b600033905090565b816004600083815260200190815260200160002060006101000a81548173ffffffffffffffffffffffffffffffffffffffff021916908373ffffffffffffffffffffffffffffffffffffffff160217905550808273ffffffffffffffffffffffffffffffffffffffff16610c5a836106e4565b73ffffffffffffffffffffffffffffffffffffffff167f8c5be1e5ebec7d5bd14f71427d1e84f3dd0314c0f7b2291e5b200ac8c7c3b92560405160405180910390a45050565b600080610cac836106e4565b90508073ffffffffffffffffffffffffffffffffffffffff168473ffffffffffffffffffffffffffffffffffffffff161480610cee5750610ced8185610a96565b5b80610d2c57508373ffffffffffffffffffffffffffffffffffffffff16610d14846104f4565b73ffffffffffffffffffffffffffffffffffffffff16145b91505092915050565b8273ffffffffffffffffffffffffffffffffffffffff16610d55826106e4565b73ffffffffffffffffffffffffffffffffffffffff1614610dab576040517f08c379a0000000000000000000000000000000000000000000000000000000008152600401610da2906126c8565b60405180910390fd5b600073ffffffffffffffffffffffffffffffffffffffff168273ffffffffffffffffffffffffffffffffffffffff1603610e1a576040517f08c379a0000000000000000000000000000000000000000000000000000000008152600401610e119061275a565b60405180910390fd5b610e278383836001611416565b8273ffffffffffffffffffffffffffffffffffffffff16610e47826106e4565b73ffffffffffffffffffffffffffffffffffffffff1614610e9d576040517f08c379a0000000000000000000000000000000000000000000000000000000008152600401610e94906126c8565b60405180910390fd5b6004600082815260200190815260200160002060006101000a81549073ffffffffffffffffffffffffffffffffffffffff02191690556001600360008573ffffffffffffffffffffffffffffffffffffffff1673ffffffffffffffffffffffffffffffffffffffff168152602001908152602001600020600082825403925050819055506001600360008473ffffffffffffffffffffffffffffffffffffffff1673ffffffffffffffffffffffffffffffffffffffff16815260200190815260200160002060008282540192505081905550816002600083815260200190815260200160002060006101000a81548173ffffffffffffffffffffffffffffffffffffffff021916908373ffffffffffffffffffffffffffffffffffffffff160217905550808273ffffffffffffffffffffffffffffffffffffffff168473ffffffffffffffffffffffffffffffffffffffff167fddf252ad1be2c89b69c2b068fc378daa952ba7f163c4a11628f55a4df523b3ef60405160405180910390a4611029838383600161141c565b505050565b60006002600083815260200190815260200160002060009054906101000a900473ffffffffffffffffffffffffffffffffffffffff169050919050565b60606007805461107a9061206a565b80601f01602080910402602001604051908101604052809291908181526020018280546110a69061206a565b80156110f35780601f106110c8576101008083540402835291602001916110f3565b820191906000526020600020905b8154815290600101906020018083116110d657829003601f168201915b5050505050905090565b6001816000016000828254019250508190555050565b600081600001549050919050565b61113b828260405180602001604052806000815250611422565b5050565b8173ffffffffffffffffffffffffffffffffffffffff168373ffffffffffffffffffffffffffffffffffffffff16036111ad576040517f08c379a00000000000000000000000000000000000000000000000000000000081526004016111a4906127c6565b60405180910390fd5b80600560008573ffffffffffffffffffffffffffffffffffffffff1673ffffffffffffffffffffffffffffffffffffffff16815260200190815260200160002060008473ffffffffffffffffffffffffffffffffffffffff1673ffffffffffffffffffffffffffffffffffffffff16815260200190815260200160002060006101000a81548160ff0219169083151502179055508173ffffffffffffffffffffffffffffffffffffffff168373ffffffffffffffffffffffffffffffffffffffff167f17307eab39ab6107e8899845ad3d59bd9653f200f220920489ca2b5937696c318360405161129e9190611a4b565b60405180910390a3505050565b6112b6848484610d35565b6112c28484848461147d565b611301576040517f08c379a00000000000000000000000000000000000000000000000000000000081526004016112f890612858565b60405180910390fd5b50505050565b60606000600161131684611604565b01905060008167ffffffffffffffff81111561133557611334611ca0565b5b6040519080825280601f01601f1916602001820160405280156113675781602001600182028036833780820191505090505b509050600082602001820190505b6001156113ca578080600190039150507f3031323334353637383961626364656600000000000000000000000000000000600a86061a8153600a85816113be576113bd612878565b5b04945060008503611375575b819350505050919050565b60008073ffffffffffffffffffffffffffffffffffffffff166113f78361102e565b73ffffffffffffffffffffffffffffffffffffffff1614159050919050565b50505050565b50505050565b61142c8383611757565b611439600084848461147d565b611478576040517f08c379a000000000000000000000000000000000000000000000000000000000815260040161146f90612858565b60405180910390fd5b505050565b600061149e8473ffffffffffffffffffffffffffffffffffffffff16611974565b156115f7578373ffffffffffffffffffffffffffffffffffffffff1663150b7a026114c7610bdf565b8786866040518563ffffffff1660e01b81526004016114e994939291906128fc565b6020604051808303816000875af192505050801561152557506040513d601f19601f82011682018060405250810190611522919061295d565b60015b6115a7573d8060008114611555576040519150601f19603f3d011682016040523d82523d6000602084013e61155a565b606091505b50600081510361159f576040517f08c379a000000000000000000000000000000000000000000000000000000000815260040161159690612858565b60405180910390fd5b805181602001fd5b63150b7a0260e01b7bffffffffffffffffffffffffffffffffffffffffffffffffffffffff1916817bffffffffffffffffffffffffffffffffffffffffffffffffffffffff1916149150506115fc565b600190505b949350505050565b600080600090507a184f03e93ff9f4daa797ed6e38ed64bf6a1f0100000000000000008310611662577a184f03e93ff9f4daa797ed6e38ed64bf6a1f010000000000000000838161165857611657612878565b5b0492506040810190505b6d04ee2d6d415b85acef8100000000831061169f576d04ee2d6d415b85acef8100000000838161169557611694612878565b5b0492506020810190505b662386f26fc1000083106116ce57662386f26fc1000083816116c4576116c3612878565b5b0492506010810190505b6305f5e10083106116f7576305f5e10083816116ed576116ec612878565b5b0492506008810190505b612710831061171c57612710838161171257611711612878565b5b0492506004810190505b6064831061173f576064838161173557611734612878565b5b0492506002810190505b600a831061174e576001810190505b80915050919050565b600073ffffffffffffffffffffffffffffffffffffffff168273ffffffffffffffffffffffffffffffffffffffff16036117c6576040517f08c379a00000000000000000000000000000000000000000000000000000000081526004016117bd906129d6565b60405180910390fd5b6117cf816113d5565b1561180f576040517f08c379a000000000000000000000000000000000000000000000000000000000815260040161180690612a42565b60405180910390fd5b61181d600083836001611416565b611826816113d5565b15611866576040517f08c379a000000000000000000000000000000000000000000000000000000000815260040161185d90612a42565b60405180910390fd5b6001600360008473ffffffffffffffffffffffffffffffffffffffff1673ffffffffffffffffffffffffffffffffffffffff16815260200190815260200160002060008282540192505081905550816002600083815260200190815260200160002060006101000a81548173ffffffffffffffffffffffffffffffffffffffff021916908373ffffffffffffffffffffffffffffffffffffffff160217905550808273ffffffffffffffffffffffffffffffffffffffff16600073ffffffffffffffffffffffffffffffffffffffff167fddf252ad1be2c89b69c2b068fc378daa952ba7f163c4a11628f55a4df523b3ef60405160405180910390a461197060008383600161141c565b5050565b6000808273ffffffffffffffffffffffffffffffffffffffff163b119050919050565b6000604051905090565b600080fd5b600080fd5b60007fffffffff0000000000000000000000000000000000000000000000000000000082169050919050565b6119e0816119ab565b81146119eb57600080fd5b50565b6000813590506119fd816119d7565b92915050565b600060208284031215611a1957611a186119a1565b5b6000611a27848285016119ee565b91505092915050565b60008115159050919050565b611a4581611a30565b82525050565b6000602082019050611a606000830184611a3c565b92915050565b600081519050919050565b600082825260208201905092915050565b60005b83811015611aa0578082015181840152602081019050611a85565b60008484015250505050565b6000601f19601f8301169050919050565b6000611ac882611a66565b611ad28185611a71565b9350611ae2818560208601611a82565b611aeb81611aac565b840191505092915050565b60006020820190508181036000830152611b108184611abd565b905092915050565b6000819050919050565b611b2b81611b18565b8114611b3657600080fd5b50565b600081359050611b4881611b22565b92915050565b600060208284031215611b6457611b636119a1565b5b6000611b7284828501611b39565b91505092915050565b600073ffffffffffffffffffffffffffffffffffffffff82169050919050565b6000611ba682611b7b565b9050919050565b611bb681611b9b565b82525050565b6000602082019050611bd16000830184611bad565b92915050565b611be081611b9b565b8114611beb57600080fd5b50565b600081359050611bfd81611bd7565b92915050565b60008060408385031215611c1a57611c196119a1565b5b6000611c2885828601611bee565b9250506020611c3985828601611b39565b9150509250929050565b600080600060608486031215611c5c57611c5b6119a1565b5b6000611c6a86828701611bee565b9350506020611c7b86828701611bee565b9250506040611c8c86828701611b39565b9150509250925092565b600080fd5b600080fd5b7f4e487b7100000000000000000000000000000000000000000000000000000000600052604160045260246000fd5b611cd882611aac565b810181811067ffffffffffffffff82111715611cf757611cf6611ca0565b5b80604052505050565b6000611d0a611997565b9050611d168282611ccf565b919050565b600067ffffffffffffffff821115611d3657611d35611ca0565b5b611d3f82611aac565b9050602081019050919050565b82818337600083830152505050565b6000611d6e611d6984611d1b565b611d00565b905082815260208101848484011115611d8a57611d89611c9b565b5b611d95848285611d4c565b509392505050565b600082601f830112611db257611db1611c96565b5b8135611dc2848260208601611d5b565b91505092915050565b600060208284031215611de157611de06119a1565b5b600082013567ffffffffffffffff811115611dff57611dfe6119a6565b5b611e0b84828501611d9d565b91505092915050565b600060208284031215611e2a57611e296119a1565b5b6000611e3884828501611bee565b91505092915050565b611e4a81611b18565b82525050565b6000602082019050611e656000830184611e41565b92915050565b611e7481611a30565b8114611e7f57600080fd5b50565b600081359050611e9181611e6b565b92915050565b60008060408385031215611eae57611ead6119a1565b5b6000611ebc85828601611bee565b9250506020611ecd85828601611e82565b9150509250929050565b600067ffffffffffffffff821115611ef257611ef1611ca0565b5b611efb82611aac565b9050602081019050919050565b6000611f1b611f1684611ed7565b611d00565b905082815260208101848484011115611f3757611f36611c9b565b5b611f42848285611d4c565b509392505050565b600082601f830112611f5f57611f5e611c96565b5b8135611f6f848260208601611f08565b91505092915050565b60008060008060808587031215611f9257611f916119a1565b5b6000611fa087828801611bee565b9450506020611fb187828801611bee565b9350506040611fc287828801611b39565b925050606085013567ffffffffffffffff811115611fe357611fe26119a6565b5b611fef87828801611f4a565b91505092959194509250565b60008060408385031215612012576120116119a1565b5b600061202085828601611bee565b925050602061203185828601611bee565b9150509250929050565b7f4e487b7100000000000000000000000000000000000000000000000000000000600052602260045260246000fd5b6000600282049050600182168061208257607f821691505b6020821081036120955761209461203b565b5b50919050565b7f4552433732313a20617070726f76616c20746f2063757272656e74206f776e6560008201527f7200000000000000000000000000000000000000000000000000000000000000602082015250565b60006120f7602183611a71565b91506121028261209b565b604082019050919050565b60006020820190508181036000830152612126816120ea565b9050919050565b7f4552433732313a20617070726f76652063616c6c6572206973206e6f7420746f60008201527f6b656e206f776e6572206f7220617070726f76656420666f7220616c6c000000602082015250565b6000612189603d83611a71565b91506121948261212d565b604082019050919050565b600060208201905081810360008301526121b88161217c565b9050919050565b7f4552433732313a2063616c6c6572206973206e6f7420746f6b656e206f776e6560008201527f72206f7220617070726f76656400000000000000000000000000000000000000602082015250565b600061221b602d83611a71565b9150612226826121bf565b604082019050919050565b6000602082019050818103600083015261224a8161220e565b9050919050565b60008190508160005260206000209050919050565b60006020601f8301049050919050565b600082821b905092915050565b6000600883026122b37fffffffffffffffffffffffffffffffffffffffffffffffffffffffffffffffff82612276565b6122bd8683612276565b95508019841693508086168417925050509392505050565b6000819050919050565b60006122fa6122f56122f084611b18565b6122d5565b611b18565b9050919050565b6000819050919050565b612314836122df565b61232861232082612301565b848454612283565b825550505050565b600090565b61233d612330565b61234881848461230b565b505050565b5b8181101561236c57612361600082612335565b60018101905061234e565b5050565b601f8211156123b15761238281612251565b61238b84612266565b8101602085101561239a578190505b6123ae6123a685612266565b83018261234d565b50505b505050565b600082821c905092915050565b60006123d4600019846008026123b6565b1980831691505092915050565b60006123ed83836123c3565b9150826002028217905092915050565b61240682611a66565b67ffffffffffffffff81111561241f5761241e611ca0565b5b612429825461206a565b612434828285612370565b600060209050601f8311600181146124675760008415612455578287015190505b61245f85826123e1565b8655506124c7565b601f19841661247586612251565b60005b8281101561249d57848901518255600182019150602085019450602081019050612478565b868310156124ba57848901516124b6601f8916826123c3565b8355505b6001600288020188555050505b505050505050565b7f4552433732313a20696e76616c696420746f6b656e2049440000000000000000600082015250565b6000612505601883611a71565b9150612510826124cf565b602082019050919050565b60006020820190508181036000830152612534816124f8565b9050919050565b7f4552433732313a2061646472657373207a65726f206973206e6f74206120766160008201527f6c6964206f776e65720000000000000000000000000000000000000000000000602082015250565b6000612597602983611a71565b91506125a28261253b565b604082019050919050565b600060208201905081810360008301526125c68161258a565b9050919050565b60006040820190506125e26000830185611bad565b6125ef6020830184611e41565b9392505050565b600081905092915050565b600061260c82611a66565b61261681856125f6565b9350612626818560208601611a82565b80840191505092915050565b600061263e8285612601565b915061264a8284612601565b91508190509392505050565b7f4552433732313a207472616e736665722066726f6d20696e636f72726563742060008201527f6f776e6572000000000000000000000000000000000000000000000000000000602082015250565b60006126b2602583611a71565b91506126bd82612656565b604082019050919050565b600060208201905081810360008301526126e1816126a5565b9050919050565b7f4552433732313a207472616e7366657220746f20746865207a65726f2061646460008201527f7265737300000000000000000000000000000000000000000000000000000000602082015250565b6000612744602483611a71565b915061274f826126e8565b604082019050919050565b6000602082019050818103600083015261277381612737565b9050919050565b7f4552433732313a20617070726f766520746f2063616c6c657200000000000000600082015250565b60006127b0601983611a71565b91506127bb8261277a565b602082019050919050565b600060208201905081810360008301526127df816127a3565b9050919050565b7f4552433732313a207472616e7366657220746f206e6f6e20455243373231526560008201527f63656976657220696d706c656d656e7465720000000000000000000000000000602082015250565b6000612842603283611a71565b915061284d826127e6565b604082019050919050565b6000602082019050818103600083015261287181612835565b9050919050565b7f4e487b7100000000000000000000000000000000000000000000000000000000600052601260045260246000fd5b600081519050919050565b600082825260208201905092915050565b60006128ce826128a7565b6128d881856128b2565b93506128e8818560208601611a82565b6128f181611aac565b840191505092915050565b60006080820190506129116000830187611bad565b61291e6020830186611bad565b61292b6040830185611e41565b818103606083015261293d81846128c3565b905095945050505050565b600081519050612957816119d7565b92915050565b600060208284031215612973576129726119a1565b5b600061298184828501612948565b91505092915050565b7f4552433732313a206d696e7420746f20746865207a65726f2061646472657373600082015250565b60006129c0602083611a71565b91506129cb8261298a565b602082019050919050565b600060208201905081810360008301526129ef816129b3565b9050919050565b7f4552433732313a20746f6b656e20616c7265616479206d696e74656400000000600082015250565b6000612a2c601c83611a71565b9150612a37826129f6565b602082019050919050565b60006020820190508181036000830152612a5b81612a1f565b905091905056fea26469706673582212201b1e99a6f2ae26d996482495a77adde06adab8b6e515a69d7a8dde6c57cab6e564736f6c63430008120033",
  "immutableReferences": {},
  "source": "// SPDX-License-Identifier: MIT\npragma solidity ^0.8.0;\n\nimport \"@openzeppelin/contracts/token/ERC721/ERC721.sol\";\nimport \"@openzeppelin/contracts/utils/Counters.sol\";\n\ncontract NFT is ERC721 {\n    using Counters for Counters.Counter;\n    Counters.Counter private currentTokenId;\n    string public baseTokenURI;\n    event mintevent(address addOfSender, uint256 id);\n\n\n\n    constructor() ERC721(\"NFTTutorial\", \"NFT\") {}\n    \n    function mintTo(address recipient)\n        public\n        returns (uint256)\n    {\n        currentTokenId.increment();\n        uint256 newItemId = currentTokenId.current();\n        _safeMint(recipient, newItemId);\n        emit mintevent(msg.sender,newItemId);\n        return newItemId;\n    }\n\n    function _baseURI() internal view virtual override returns (string memory) \n    {\n        return baseTokenURI;\n    }\n\n    function get() public view returns(string memory) {\n        return _baseURI();\n    }\n\n\n    function setBaseTokenURI(string memory _baseTokenURI) public \n    {\n        baseTokenURI = _baseTokenURI;\n    }\n}",
  "sourcePath": "/home/hp/Documents/nency/nft_marketPlace/contracts/NFT.sol",
  "compiler": {
    "name": "solc",
    "version": "0.8.18+commit.87f61d96.Emscripten.clang"
  },
  "schemaVersion": "3.4.11",
  "updatedAt": "2023-10-02T07:26:21.183Z",
  "networkType": "ethereum",
  "devdoc": {
    "events": {
      "Approval(address,address,uint256)": {
        "details": "Emitted when `owner` enables `approved` to manage the `tokenId` token."
      },
      "ApprovalForAll(address,address,bool)": {
        "details": "Emitted when `owner` enables or disables (`approved`) `operator` to manage all of its assets."
      },
      "Transfer(address,address,uint256)": {
        "details": "Emitted when `tokenId` token is transferred from `from` to `to`."
      }
    },
    "kind": "dev",
    "methods": {
      "approve(address,uint256)": {
        "details": "See {IERC721-approve}."
      },
      "balanceOf(address)": {
        "details": "See {IERC721-balanceOf}."
      },
      "getApproved(uint256)": {
        "details": "See {IERC721-getApproved}."
      },
      "isApprovedForAll(address,address)": {
        "details": "See {IERC721-isApprovedForAll}."
      },
      "name()": {
        "details": "See {IERC721Metadata-name}."
      },
      "ownerOf(uint256)": {
        "details": "See {IERC721-ownerOf}."
      },
      "safeTransferFrom(address,address,uint256)": {
        "details": "See {IERC721-safeTransferFrom}."
      },
      "safeTransferFrom(address,address,uint256,bytes)": {
        "details": "See {IERC721-safeTransferFrom}."
      },
      "setApprovalForAll(address,bool)": {
        "details": "See {IERC721-setApprovalForAll}."
      },
      "supportsInterface(bytes4)": {
        "details": "See {IERC165-supportsInterface}."
      },
      "symbol()": {
        "details": "See {IERC721Metadata-symbol}."
      },
      "tokenURI(uint256)": {
        "details": "See {IERC721Metadata-tokenURI}."
      },
      "transferFrom(address,address,uint256)": {
        "details": "See {IERC721-transferFrom}."
      }
    },
    "version": 1
  },
  "userdoc": {
    "kind": "user",
    "methods": {},
    "version": 1
  }
}