{
  "contractName": "NFT",
  "abi": [
    {
      "inputs": [],
      "stateMutability": "nonpayable",
      "type": "constructor"
    },
    {
      "anonymous": false,
      "inputs": [
        {
          "indexed": true,
          "internalType": "address",
          "name": "owner",
          "type": "address"
        },
        {
          "indexed": true,
          "internalType": "address",
          "name": "approved",
          "type": "address"
        },
        {
          "indexed": true,
          "internalType": "uint256",
          "name": "tokenId",
          "type": "uint256"
        }
      ],
      "name": "Approval",
      "type": "event"
    },
    {
      "anonymous": false,
      "inputs": [
        {
          "indexed": true,
          "internalType": "address",
          "name": "owner",
          "type": "address"
        },
        {
          "indexed": true,
          "internalType": "address",
          "name": "operator",
          "type": "address"
        },
        {
          "indexed": false,
          "internalType": "bool",
          "name": "approved",
          "type": "bool"
        }
      ],
      "name": "ApprovalForAll",
      "type": "event"
    },
    {
      "anonymous": false,
      "inputs": [
        {
          "indexed": false,
          "internalType": "uint256",
          "name": "_fromTokenId",
          "type": "uint256"
        },
        {
          "indexed": false,
          "internalType": "uint256",
          "name": "_toTokenId",
          "type": "uint256"
        }
      ],
      "name": "BatchMetadataUpdate",
      "type": "event"
    },
    {
      "anonymous": false,
      "inputs": [
        {
          "indexed": false,
          "internalType": "uint256",
          "name": "_tokenId",
          "type": "uint256"
        }
      ],
      "name": "MetadataUpdate",
      "type": "event"
    },
    {
      "anonymous": false,
      "inputs": [
        {
          "indexed": true,
          "internalType": "address",
          "name": "previousOwner",
          "type": "address"
        },
        {
          "indexed": true,
          "internalType": "address",
          "name": "newOwner",
          "type": "address"
        }
      ],
      "name": "OwnershipTransferred",
      "type": "event"
    },
    {
      "anonymous": false,
      "inputs": [
        {
          "indexed": true,
          "internalType": "address",
          "name": "from",
          "type": "address"
        },
        {
          "indexed": true,
          "internalType": "address",
          "name": "to",
          "type": "address"
        },
        {
          "indexed": true,
          "internalType": "uint256",
          "name": "tokenId",
          "type": "uint256"
        }
      ],
      "name": "Transfer",
      "type": "event"
    },
    {
      "anonymous": false,
      "inputs": [
        {
          "indexed": false,
          "internalType": "uint256",
          "name": "tokenId",
          "type": "uint256"
        },
        {
          "indexed": false,
          "internalType": "string",
          "name": "newName",
          "type": "string"
        },
        {
          "indexed": false,
          "internalType": "uint256",
          "name": "newPrice",
          "type": "uint256"
        },
        {
          "indexed": false,
          "internalType": "string",
          "name": "newDescription",
          "type": "string"
        },
        {
          "indexed": false,
          "internalType": "string",
          "name": "newImg",
          "type": "string"
        },
        {
          "indexed": false,
          "internalType": "string",
          "name": "metadataTokenUri",
          "type": "string"
        }
      ],
      "name": "metadataUpdated",
      "type": "event"
    },
    {
      "anonymous": false,
      "inputs": [
        {
          "indexed": false,
          "internalType": "address",
          "name": "addOfSender",
          "type": "address"
        },
        {
          "indexed": false,
          "internalType": "uint256",
          "name": "id",
          "type": "uint256"
        },
        {
          "indexed": false,
          "internalType": "string",
          "name": "name",
          "type": "string"
        },
        {
          "indexed": false,
          "internalType": "uint256",
          "name": "price",
          "type": "uint256"
        },
        {
          "indexed": false,
          "internalType": "string",
          "name": "description",
          "type": "string"
        },
        {
          "indexed": false,
          "internalType": "string",
          "name": "tokenUri",
          "type": "string"
        },
        {
          "indexed": false,
          "internalType": "string",
          "name": "metadataTokenUri",
          "type": "string"
        }
      ],
      "name": "mintevent",
      "type": "event"
    },
    {
      "inputs": [
        {
          "internalType": "uint256",
          "name": "",
          "type": "uint256"
        }
      ],
      "name": "DetailsOfTokenID",
      "outputs": [
        {
          "internalType": "string",
          "name": "name",
          "type": "string"
        },
        {
          "internalType": "uint256",
          "name": "price",
          "type": "uint256"
        },
        {
          "internalType": "string",
          "name": "desc",
          "type": "string"
        },
        {
          "internalType": "string",
          "name": "tokenUri",
          "type": "string"
        },
        {
          "internalType": "string",
          "name": "metadataTokenUri",
          "type": "string"
        }
      ],
      "stateMutability": "view",
      "type": "function",
      "constant": true
    },
    {
      "inputs": [
        {
          "internalType": "address",
          "name": "to",
          "type": "address"
        },
        {
          "internalType": "uint256",
          "name": "tokenId",
          "type": "uint256"
        }
      ],
      "name": "approve",
      "outputs": [],
      "stateMutability": "nonpayable",
      "type": "function"
    },
    {
      "inputs": [
        {
          "internalType": "address",
          "name": "owner",
          "type": "address"
        }
      ],
      "name": "balanceOf",
      "outputs": [
        {
          "internalType": "uint256",
          "name": "",
          "type": "uint256"
        }
      ],
      "stateMutability": "view",
      "type": "function",
      "constant": true
    },
    {
      "inputs": [],
      "name": "baseTokenURI",
      "outputs": [
        {
          "internalType": "string",
          "name": "",
          "type": "string"
        }
      ],
      "stateMutability": "view",
      "type": "function",
      "constant": true
    },
    {
      "inputs": [
        {
          "internalType": "uint256",
          "name": "tokenId",
          "type": "uint256"
        }
      ],
      "name": "getApproved",
      "outputs": [
        {
          "internalType": "address",
          "name": "",
          "type": "address"
        }
      ],
      "stateMutability": "view",
      "type": "function",
      "constant": true
    },
    {
      "inputs": [
        {
          "internalType": "address",
          "name": "owner",
          "type": "address"
        },
        {
          "internalType": "address",
          "name": "operator",
          "type": "address"
        }
      ],
      "name": "isApprovedForAll",
      "outputs": [
        {
          "internalType": "bool",
          "name": "",
          "type": "bool"
        }
      ],
      "stateMutability": "view",
      "type": "function",
      "constant": true
    },
    {
      "inputs": [],
      "name": "name",
      "outputs": [
        {
          "internalType": "string",
          "name": "",
          "type": "string"
        }
      ],
      "stateMutability": "view",
      "type": "function",
      "constant": true
    },
    {
      "inputs": [],
      "name": "owner",
      "outputs": [
        {
          "internalType": "address",
          "name": "",
          "type": "address"
        }
      ],
      "stateMutability": "view",
      "type": "function",
      "constant": true
    },
    {
      "inputs": [
        {
          "internalType": "uint256",
          "name": "tokenId",
          "type": "uint256"
        }
      ],
      "name": "ownerOf",
      "outputs": [
        {
          "internalType": "address",
          "name": "",
          "type": "address"
        }
      ],
      "stateMutability": "view",
      "type": "function",
      "constant": true
    },
    {
      "inputs": [],
      "name": "renounceOwnership",
      "outputs": [],
      "stateMutability": "nonpayable",
      "type": "function"
    },
    {
      "inputs": [
        {
          "internalType": "address",
          "name": "from",
          "type": "address"
        },
        {
          "internalType": "address",
          "name": "to",
          "type": "address"
        },
        {
          "internalType": "uint256",
          "name": "tokenId",
          "type": "uint256"
        }
      ],
      "name": "safeTransferFrom",
      "outputs": [],
      "stateMutability": "nonpayable",
      "type": "function"
    },
    {
      "inputs": [
        {
          "internalType": "address",
          "name": "from",
          "type": "address"
        },
        {
          "internalType": "address",
          "name": "to",
          "type": "address"
        },
        {
          "internalType": "uint256",
          "name": "tokenId",
          "type": "uint256"
        },
        {
          "internalType": "bytes",
          "name": "data",
          "type": "bytes"
        }
      ],
      "name": "safeTransferFrom",
      "outputs": [],
      "stateMutability": "nonpayable",
      "type": "function"
    },
    {
      "inputs": [
        {
          "internalType": "address",
          "name": "operator",
          "type": "address"
        },
        {
          "internalType": "bool",
          "name": "approved",
          "type": "bool"
        }
      ],
      "name": "setApprovalForAll",
      "outputs": [],
      "stateMutability": "nonpayable",
      "type": "function"
    },
    {
      "inputs": [],
      "name": "symbol",
      "outputs": [
        {
          "internalType": "string",
          "name": "",
          "type": "string"
        }
      ],
      "stateMutability": "view",
      "type": "function",
      "constant": true
    },
    {
      "inputs": [
        {
          "internalType": "uint256",
          "name": "index",
          "type": "uint256"
        }
      ],
      "name": "tokenByIndex",
      "outputs": [
        {
          "internalType": "uint256",
          "name": "",
          "type": "uint256"
        }
      ],
      "stateMutability": "view",
      "type": "function",
      "constant": true
    },
    {
      "inputs": [
        {
          "internalType": "address",
          "name": "owner",
          "type": "address"
        },
        {
          "internalType": "uint256",
          "name": "index",
          "type": "uint256"
        }
      ],
      "name": "tokenOfOwnerByIndex",
      "outputs": [
        {
          "internalType": "uint256",
          "name": "",
          "type": "uint256"
        }
      ],
      "stateMutability": "view",
      "type": "function",
      "constant": true
    },
    {
      "inputs": [],
      "name": "totalSupply",
      "outputs": [
        {
          "internalType": "uint256",
          "name": "",
          "type": "uint256"
        }
      ],
      "stateMutability": "view",
      "type": "function",
      "constant": true
    },
    {
      "inputs": [
        {
          "internalType": "address",
          "name": "from",
          "type": "address"
        },
        {
          "internalType": "address",
          "name": "to",
          "type": "address"
        },
        {
          "internalType": "uint256",
          "name": "tokenId",
          "type": "uint256"
        }
      ],
      "name": "transferFrom",
      "outputs": [],
      "stateMutability": "nonpayable",
      "type": "function"
    },
    {
      "inputs": [
        {
          "internalType": "address",
          "name": "newOwner",
          "type": "address"
        }
      ],
      "name": "transferOwnership",
      "outputs": [],
      "stateMutability": "nonpayable",
      "type": "function"
    },
    {
      "inputs": [
        {
          "internalType": "bytes4",
          "name": "interfaceId",
          "type": "bytes4"
        }
      ],
      "name": "supportsInterface",
      "outputs": [
        {
          "internalType": "bool",
          "name": "",
          "type": "bool"
        }
      ],
      "stateMutability": "view",
      "type": "function",
      "constant": true
    },
    {
      "inputs": [
        {
          "internalType": "uint256",
          "name": "tokenId",
          "type": "uint256"
        }
      ],
      "name": "tokenURI",
      "outputs": [
        {
          "internalType": "string",
          "name": "",
          "type": "string"
        }
      ],
      "stateMutability": "view",
      "type": "function",
      "constant": true
    },
    {
      "inputs": [
        {
          "internalType": "address",
          "name": "recipient",
          "type": "address"
        },
        {
          "internalType": "string",
          "name": "_name",
          "type": "string"
        },
        {
          "internalType": "uint256",
          "name": "_price",
          "type": "uint256"
        },
        {
          "internalType": "string",
          "name": "_description",
          "type": "string"
        },
        {
          "internalType": "string",
          "name": "_tokenUri",
          "type": "string"
        },
        {
          "internalType": "string",
          "name": "_metadataTokenUri",
          "type": "string"
        }
      ],
      "name": "mintTo",
      "outputs": [
        {
          "internalType": "uint256",
          "name": "",
          "type": "uint256"
        }
      ],
      "stateMutability": "nonpayable",
      "type": "function"
    },
    {
      "inputs": [
        {
          "internalType": "uint256",
          "name": "_id",
          "type": "uint256"
        }
      ],
      "name": "getData",
      "outputs": [
        {
          "components": [
            {
              "internalType": "string",
              "name": "name",
              "type": "string"
            },
            {
              "internalType": "uint256",
              "name": "price",
              "type": "uint256"
            },
            {
              "internalType": "string",
              "name": "desc",
              "type": "string"
            },
            {
              "internalType": "string",
              "name": "tokenUri",
              "type": "string"
            },
            {
              "internalType": "string",
              "name": "metadataTokenUri",
              "type": "string"
            }
          ],
          "internalType": "struct NFT.Details",
          "name": "",
          "type": "tuple"
        }
      ],
      "stateMutability": "view",
      "type": "function",
      "constant": true
    },
    {
      "inputs": [],
      "name": "getOwnerAddress",
      "outputs": [
        {
          "internalType": "address",
          "name": "",
          "type": "address"
        }
      ],
      "stateMutability": "view",
      "type": "function",
      "constant": true
    },
    {
      "inputs": [
        {
          "internalType": "uint256",
          "name": "_tokenId",
          "type": "uint256"
        },
        {
          "internalType": "string",
          "name": "_name",
          "type": "string"
        },
        {
          "internalType": "uint256",
          "name": "_price",
          "type": "uint256"
        },
        {
          "internalType": "string",
          "name": "_description",
          "type": "string"
        },
        {
          "internalType": "string",
          "name": "_tokenUri",
          "type": "string"
        },
        {
          "internalType": "string",
          "name": "_metadataTokenUri",
          "type": "string"
        }
      ],
      "name": "Update",
      "outputs": [
        {
          "internalType": "string",
          "name": "",
          "type": "string"
        }
      ],
      "stateMutability": "nonpayable",
      "type": "function"
    }
  ],
  "bytecode": "0x60806040523480156200001157600080fd5b506040518060400160405280600b81526020017f4e46545475746f7269616c0000000000000000000000000000000000000000008152506040518060400160405280600381526020017f4e4654000000000000000000000000000000000000000000000000000000000081525081600090816200008f919062000412565b508060019081620000a1919062000412565b505050620000c4620000b8620000ca60201b60201c565b620000d260201b60201c565b620004f9565b600033905090565b6000600a60009054906101000a900473ffffffffffffffffffffffffffffffffffffffff16905081600a60006101000a81548173ffffffffffffffffffffffffffffffffffffffff021916908373ffffffffffffffffffffffffffffffffffffffff1602179055508173ffffffffffffffffffffffffffffffffffffffff168173ffffffffffffffffffffffffffffffffffffffff167f8be0079c531659141344cd1fd0a4f28419497f9722a3daafe3b4186f6b6457e060405160405180910390a35050565b600081519050919050565b7f4e487b7100000000000000000000000000000000000000000000000000000000600052604160045260246000fd5b7f4e487b7100000000000000000000000000000000000000000000000000000000600052602260045260246000fd5b600060028204905060018216806200021a57607f821691505b60208210810362000230576200022f620001d2565b5b50919050565b60008190508160005260206000209050919050565b60006020601f8301049050919050565b600082821b905092915050565b6000600883026200029a7fffffffffffffffffffffffffffffffffffffffffffffffffffffffffffffffff826200025b565b620002a686836200025b565b95508019841693508086168417925050509392505050565b6000819050919050565b6000819050919050565b6000620002f3620002ed620002e784620002be565b620002c8565b620002be565b9050919050565b6000819050919050565b6200030f83620002d2565b620003276200031e82620002fa565b84845462000268565b825550505050565b600090565b6200033e6200032f565b6200034b81848462000304565b505050565b5b8181101562000373576200036760008262000334565b60018101905062000351565b5050565b601f821115620003c2576200038c8162000236565b62000397846200024b565b81016020851015620003a7578190505b620003bf620003b6856200024b565b83018262000350565b50505b505050565b600082821c905092915050565b6000620003e760001984600802620003c7565b1980831691505092915050565b6000620004028383620003d4565b9150826002028217905092915050565b6200041d8262000198565b67ffffffffffffffff811115620004395762000438620001a3565b5b62000445825462000201565b6200045282828562000377565b600060209050601f8311600181146200048a576000841562000475578287015190505b620004818582620003f4565b865550620004f1565b601f1984166200049a8662000236565b60005b82811015620004c4578489015182556001820191506020850194506020810190506200049d565b86831015620004e45784890151620004e0601f891682620003d4565b8355505b6001600288020188555050505b505050505050565b61458c80620005096000396000f3fe608060405234801561001057600080fd5b50600436106101725760003560e01c80634f6ccce7116100de578063a22cb46511610097578063d547cfb711610071578063d547cfb714610487578063e985e9c5146104a5578063edfd4995146104d5578063f2fde38b1461050557610172565b8063a22cb4651461041f578063b88d4fde1461043b578063c87b56dd1461045757610172565b80634f6ccce7146103495780636352211e1461037957806370a08231146103a9578063715018a6146103d95780638da5cb5b146103e357806395d89b411461040157610172565b80630c4f65bd116101305780630c4f65bd1461027557806318160ddd1461029357806323b872dd146102b15780632f745c59146102cd5780633d26d091146102fd57806342842e0e1461032d57610172565b8062481c92146101775780630178fe3f146101ab57806301ffc9a7146101db57806306fdde031461020b578063081812fc14610229578063095ea7b314610259575b600080fd5b610191600480360381019061018c9190612c5d565b610521565b6040516101a2959493929190612d29565b60405180910390f35b6101c560048036038101906101c09190612c5d565b610777565b6040516101d29190612e7c565b60405180910390f35b6101f560048036038101906101f09190612ef6565b6109f6565b6040516102029190612f3e565b60405180910390f35b610213610a08565b6040516102209190612f59565b60405180910390f35b610243600480360381019061023e9190612c5d565b610a9a565b6040516102509190612fbc565b60405180910390f35b610273600480360381019061026e9190613003565b610ae0565b005b61027d610bf7565b60405161028a9190612fbc565b60405180910390f35b61029b610c06565b6040516102a89190613043565b60405180910390f35b6102cb60048036038101906102c6919061305e565b610c13565b005b6102e760048036038101906102e29190613003565b610c73565b6040516102f49190613043565b60405180910390f35b610317600480360381019061031291906131e6565b610d18565b6040516103249190613043565b60405180910390f35b6103476004803603810190610342919061305e565b610e36565b005b610363600480360381019061035e9190612c5d565b610e56565b6040516103709190613043565b60405180910390f35b610393600480360381019061038e9190612c5d565b610ec7565b6040516103a09190612fbc565b60405180910390f35b6103c360048036038101906103be91906132e3565b610f4d565b6040516103d09190613043565b60405180910390f35b6103e1611004565b005b6103eb611018565b6040516103f89190612fbc565b60405180910390f35b610409611042565b6040516104169190612f59565b60405180910390f35b6104396004803603810190610434919061333c565b6110d4565b005b6104556004803603810190610450919061341d565b6110ea565b005b610471600480360381019061046c9190612c5d565b61114c565b60405161047e9190612f59565b60405180910390f35b61048f61115e565b60405161049c9190612f59565b60405180910390f35b6104bf60048036038101906104ba91906134a0565b6111ec565b6040516104cc9190612f3e565b60405180910390f35b6104ef60048036038101906104ea91906134e0565b611280565b6040516104fc9190612f59565b60405180910390f35b61051f600480360381019061051a91906132e3565b6113da565b005b600e6020528060005260406000206000915090508060000180546105449061360c565b80601f01602080910402602001604051908101604052809291908181526020018280546105709061360c565b80156105bd5780601f10610592576101008083540402835291602001916105bd565b820191906000526020600020905b8154815290600101906020018083116105a057829003601f168201915b5050505050908060010154908060020180546105d89061360c565b80601f01602080910402602001604051908101604052809291908181526020018280546106049061360c565b80156106515780601f1061062657610100808354040283529160200191610651565b820191906000526020600020905b81548152906001019060200180831161063457829003601f168201915b5050505050908060030180546106669061360c565b80601f01602080910402602001604051908101604052809291908181526020018280546106929061360c565b80156106df5780601f106106b4576101008083540402835291602001916106df565b820191906000526020600020905b8154815290600101906020018083116106c257829003601f168201915b5050505050908060040180546106f49061360c565b80601f01602080910402602001604051908101604052809291908181526020018280546107209061360c565b801561076d5780601f106107425761010080835404028352916020019161076d565b820191906000526020600020905b81548152906001019060200180831161075057829003601f168201915b5050505050905085565b61077f612be4565b600e60008381526020019081526020016000206040518060a00160405290816000820180546107ad9061360c565b80601f01602080910402602001604051908101604052809291908181526020018280546107d99061360c565b80156108265780601f106107fb57610100808354040283529160200191610826565b820191906000526020600020905b81548152906001019060200180831161080957829003601f168201915b50505050508152602001600182015481526020016002820180546108499061360c565b80601f01602080910402602001604051908101604052809291908181526020018280546108759061360c565b80156108c25780601f10610897576101008083540402835291602001916108c2565b820191906000526020600020905b8154815290600101906020018083116108a557829003601f168201915b505050505081526020016003820180546108db9061360c565b80601f01602080910402602001604051908101604052809291908181526020018280546109079061360c565b80156109545780601f1061092957610100808354040283529160200191610954565b820191906000526020600020905b81548152906001019060200180831161093757829003601f168201915b5050505050815260200160048201805461096d9061360c565b80601f01602080910402602001604051908101604052809291908181526020018280546109999061360c565b80156109e65780601f106109bb576101008083540402835291602001916109e6565b820191906000526020600020905b8154815290600101906020018083116109c957829003601f168201915b5050505050815250509050919050565b6000610a018261145d565b9050919050565b606060008054610a179061360c565b80601f0160208091040260200160405190810160405280929190818152602001828054610a439061360c565b8015610a905780601f10610a6557610100808354040283529160200191610a90565b820191906000526020600020905b815481529060010190602001808311610a7357829003601f168201915b5050505050905090565b6000610aa5826114be565b6004600083815260200190815260200160002060009054906101000a900473ffffffffffffffffffffffffffffffffffffffff169050919050565b6000610aeb82610ec7565b90508073ffffffffffffffffffffffffffffffffffffffff168373ffffffffffffffffffffffffffffffffffffffff1603610b5b576040517f08c379a0000000000000000000000000000000000000000000000000000000008152600401610b52906136af565b60405180910390fd5b8073ffffffffffffffffffffffffffffffffffffffff16610b7a611509565b73ffffffffffffffffffffffffffffffffffffffff161480610ba95750610ba881610ba3611509565b6111ec565b5b610be8576040517f08c379a0000000000000000000000000000000000000000000000000000000008152600401610bdf90613741565b60405180910390fd5b610bf28383611511565b505050565b6000610c01611018565b905090565b6000600880549050905090565b610c24610c1e611509565b826115ca565b610c63576040517f08c379a0000000000000000000000000000000000000000000000000000000008152600401610c5a906137d3565b60405180910390fd5b610c6e83838361165f565b505050565b6000610c7e83610f4d565b8210610cbf576040517f08c379a0000000000000000000000000000000000000000000000000000000008152600401610cb690613865565b60405180910390fd5b600660008473ffffffffffffffffffffffffffffffffffffffff1673ffffffffffffffffffffffffffffffffffffffff168152602001908152602001600020600083815260200190815260200160002054905092915050565b6000610d24600c611958565b6000610d30600c61196e565b90506040518060a0016040528088815260200187815260200186815260200185815260200184815250600e60008381526020019081526020016000206000820151816000019081610d819190613a31565b50602082015181600101556040820151816002019081610da19190613a31565b506060820151816003019081610db79190613a31565b506080820151816004019081610dcd9190613a31565b50905050610ddb888261197c565b610de5818461199a565b7fa0da3e3615c35bffbb519c663753674cecf497b08a0042c2c6b5a6b435529f4633828989898989604051610e209796959493929190613b03565b60405180910390a1809150509695505050505050565b610e51838383604051806020016040528060008152506110ea565b505050565b6000610e60610c06565b8210610ea1576040517f08c379a0000000000000000000000000000000000000000000000000000000008152600401610e9890613c00565b60405180910390fd5b60088281548110610eb557610eb4613c20565b5b90600052602060002001549050919050565b600080610ed383611a3e565b9050600073ffffffffffffffffffffffffffffffffffffffff168173ffffffffffffffffffffffffffffffffffffffff1603610f44576040517f08c379a0000000000000000000000000000000000000000000000000000000008152600401610f3b90613c9b565b60405180910390fd5b80915050919050565b60008073ffffffffffffffffffffffffffffffffffffffff168273ffffffffffffffffffffffffffffffffffffffff1603610fbd576040517f08c379a0000000000000000000000000000000000000000000000000000000008152600401610fb490613d2d565b60405180910390fd5b600360008373ffffffffffffffffffffffffffffffffffffffff1673ffffffffffffffffffffffffffffffffffffffff168152602001908152602001600020549050919050565b61100c611a7b565b6110166000611af9565b565b6000600a60009054906101000a900473ffffffffffffffffffffffffffffffffffffffff16905090565b6060600180546110519061360c565b80601f016020809104026020016040519081016040528092919081815260200182805461107d9061360c565b80156110ca5780601f1061109f576101008083540402835291602001916110ca565b820191906000526020600020905b8154815290600101906020018083116110ad57829003601f168201915b5050505050905090565b6110e66110df611509565b8383611bbf565b5050565b6110fb6110f5611509565b836115ca565b61113a576040517f08c379a0000000000000000000000000000000000000000000000000000000008152600401611131906137d3565b60405180910390fd5b61114684848484611d2b565b50505050565b606061115782611d87565b9050919050565b600d805461116b9061360c565b80601f01602080910402602001604051908101604052809291908181526020018280546111979061360c565b80156111e45780601f106111b9576101008083540402835291602001916111e4565b820191906000526020600020905b8154815290600101906020018083116111c757829003601f168201915b505050505081565b6000600560008473ffffffffffffffffffffffffffffffffffffffff1673ffffffffffffffffffffffffffffffffffffffff16815260200190815260200160002060008373ffffffffffffffffffffffffffffffffffffffff1673ffffffffffffffffffffffffffffffffffffffff16815260200190815260200160002060009054906101000a900460ff16905092915050565b606061128a611a7b565b6000600e600089815260200190815260200160002060010154116112e3576040517f08c379a00000000000000000000000000000000000000000000000000000000081526004016112da90613d99565b60405180910390fd5b6040518060a0016040528087815260200186815260200185815260200184815260200183815250600e600089815260200190815260200160002060008201518160000190816113329190613a31565b506020820151816001015560408201518160020190816113529190613a31565b5060608201518160030190816113689190613a31565b50608082015181600401908161137e9190613a31565b5090505061138c878361199a565b7fbabf078520c4623b6442838ad2f6a188bae6e6e3909a976e1894fca920c703428787878787876040516113c596959493929190613db9565b60405180910390a18190509695505050505050565b6113e2611a7b565b600073ffffffffffffffffffffffffffffffffffffffff168173ffffffffffffffffffffffffffffffffffffffff1603611451576040517f08c379a000000000000000000000000000000000000000000000000000000000815260040161144890613ea8565b60405180910390fd5b61145a81611af9565b50565b6000634906490660e01b7bffffffffffffffffffffffffffffffffffffffffffffffffffffffff1916827bffffffffffffffffffffffffffffffffffffffffffffffffffffffff191614806114b757506114b682611e99565b5b9050919050565b6114c781611f13565b611506576040517f08c379a00000000000000000000000000000000000000000000000000000000081526004016114fd90613c9b565b60405180910390fd5b50565b600033905090565b816004600083815260200190815260200160002060006101000a81548173ffffffffffffffffffffffffffffffffffffffff021916908373ffffffffffffffffffffffffffffffffffffffff160217905550808273ffffffffffffffffffffffffffffffffffffffff1661158483610ec7565b73ffffffffffffffffffffffffffffffffffffffff167f8c5be1e5ebec7d5bd14f71427d1e84f3dd0314c0f7b2291e5b200ac8c7c3b92560405160405180910390a45050565b6000806115d683610ec7565b90508073ffffffffffffffffffffffffffffffffffffffff168473ffffffffffffffffffffffffffffffffffffffff161480611618575061161781856111ec565b5b8061165657508373ffffffffffffffffffffffffffffffffffffffff1661163e84610a9a565b73ffffffffffffffffffffffffffffffffffffffff16145b91505092915050565b8273ffffffffffffffffffffffffffffffffffffffff1661167f82610ec7565b73ffffffffffffffffffffffffffffffffffffffff16146116d5576040517f08c379a00000000000000000000000000000000000000000000000000000000081526004016116cc90613f3a565b60405180910390fd5b600073ffffffffffffffffffffffffffffffffffffffff168273ffffffffffffffffffffffffffffffffffffffff1603611744576040517f08c379a000000000000000000000000000000000000000000000000000000000815260040161173b90613fcc565b60405180910390fd5b6117518383836001611f54565b8273ffffffffffffffffffffffffffffffffffffffff1661177182610ec7565b73ffffffffffffffffffffffffffffffffffffffff16146117c7576040517f08c379a00000000000000000000000000000000000000000000000000000000081526004016117be90613f3a565b60405180910390fd5b6004600082815260200190815260200160002060006101000a81549073ffffffffffffffffffffffffffffffffffffffff02191690556001600360008573ffffffffffffffffffffffffffffffffffffffff1673ffffffffffffffffffffffffffffffffffffffff168152602001908152602001600020600082825403925050819055506001600360008473ffffffffffffffffffffffffffffffffffffffff1673ffffffffffffffffffffffffffffffffffffffff16815260200190815260200160002060008282540192505081905550816002600083815260200190815260200160002060006101000a81548173ffffffffffffffffffffffffffffffffffffffff021916908373ffffffffffffffffffffffffffffffffffffffff160217905550808273ffffffffffffffffffffffffffffffffffffffff168473ffffffffffffffffffffffffffffffffffffffff167fddf252ad1be2c89b69c2b068fc378daa952ba7f163c4a11628f55a4df523b3ef60405160405180910390a46119538383836001611f66565b505050565b6001816000016000828254019250508190555050565b600081600001549050919050565b611996828260405180602001604052806000815250611f6c565b5050565b6119a382611f13565b6119e2576040517f08c379a00000000000000000000000000000000000000000000000000000000081526004016119d99061405e565b60405180910390fd5b80600b60008481526020019081526020016000209081611a029190613a31565b507ff8e1a15aba9398e019f0b49df1a4fde98ee17ae345cb5f6b5e2c27f5033e8ce782604051611a329190613043565b60405180910390a15050565b60006002600083815260200190815260200160002060009054906101000a900473ffffffffffffffffffffffffffffffffffffffff169050919050565b611a83611509565b73ffffffffffffffffffffffffffffffffffffffff16611aa1611018565b73ffffffffffffffffffffffffffffffffffffffff1614611af7576040517f08c379a0000000000000000000000000000000000000000000000000000000008152600401611aee906140ca565b60405180910390fd5b565b6000600a60009054906101000a900473ffffffffffffffffffffffffffffffffffffffff16905081600a60006101000a81548173ffffffffffffffffffffffffffffffffffffffff021916908373ffffffffffffffffffffffffffffffffffffffff1602179055508173ffffffffffffffffffffffffffffffffffffffff168173ffffffffffffffffffffffffffffffffffffffff167f8be0079c531659141344cd1fd0a4f28419497f9722a3daafe3b4186f6b6457e060405160405180910390a35050565b8173ffffffffffffffffffffffffffffffffffffffff168373ffffffffffffffffffffffffffffffffffffffff1603611c2d576040517f08c379a0000000000000000000000000000000000000000000000000000000008152600401611c2490614136565b60405180910390fd5b80600560008573ffffffffffffffffffffffffffffffffffffffff1673ffffffffffffffffffffffffffffffffffffffff16815260200190815260200160002060008473ffffffffffffffffffffffffffffffffffffffff1673ffffffffffffffffffffffffffffffffffffffff16815260200190815260200160002060006101000a81548160ff0219169083151502179055508173ffffffffffffffffffffffffffffffffffffffff168373ffffffffffffffffffffffffffffffffffffffff167f17307eab39ab6107e8899845ad3d59bd9653f200f220920489ca2b5937696c3183604051611d1e9190612f3e565b60405180910390a3505050565b611d3684848461165f565b611d4284848484611fc7565b611d81576040517f08c379a0000000000000000000000000000000000000000000000000000000008152600401611d78906141c8565b60405180910390fd5b50505050565b6060611d92826114be565b6000600b60008481526020019081526020016000208054611db29061360c565b80601f0160208091040260200160405190810160405280929190818152602001828054611dde9061360c565b8015611e2b5780601f10611e0057610100808354040283529160200191611e2b565b820191906000526020600020905b815481529060010190602001808311611e0e57829003601f168201915b505050505090506000611e3c61214e565b90506000815103611e51578192505050611e94565b600082511115611e86578082604051602001611e6e929190614224565b60405160208183030381529060405292505050611e94565b611e8f84612165565b925050505b919050565b60007f780e9d63000000000000000000000000000000000000000000000000000000007bffffffffffffffffffffffffffffffffffffffffffffffffffffffff1916827bffffffffffffffffffffffffffffffffffffffffffffffffffffffff19161480611f0c5750611f0b826121cd565b5b9050919050565b60008073ffffffffffffffffffffffffffffffffffffffff16611f3583611a3e565b73ffffffffffffffffffffffffffffffffffffffff1614159050919050565b611f60848484846122af565b50505050565b50505050565b611f76838361240d565b611f836000848484611fc7565b611fc2576040517f08c379a0000000000000000000000000000000000000000000000000000000008152600401611fb9906141c8565b60405180910390fd5b505050565b6000611fe88473ffffffffffffffffffffffffffffffffffffffff1661262a565b15612141578373ffffffffffffffffffffffffffffffffffffffff1663150b7a02612011611509565b8786866040518563ffffffff1660e01b8152600401612033949392919061429d565b6020604051808303816000875af192505050801561206f57506040513d601f19601f8201168201806040525081019061206c91906142fe565b60015b6120f1573d806000811461209f576040519150601f19603f3d011682016040523d82523d6000602084013e6120a4565b606091505b5060008151036120e9576040517f08c379a00000000000000000000000000000000000000000000000000000000081526004016120e0906141c8565b60405180910390fd5b805181602001fd5b63150b7a0260e01b7bffffffffffffffffffffffffffffffffffffffffffffffffffffffff1916817bffffffffffffffffffffffffffffffffffffffffffffffffffffffff191614915050612146565b600190505b949350505050565b606060405180602001604052806000815250905090565b6060612170826114be565b600061217a61214e565b9050600081511161219a57604051806020016040528060008152506121c5565b806121a48461264d565b6040516020016121b5929190614224565b6040516020818303038152906040525b915050919050565b60007f80ac58cd000000000000000000000000000000000000000000000000000000007bffffffffffffffffffffffffffffffffffffffffffffffffffffffff1916827bffffffffffffffffffffffffffffffffffffffffffffffffffffffff1916148061229857507f5b5e139f000000000000000000000000000000000000000000000000000000007bffffffffffffffffffffffffffffffffffffffffffffffffffffffff1916827bffffffffffffffffffffffffffffffffffffffffffffffffffffffff1916145b806122a857506122a78261271b565b5b9050919050565b6122bb84848484612785565b60018111156122ff576040517f08c379a00000000000000000000000000000000000000000000000000000000081526004016122f69061439d565b60405180910390fd5b6000829050600073ffffffffffffffffffffffffffffffffffffffff168573ffffffffffffffffffffffffffffffffffffffff1603612346576123418161278b565b612385565b8373ffffffffffffffffffffffffffffffffffffffff168573ffffffffffffffffffffffffffffffffffffffff16146123845761238385826127d4565b5b5b600073ffffffffffffffffffffffffffffffffffffffff168473ffffffffffffffffffffffffffffffffffffffff16036123c7576123c281612941565b612406565b8473ffffffffffffffffffffffffffffffffffffffff168473ffffffffffffffffffffffffffffffffffffffff1614612405576124048482612a12565b5b5b5050505050565b600073ffffffffffffffffffffffffffffffffffffffff168273ffffffffffffffffffffffffffffffffffffffff160361247c576040517f08c379a000000000000000000000000000000000000000000000000000000000815260040161247390614409565b60405180910390fd5b61248581611f13565b156124c5576040517f08c379a00000000000000000000000000000000000000000000000000000000081526004016124bc90614475565b60405180910390fd5b6124d3600083836001611f54565b6124dc81611f13565b1561251c576040517f08c379a000000000000000000000000000000000000000000000000000000000815260040161251390614475565b60405180910390fd5b6001600360008473ffffffffffffffffffffffffffffffffffffffff1673ffffffffffffffffffffffffffffffffffffffff16815260200190815260200160002060008282540192505081905550816002600083815260200190815260200160002060006101000a81548173ffffffffffffffffffffffffffffffffffffffff021916908373ffffffffffffffffffffffffffffffffffffffff160217905550808273ffffffffffffffffffffffffffffffffffffffff16600073ffffffffffffffffffffffffffffffffffffffff167fddf252ad1be2c89b69c2b068fc378daa952ba7f163c4a11628f55a4df523b3ef60405160405180910390a4612626600083836001611f66565b5050565b6000808273ffffffffffffffffffffffffffffffffffffffff163b119050919050565b60606000600161265c84612a91565b01905060008167ffffffffffffffff81111561267b5761267a6130bb565b5b6040519080825280601f01601f1916602001820160405280156126ad5781602001600182028036833780820191505090505b509050600082602001820190505b600115612710578080600190039150507f3031323334353637383961626364656600000000000000000000000000000000600a86061a8153600a858161270457612703614495565b5b049450600085036126bb575b819350505050919050565b60007f01ffc9a7000000000000000000000000000000000000000000000000000000007bffffffffffffffffffffffffffffffffffffffffffffffffffffffff1916827bffffffffffffffffffffffffffffffffffffffffffffffffffffffff1916149050919050565b50505050565b6008805490506009600083815260200190815260200160002081905550600881908060018154018082558091505060019003906000526020600020016000909190919091505550565b600060016127e184610f4d565b6127eb91906144f3565b90506000600760008481526020019081526020016000205490508181146128d0576000600660008673ffffffffffffffffffffffffffffffffffffffff1673ffffffffffffffffffffffffffffffffffffffff168152602001908152602001600020600084815260200190815260200160002054905080600660008773ffffffffffffffffffffffffffffffffffffffff1673ffffffffffffffffffffffffffffffffffffffff168152602001908152602001600020600084815260200190815260200160002081905550816007600083815260200190815260200160002081905550505b6007600084815260200190815260200160002060009055600660008573ffffffffffffffffffffffffffffffffffffffff1673ffffffffffffffffffffffffffffffffffffffff16815260200190815260200160002060008381526020019081526020016000206000905550505050565b6000600160088054905061295591906144f3565b905060006009600084815260200190815260200160002054905060006008838154811061298557612984613c20565b5b9060005260206000200154905080600883815481106129a7576129a6613c20565b5b9060005260206000200181905550816009600083815260200190815260200160002081905550600960008581526020019081526020016000206000905560088054806129f6576129f5614527565b5b6001900381819060005260206000200160009055905550505050565b6000612a1d83610f4d565b905081600660008573ffffffffffffffffffffffffffffffffffffffff1673ffffffffffffffffffffffffffffffffffffffff168152602001908152602001600020600083815260200190815260200160002081905550806007600084815260200190815260200160002081905550505050565b600080600090507a184f03e93ff9f4daa797ed6e38ed64bf6a1f0100000000000000008310612aef577a184f03e93ff9f4daa797ed6e38ed64bf6a1f0100000000000000008381612ae557612ae4614495565b5b0492506040810190505b6d04ee2d6d415b85acef81000000008310612b2c576d04ee2d6d415b85acef81000000008381612b2257612b21614495565b5b0492506020810190505b662386f26fc100008310612b5b57662386f26fc100008381612b5157612b50614495565b5b0492506010810190505b6305f5e1008310612b84576305f5e1008381612b7a57612b79614495565b5b0492506008810190505b6127108310612ba9576127108381612b9f57612b9e614495565b5b0492506004810190505b60648310612bcc5760648381612bc257612bc1614495565b5b0492506002810190505b600a8310612bdb576001810190505b80915050919050565b6040518060a0016040528060608152602001600081526020016060815260200160608152602001606081525090565b6000604051905090565b600080fd5b600080fd5b6000819050919050565b612c3a81612c27565b8114612c4557600080fd5b50565b600081359050612c5781612c31565b92915050565b600060208284031215612c7357612c72612c1d565b5b6000612c8184828501612c48565b91505092915050565b600081519050919050565b600082825260208201905092915050565b60005b83811015612cc4578082015181840152602081019050612ca9565b60008484015250505050565b6000601f19601f8301169050919050565b6000612cec82612c8a565b612cf68185612c95565b9350612d06818560208601612ca6565b612d0f81612cd0565b840191505092915050565b612d2381612c27565b82525050565b600060a0820190508181036000830152612d438188612ce1565b9050612d526020830187612d1a565b8181036040830152612d648186612ce1565b90508181036060830152612d788185612ce1565b90508181036080830152612d8c8184612ce1565b90509695505050505050565b600082825260208201905092915050565b6000612db482612c8a565b612dbe8185612d98565b9350612dce818560208601612ca6565b612dd781612cd0565b840191505092915050565b612deb81612c27565b82525050565b600060a0830160008301518482036000860152612e0e8282612da9565b9150506020830151612e236020860182612de2565b5060408301518482036040860152612e3b8282612da9565b91505060608301518482036060860152612e558282612da9565b91505060808301518482036080860152612e6f8282612da9565b9150508091505092915050565b60006020820190508181036000830152612e968184612df1565b905092915050565b60007fffffffff0000000000000000000000000000000000000000000000000000000082169050919050565b612ed381612e9e565b8114612ede57600080fd5b50565b600081359050612ef081612eca565b92915050565b600060208284031215612f0c57612f0b612c1d565b5b6000612f1a84828501612ee1565b91505092915050565b60008115159050919050565b612f3881612f23565b82525050565b6000602082019050612f536000830184612f2f565b92915050565b60006020820190508181036000830152612f738184612ce1565b905092915050565b600073ffffffffffffffffffffffffffffffffffffffff82169050919050565b6000612fa682612f7b565b9050919050565b612fb681612f9b565b82525050565b6000602082019050612fd16000830184612fad565b92915050565b612fe081612f9b565b8114612feb57600080fd5b50565b600081359050612ffd81612fd7565b92915050565b6000806040838503121561301a57613019612c1d565b5b600061302885828601612fee565b925050602061303985828601612c48565b9150509250929050565b60006020820190506130586000830184612d1a565b92915050565b60008060006060848603121561307757613076612c1d565b5b600061308586828701612fee565b935050602061309686828701612fee565b92505060406130a786828701612c48565b9150509250925092565b600080fd5b600080fd5b7f4e487b7100000000000000000000000000000000000000000000000000000000600052604160045260246000fd5b6130f382612cd0565b810181811067ffffffffffffffff82111715613112576131116130bb565b5b80604052505050565b6000613125612c13565b905061313182826130ea565b919050565b600067ffffffffffffffff821115613151576131506130bb565b5b61315a82612cd0565b9050602081019050919050565b82818337600083830152505050565b600061318961318484613136565b61311b565b9050828152602081018484840111156131a5576131a46130b6565b5b6131b0848285613167565b509392505050565b600082601f8301126131cd576131cc6130b1565b5b81356131dd848260208601613176565b91505092915050565b60008060008060008060c0878903121561320357613202612c1d565b5b600061321189828a01612fee565b965050602087013567ffffffffffffffff81111561323257613231612c22565b5b61323e89828a016131b8565b955050604061324f89828a01612c48565b945050606087013567ffffffffffffffff8111156132705761326f612c22565b5b61327c89828a016131b8565b935050608087013567ffffffffffffffff81111561329d5761329c612c22565b5b6132a989828a016131b8565b92505060a087013567ffffffffffffffff8111156132ca576132c9612c22565b5b6132d689828a016131b8565b9150509295509295509295565b6000602082840312156132f9576132f8612c1d565b5b600061330784828501612fee565b91505092915050565b61331981612f23565b811461332457600080fd5b50565b60008135905061333681613310565b92915050565b6000806040838503121561335357613352612c1d565b5b600061336185828601612fee565b925050602061337285828601613327565b9150509250929050565b600067ffffffffffffffff821115613397576133966130bb565b5b6133a082612cd0565b9050602081019050919050565b60006133c06133bb8461337c565b61311b565b9050828152602081018484840111156133dc576133db6130b6565b5b6133e7848285613167565b509392505050565b600082601f830112613404576134036130b1565b5b81356134148482602086016133ad565b91505092915050565b6000806000806080858703121561343757613436612c1d565b5b600061344587828801612fee565b945050602061345687828801612fee565b935050604061346787828801612c48565b925050606085013567ffffffffffffffff81111561348857613487612c22565b5b613494878288016133ef565b91505092959194509250565b600080604083850312156134b7576134b6612c1d565b5b60006134c585828601612fee565b92505060206134d685828601612fee565b9150509250929050565b60008060008060008060c087890312156134fd576134fc612c1d565b5b600061350b89828a01612c48565b965050602087013567ffffffffffffffff81111561352c5761352b612c22565b5b61353889828a016131b8565b955050604061354989828a01612c48565b945050606087013567ffffffffffffffff81111561356a57613569612c22565b5b61357689828a016131b8565b935050608087013567ffffffffffffffff81111561359757613596612c22565b5b6135a389828a016131b8565b92505060a087013567ffffffffffffffff8111156135c4576135c3612c22565b5b6135d089828a016131b8565b9150509295509295509295565b7f4e487b7100000000000000000000000000000000000000000000000000000000600052602260045260246000fd5b6000600282049050600182168061362457607f821691505b602082108103613637576136366135dd565b5b50919050565b7f4552433732313a20617070726f76616c20746f2063757272656e74206f776e6560008201527f7200000000000000000000000000000000000000000000000000000000000000602082015250565b6000613699602183612c95565b91506136a48261363d565b604082019050919050565b600060208201905081810360008301526136c88161368c565b9050919050565b7f4552433732313a20617070726f76652063616c6c6572206973206e6f7420746f60008201527f6b656e206f776e6572206f7220617070726f76656420666f7220616c6c000000602082015250565b600061372b603d83612c95565b9150613736826136cf565b604082019050919050565b6000602082019050818103600083015261375a8161371e565b9050919050565b7f4552433732313a2063616c6c6572206973206e6f7420746f6b656e206f776e6560008201527f72206f7220617070726f76656400000000000000000000000000000000000000602082015250565b60006137bd602d83612c95565b91506137c882613761565b604082019050919050565b600060208201905081810360008301526137ec816137b0565b9050919050565b7f455243373231456e756d657261626c653a206f776e657220696e646578206f7560008201527f74206f6620626f756e6473000000000000000000000000000000000000000000602082015250565b600061384f602b83612c95565b915061385a826137f3565b604082019050919050565b6000602082019050818103600083015261387e81613842565b9050919050565b60008190508160005260206000209050919050565b60006020601f8301049050919050565b600082821b905092915050565b6000600883026138e77fffffffffffffffffffffffffffffffffffffffffffffffffffffffffffffffff826138aa565b6138f186836138aa565b95508019841693508086168417925050509392505050565b6000819050919050565b600061392e61392961392484612c27565b613909565b612c27565b9050919050565b6000819050919050565b61394883613913565b61395c61395482613935565b8484546138b7565b825550505050565b600090565b613971613964565b61397c81848461393f565b505050565b5b818110156139a057613995600082613969565b600181019050613982565b5050565b601f8211156139e5576139b681613885565b6139bf8461389a565b810160208510156139ce578190505b6139e26139da8561389a565b830182613981565b50505b505050565b600082821c905092915050565b6000613a08600019846008026139ea565b1980831691505092915050565b6000613a2183836139f7565b9150826002028217905092915050565b613a3a82612c8a565b67ffffffffffffffff811115613a5357613a526130bb565b5b613a5d825461360c565b613a688282856139a4565b600060209050601f831160018114613a9b5760008415613a89578287015190505b613a938582613a15565b865550613afb565b601f198416613aa986613885565b60005b82811015613ad157848901518255600182019150602085019450602081019050613aac565b86831015613aee5784890151613aea601f8916826139f7565b8355505b6001600288020188555050505b505050505050565b600060e082019050613b18600083018a612fad565b613b256020830189612d1a565b8181036040830152613b378188612ce1565b9050613b466060830187612d1a565b8181036080830152613b588186612ce1565b905081810360a0830152613b6c8185612ce1565b905081810360c0830152613b808184612ce1565b905098975050505050505050565b7f455243373231456e756d657261626c653a20676c6f62616c20696e646578206f60008201527f7574206f6620626f756e64730000000000000000000000000000000000000000602082015250565b6000613bea602c83612c95565b9150613bf582613b8e565b604082019050919050565b60006020820190508181036000830152613c1981613bdd565b9050919050565b7f4e487b7100000000000000000000000000000000000000000000000000000000600052603260045260246000fd5b7f4552433732313a20696e76616c696420746f6b656e2049440000000000000000600082015250565b6000613c85601883612c95565b9150613c9082613c4f565b602082019050919050565b60006020820190508181036000830152613cb481613c78565b9050919050565b7f4552433732313a2061646472657373207a65726f206973206e6f74206120766160008201527f6c6964206f776e65720000000000000000000000000000000000000000000000602082015250565b6000613d17602983612c95565b9150613d2282613cbb565b604082019050919050565b60006020820190508181036000830152613d4681613d0a565b9050919050565b7f546f6b656e20494420646f6573206e6f74206578697374000000000000000000600082015250565b6000613d83601783612c95565b9150613d8e82613d4d565b602082019050919050565b60006020820190508181036000830152613db281613d76565b9050919050565b600060c082019050613dce6000830189612d1a565b8181036020830152613de08188612ce1565b9050613def6040830187612d1a565b8181036060830152613e018186612ce1565b90508181036080830152613e158185612ce1565b905081810360a0830152613e298184612ce1565b9050979650505050505050565b7f4f776e61626c653a206e6577206f776e657220697320746865207a65726f206160008201527f6464726573730000000000000000000000000000000000000000000000000000602082015250565b6000613e92602683612c95565b9150613e9d82613e36565b604082019050919050565b60006020820190508181036000830152613ec181613e85565b9050919050565b7f4552433732313a207472616e736665722066726f6d20696e636f72726563742060008201527f6f776e6572000000000000000000000000000000000000000000000000000000602082015250565b6000613f24602583612c95565b9150613f2f82613ec8565b604082019050919050565b60006020820190508181036000830152613f5381613f17565b9050919050565b7f4552433732313a207472616e7366657220746f20746865207a65726f2061646460008201527f7265737300000000000000000000000000000000000000000000000000000000602082015250565b6000613fb6602483612c95565b9150613fc182613f5a565b604082019050919050565b60006020820190508181036000830152613fe581613fa9565b9050919050565b7f45524337323155524953746f726167653a2055524920736574206f66206e6f6e60008201527f6578697374656e7420746f6b656e000000000000000000000000000000000000602082015250565b6000614048602e83612c95565b915061405382613fec565b604082019050919050565b600060208201905081810360008301526140778161403b565b9050919050565b7f4f776e61626c653a2063616c6c6572206973206e6f7420746865206f776e6572600082015250565b60006140b4602083612c95565b91506140bf8261407e565b602082019050919050565b600060208201905081810360008301526140e3816140a7565b9050919050565b7f4552433732313a20617070726f766520746f2063616c6c657200000000000000600082015250565b6000614120601983612c95565b915061412b826140ea565b602082019050919050565b6000602082019050818103600083015261414f81614113565b9050919050565b7f4552433732313a207472616e7366657220746f206e6f6e20455243373231526560008201527f63656976657220696d706c656d656e7465720000000000000000000000000000602082015250565b60006141b2603283612c95565b91506141bd82614156565b604082019050919050565b600060208201905081810360008301526141e1816141a5565b9050919050565b600081905092915050565b60006141fe82612c8a565b61420881856141e8565b9350614218818560208601612ca6565b80840191505092915050565b600061423082856141f3565b915061423c82846141f3565b91508190509392505050565b600081519050919050565b600082825260208201905092915050565b600061426f82614248565b6142798185614253565b9350614289818560208601612ca6565b61429281612cd0565b840191505092915050565b60006080820190506142b26000830187612fad565b6142bf6020830186612fad565b6142cc6040830185612d1a565b81810360608301526142de8184614264565b905095945050505050565b6000815190506142f881612eca565b92915050565b60006020828403121561431457614313612c1d565b5b6000614322848285016142e9565b91505092915050565b7f455243373231456e756d657261626c653a20636f6e736563757469766520747260008201527f616e7366657273206e6f7420737570706f727465640000000000000000000000602082015250565b6000614387603583612c95565b91506143928261432b565b604082019050919050565b600060208201905081810360008301526143b68161437a565b9050919050565b7f4552433732313a206d696e7420746f20746865207a65726f2061646472657373600082015250565b60006143f3602083612c95565b91506143fe826143bd565b602082019050919050565b60006020820190508181036000830152614422816143e6565b9050919050565b7f4552433732313a20746f6b656e20616c7265616479206d696e74656400000000600082015250565b600061445f601c83612c95565b915061446a82614429565b602082019050919050565b6000602082019050818103600083015261448e81614452565b9050919050565b7f4e487b7100000000000000000000000000000000000000000000000000000000600052601260045260246000fd5b7f4e487b7100000000000000000000000000000000000000000000000000000000600052601160045260246000fd5b60006144fe82612c27565b915061450983612c27565b9250828203905081811115614521576145206144c4565b5b92915050565b7f4e487b7100000000000000000000000000000000000000000000000000000000600052603160045260246000fdfea26469706673582212205d9ec552a22d78f51b912416aa7f93062fa489024acd102af05ddc19c6c9c67864736f6c63430008120033",
  "immutableReferences": {},
  "source": "// SPDX-License-Identifier: MIT\npragma solidity ^0.8.0;\n\nimport \"@openzeppelin/contracts/token/ERC721/ERC721.sol\";\nimport \"@openzeppelin/contracts/utils/Counters.sol\";\nimport \"@openzeppelin/contracts/token/ERC721/extensions/ERC721URIStorage.sol\";\nimport \"@openzeppelin/contracts/token/ERC721/extensions/ERC721Enumerable.sol\";\nimport \"@openzeppelin/contracts/access/Ownable.sol\";\n\n\n\ncontract NFT is ERC721 ,ERC721Enumerable,Ownable ,ERC721URIStorage{\n    using Counters for Counters.Counter;\n    Counters.Counter private currentTokenId;\n    string public baseTokenURI;\n  \n\n    struct Details{\n        string name;\n        uint price;\n        string desc;\n        string tokenUri;\n        string metadataTokenUri;\n    } \n    mapping(uint => Details) public DetailsOfTokenID;\n\n    \n    event mintevent(address addOfSender, uint256 id , string name , uint price,string description,string tokenUri ,string metadataTokenUri);\n    event metadataUpdated(uint tokenId, string newName,uint256 newPrice,string newDescription,string newImg,string metadataTokenUri);\n\n    constructor() ERC721(\"NFTTutorial\", \"NFT\") {}\n    \n    \n    function _beforeTokenTransfer(address from, address to, uint256 tokenId, uint256 batchSize) internal override(ERC721, ERC721Enumerable)\n    {\n        super._beforeTokenTransfer(from, to, tokenId, batchSize);\n    }\n\n    function supportsInterface(bytes4 interfaceId) public view override(ERC721, ERC721Enumerable,ERC721URIStorage) returns (bool) {\n        return super.supportsInterface(interfaceId);\n    }\n\n    function tokenURI(uint256 tokenId) public view override(ERC721URIStorage, ERC721) returns (string memory) {\n        return super.tokenURI(tokenId);\n    }\n\n    function mintTo(address recipient, string memory _name, uint _price, string memory _description, string memory _tokenUri ,string memory _metadataTokenUri) public  returns (uint256)\n    {\n        currentTokenId.increment();\n        uint256 newItemId = currentTokenId.current();\n        DetailsOfTokenID[newItemId]=Details(_name,_price,_description,_tokenUri,_metadataTokenUri);\n        _safeMint(recipient, newItemId);\n        _setTokenURI(newItemId, _metadataTokenUri);\n\n\n        emit mintevent(msg.sender,newItemId,_name,_price,_description,_tokenUri,_metadataTokenUri);\n        return newItemId;\n    }\n\n      function getData (uint _id) public view returns(Details memory){\n        return DetailsOfTokenID[_id];\n    }\n\n        function _burn(uint256 tokenId) internal override(ERC721URIStorage, ERC721) {\n            super._burn(tokenId);\n        }\n\n\n    function getOwnerAddress() public view returns (address) {\n            return owner();\n        }\n\n    function Update(uint _tokenId,string memory _name, uint _price, string memory _description, string memory _tokenUri ,string memory _metadataTokenUri) public onlyOwner returns (string memory)\n    {\n        require(DetailsOfTokenID[_tokenId].price > 0, \"Token ID does not exist\");\n        DetailsOfTokenID[_tokenId]=Details(_name,_price,_description,_tokenUri,_metadataTokenUri);\n        _setTokenURI(_tokenId, _metadataTokenUri);\n        emit metadataUpdated(_tokenId,_name,_price,_description,_tokenUri,_metadataTokenUri);\n        return _metadataTokenUri;\n    }    \n \n}",
  "sourcePath": "/home/hp/Documents/nency/nft_marketPlace/contracts/NFT.sol",
  "compiler": {
    "name": "solc",
    "version": "0.8.18+commit.87f61d96.Emscripten.clang"
  },
  "schemaVersion": "3.4.11",
  "updatedAt": "2023-10-10T05:15:42.782Z",
  "networkType": "ethereum",
  "devdoc": {
    "events": {
      "Approval(address,address,uint256)": {
        "details": "Emitted when `owner` enables `approved` to manage the `tokenId` token."
      },
      "ApprovalForAll(address,address,bool)": {
        "details": "Emitted when `owner` enables or disables (`approved`) `operator` to manage all of its assets."
      },
      "BatchMetadataUpdate(uint256,uint256)": {
        "details": "This event emits when the metadata of a range of tokens is changed. So that the third-party platforms such as NFT market could timely update the images and related attributes of the NFTs."
      },
      "MetadataUpdate(uint256)": {
        "details": "This event emits when the metadata of a token is changed. So that the third-party platforms such as NFT market could timely update the images and related attributes of the NFT."
      },
      "Transfer(address,address,uint256)": {
        "details": "Emitted when `tokenId` token is transferred from `from` to `to`."
      }
    },
    "kind": "dev",
    "methods": {
      "approve(address,uint256)": {
        "details": "See {IERC721-approve}."
      },
      "balanceOf(address)": {
        "details": "See {IERC721-balanceOf}."
      },
      "getApproved(uint256)": {
        "details": "See {IERC721-getApproved}."
      },
      "isApprovedForAll(address,address)": {
        "details": "See {IERC721-isApprovedForAll}."
      },
      "name()": {
        "details": "See {IERC721Metadata-name}."
      },
      "owner()": {
        "details": "Returns the address of the current owner."
      },
      "ownerOf(uint256)": {
        "details": "See {IERC721-ownerOf}."
      },
      "renounceOwnership()": {
        "details": "Leaves the contract without owner. It will not be possible to call `onlyOwner` functions. Can only be called by the current owner. NOTE: Renouncing ownership will leave the contract without an owner, thereby disabling any functionality that is only available to the owner."
      },
      "safeTransferFrom(address,address,uint256)": {
        "details": "See {IERC721-safeTransferFrom}."
      },
      "safeTransferFrom(address,address,uint256,bytes)": {
        "details": "See {IERC721-safeTransferFrom}."
      },
      "setApprovalForAll(address,bool)": {
        "details": "See {IERC721-setApprovalForAll}."
      },
      "symbol()": {
        "details": "See {IERC721Metadata-symbol}."
      },
      "tokenByIndex(uint256)": {
        "details": "See {IERC721Enumerable-tokenByIndex}."
      },
      "tokenOfOwnerByIndex(address,uint256)": {
        "details": "See {IERC721Enumerable-tokenOfOwnerByIndex}."
      },
      "totalSupply()": {
        "details": "See {IERC721Enumerable-totalSupply}."
      },
      "transferFrom(address,address,uint256)": {
        "details": "See {IERC721-transferFrom}."
      },
      "transferOwnership(address)": {
        "details": "Transfers ownership of the contract to a new account (`newOwner`). Can only be called by the current owner."
      }
    },
    "version": 1
  },
  "userdoc": {
    "kind": "user",
    "methods": {},
    "version": 1
  }
}